{
    "RawJsonBlockHeader": "EvmBlockHeaderFromRpc { number: 0x13a0a37, hash: 0xec08ac2243e0a0d19ca1b989918560f47658ecdd66e9820923fa77264c49024a, difficulty: 0x0, extra_data: 0x6265617665726275696c642e6f7267, gas_limit: 0x1c9c380, gas_used: 0xe2ff95, logs_bloom: 0x12210b0819d5916a184095b8c2301201313100210744240608ef22489231a10017d5a509a8880800ae007002099e0f9c260bda50ce8178ad0bf0204078ba050122138698910c48ab092ec12ce02980ad11a382522470dd157946050aec646a444d23840546720fa62e0c21820c382d6b6191942926ce0631a208111e008e55085bb428cada80e9e98941e549432a086d0a41e80dab2ff6989324ad4209d35a3a0a6225620950205c8ef571e01992043a260dc503631c5020576b54ba8c901079580204aea4020b7121106c32503bca4600239246b520c3301d9f024228aaa21a913b6944d1a610a30c067180a020d2123118968345680ace0084b16aa8e81559, miner: 0x95222290dd7278aa3ddd389cc1e1d165cc4bafe5, mix_hash: 0x9d1c0eda1a3c0973dd3aa51cb3141c44a7231ed37126f428f0321abdc0cfb5f7, nonce: 0x0000000000000000, parent_hash: 0x56429684d943223770f6516b554533b4e9873d0ed242a5bf61f93ba5e94934c1, receipts_root: 0x79b6dddff496dc07d489adea53eb3394939b2b5719581ab9356ab3119b0d680f, sha3_uncles: 0x1dcc4de8dec75d7aab85b567b6ccd41ad312451b948a7413f0a142fd40d49347, size: 0xc674, state_root: 0x0e1c457be55206c2538ffc142ff0c0ec492396274d27c4e4f23146189990b2e7, timestamp: 0x66c696a7, total_difficulty: 0xc70d815d562d3cfa955, transactions_root: 0x23b74ef6dea099fba60ee2f7adbdbb955f290c57fdb36b65e41dcfd4f499b922, base_fee_per_gas: Some(0x33bdab46), withdrawals_root: Some(0x6d315398e834af8a8ab32b6ffe6296ff2dfec04600fac961c31255c400cac3c2), blob_gas_used: Some(0x0), excess_blob_gas: Some(0x60000), parent_beacon_block_root: Some(0x35eb2e2c8db58b6db6139a4fe79c9157c981d8375610082cd5d0772cc717817c) }",
    "RawBlockHeader": "Header { parent_hash: 0x56429684d943223770f6516b554533b4e9873d0ed242a5bf61f93ba5e94934c1, ommers_hash: 0x1dcc4de8dec75d7aab85b567b6ccd41ad312451b948a7413f0a142fd40d49347, beneficiary: 0x95222290dd7278aa3ddd389cc1e1d165cc4bafe5, state_root: 0x0e1c457be55206c2538ffc142ff0c0ec492396274d27c4e4f23146189990b2e7, transactions_root: 0x23b74ef6dea099fba60ee2f7adbdbb955f290c57fdb36b65e41dcfd4f499b922, receipts_root: 0x79b6dddff496dc07d489adea53eb3394939b2b5719581ab9356ab3119b0d680f, withdrawals_root: Some(0x6d315398e834af8a8ab32b6ffe6296ff2dfec04600fac961c31255c400cac3c2), logs_bloom: 0x12210b0819d5916a184095b8c2301201313100210744240608ef22489231a10017d5a509a8880800ae007002099e0f9c260bda50ce8178ad0bf0204078ba050122138698910c48ab092ec12ce02980ad11a382522470dd157946050aec646a444d23840546720fa62e0c21820c382d6b6191942926ce0631a208111e008e55085bb428cada80e9e98941e549432a086d0a41e80dab2ff6989324ad4209d35a3a0a6225620950205c8ef571e01992043a260dc503631c5020576b54ba8c901079580204aea4020b7121106c32503bca4600239246b520c3301d9f024228aaa21a913b6944d1a610a30c067180a020d2123118968345680ace0084b16aa8e81559, difficulty: 0x0_U256, number: 20580919, gas_limit: 30000000, gas_used: 14876565, timestamp: 1724290727, mix_hash: 0x9d1c0eda1a3c0973dd3aa51cb3141c44a7231ed37126f428f0321abdc0cfb5f7, nonce: 0, base_fee_per_gas: Some(868068166), blob_gas_used: Some(0), excess_blob_gas: Some(393216), parent_beacon_block_root: Some(0x35eb2e2c8db58b6db6139a4fe79c9157c981d8375610082cd5d0772cc717817c), extra_data: 0x6265617665726275696c642e6f7267 }",
    "RlpEncodedBlockHeader": "f90257a056429684d943223770f6516b554533b4e9873d0ed242a5bf61f93ba5e94934c1a01dcc4de8dec75d7aab85b567b6ccd41ad312451b948a7413f0a142fd40d493479495222290dd7278aa3ddd389cc1e1d165cc4bafe5a00e1c457be55206c2538ffc142ff0c0ec492396274d27c4e4f23146189990b2e7a023b74ef6dea099fba60ee2f7adbdbb955f290c57fdb36b65e41dcfd4f499b922a079b6dddff496dc07d489adea53eb3394939b2b5719581ab9356ab3119b0d680fb9010012210b0819d5916a184095b8c2301201313100210744240608ef22489231a10017d5a509a8880800ae007002099e0f9c260bda50ce8178ad0bf0204078ba050122138698910c48ab092ec12ce02980ad11a382522470dd157946050aec646a444d23840546720fa62e0c21820c382d6b6191942926ce0631a208111e008e55085bb428cada80e9e98941e549432a086d0a41e80dab2ff6989324ad4209d35a3a0a6225620950205c8ef571e01992043a260dc503631c5020576b54ba8c901079580204aea4020b7121106c32503bca4600239246b520c3301d9f024228aaa21a913b6944d1a610a30c067180a020d2123118968345680ace0084b16aa8e815598084013a0a378401c9c38083e2ff958466c696a78f6265617665726275696c642e6f7267a09d1c0eda1a3c0973dd3aa51cb3141c44a7231ed37126f428f0321abdc0cfb5f78800000000000000008433bdab46a06d315398e834af8a8ab32b6ffe6296ff2dfec04600fac961c31255c400cac3c28083060000a035eb2e2c8db58b6db6139a4fe79c9157c981d8375610082cd5d0772cc717817c",
    "BlockHash": "0xec08ac2243e0a0d19ca1b989918560f47658ecdd66e9820923fa77264c49024a",
    "BlockNumber": 20580919,
    "BlockTimestamp": 1724290727
}