{
    "RawJsonBlockHeader": "EvmBlockHeaderFromRpc { number: 0x148921c, hash: 0xb666cdae44dcc8ec85cff67735f53a1e5d70bf62ab2367c3eb65c72fef9a7522, difficulty: 0x0, extra_data: 0xd883010e08846765746888676f312e32322e36856c696e7578, gas_limit: 0x1c9c380, gas_used: 0xd86db3, logs_bloom: 0x9c3defdfdda37fd44fcf3646edbed965f7f37afff7fbae5bdb9fff5fbf7fb79fff9bacaaf7fff3ebeffffdfffff5e1ffdffff7ebebf7fa70fffdbfdb7feffab7e7feff7fa75bef7ffdffebbfdfff39fefce7d6ec3ff3feff9cf6e3ffd9ffffbff7ffffbceb7afdff38efdf37ffefecefefa3f7b7f3eeb74fde9ff7f687cffff675af5cddfdf2ef7bfffdf3e5f9fbdddebf20df7fdfdfffefffeffefdffff7ff9fbaf85ffff3e3fdbaf3fbff6ff6ba7aea7dfdfbf7ffdbf926ffde7e3ff3f67df7aff5b6febbbf3f2fffbf37ed2ff7ff676fdffff3f9fe7fffffbffb677f3ffbffeb3f7eed6eedf5c15fc16dbfffbbd257c73bdf7fa7e6bdefcfeff91aca5fe9f, miner: 0x7e2a2fa2a064f693f0a55c5639476d913ff12d05, mix_hash: 0x5bd682b1ec9ab34be2ef59a807556de4c573667375a156ff27b43712440040ed, nonce: 0x0000000000000000, parent_hash: 0x9a96f719971a52d10ffbf37878d4b67ce6772e5e10fbf33de72b4455bbf0ca6a, receipts_root: 0x740c648ed49308c2cbffd9cc85e6e0cda71e7b7c25526f4a275a10c6e9e80f32, sha3_uncles: 0x1dcc4de8dec75d7aab85b567b6ccd41ad312451b948a7413f0a142fd40d49347, size: 0x5501, state_root: 0xa4e6f7c4dc8fcd6395fc3f8328f7998f62516e5785b2be082b2e5e1ddb2691d2, timestamp: 0x6775de43, total_difficulty: 0xc70d815d562d3cfa955, transactions_root: 0xb310457bdf67bdf7216f76343fbe5ed0f66b25fc31d0e35d9da70f21d00c434a, base_fee_per_gas: Some(0x788432f13), withdrawals_root: Some(0xf377d00f6fd3e4715fce52572c3e2111e536ca3aa504774d51e01a106d41290c), blob_gas_used: Some(0xa0000), excess_blob_gas: Some(0x2320000), parent_beacon_block_root: Some(0xfbf6ac4800d9c8b976e3778eb3c45074c089980091238caeaed47e757b9cdd68) }",
    "RawBlockHeader": "Header { parent_hash: 0x9a96f719971a52d10ffbf37878d4b67ce6772e5e10fbf33de72b4455bbf0ca6a, ommers_hash: 0x1dcc4de8dec75d7aab85b567b6ccd41ad312451b948a7413f0a142fd40d49347, beneficiary: 0x7e2a2fa2a064f693f0a55c5639476d913ff12d05, state_root: 0xa4e6f7c4dc8fcd6395fc3f8328f7998f62516e5785b2be082b2e5e1ddb2691d2, transactions_root: 0xb310457bdf67bdf7216f76343fbe5ed0f66b25fc31d0e35d9da70f21d00c434a, receipts_root: 0x740c648ed49308c2cbffd9cc85e6e0cda71e7b7c25526f4a275a10c6e9e80f32, withdrawals_root: Some(0xf377d00f6fd3e4715fce52572c3e2111e536ca3aa504774d51e01a106d41290c), logs_bloom: 0x9c3defdfdda37fd44fcf3646edbed965f7f37afff7fbae5bdb9fff5fbf7fb79fff9bacaaf7fff3ebeffffdfffff5e1ffdffff7ebebf7fa70fffdbfdb7feffab7e7feff7fa75bef7ffdffebbfdfff39fefce7d6ec3ff3feff9cf6e3ffd9ffffbff7ffffbceb7afdff38efdf37ffefecefefa3f7b7f3eeb74fde9ff7f687cffff675af5cddfdf2ef7bfffdf3e5f9fbdddebf20df7fdfdfffefffeffefdffff7ff9fbaf85ffff3e3fdbaf3fbff6ff6ba7aea7dfdfbf7ffdbf926ffde7e3ff3f67df7aff5b6febbbf3f2fffbf37ed2ff7ff676fdffff3f9fe7fffffbffb677f3ffbffeb3f7eed6eedf5c15fc16dbfffbbd257c73bdf7fa7e6bdefcfeff91aca5fe9f, difficulty: 0x0_U256, number: 21533212, gas_limit: 30000000, gas_used: 14183859, timestamp: 1735777859, mix_hash: 0x5bd682b1ec9ab34be2ef59a807556de4c573667375a156ff27b43712440040ed, nonce: 0, base_fee_per_gas: Some(32350875411), blob_gas_used: Some(655360), excess_blob_gas: Some(36831232), parent_beacon_block_root: Some(0xfbf6ac4800d9c8b976e3778eb3c45074c089980091238caeaed47e757b9cdd68), extra_data: 0xd883010e08846765746888676f312e32322e36856c696e7578 }",
    "RlpEncodedBlockHeader": "f90266a09a96f719971a52d10ffbf37878d4b67ce6772e5e10fbf33de72b4455bbf0ca6aa01dcc4de8dec75d7aab85b567b6ccd41ad312451b948a7413f0a142fd40d49347947e2a2fa2a064f693f0a55c5639476d913ff12d05a0a4e6f7c4dc8fcd6395fc3f8328f7998f62516e5785b2be082b2e5e1ddb2691d2a0b310457bdf67bdf7216f76343fbe5ed0f66b25fc31d0e35d9da70f21d00c434aa0740c648ed49308c2cbffd9cc85e6e0cda71e7b7c25526f4a275a10c6e9e80f32b901009c3defdfdda37fd44fcf3646edbed965f7f37afff7fbae5bdb9fff5fbf7fb79fff9bacaaf7fff3ebeffffdfffff5e1ffdffff7ebebf7fa70fffdbfdb7feffab7e7feff7fa75bef7ffdffebbfdfff39fefce7d6ec3ff3feff9cf6e3ffd9ffffbff7ffffbceb7afdff38efdf37ffefecefefa3f7b7f3eeb74fde9ff7f687cffff675af5cddfdf2ef7bfffdf3e5f9fbdddebf20df7fdfdfffefffeffefdffff7ff9fbaf85ffff3e3fdbaf3fbff6ff6ba7aea7dfdfbf7ffdbf926ffde7e3ff3f67df7aff5b6febbbf3f2fffbf37ed2ff7ff676fdffff3f9fe7fffffbffb677f3ffbffeb3f7eed6eedf5c15fc16dbfffbbd257c73bdf7fa7e6bdefcfeff91aca5fe9f80840148921c8401c9c38083d86db3846775de4399d883010e08846765746888676f312e32322e36856c696e7578a05bd682b1ec9ab34be2ef59a807556de4c573667375a156ff27b43712440040ed880000000000000000850788432f13a0f377d00f6fd3e4715fce52572c3e2111e536ca3aa504774d51e01a106d41290c830a00008402320000a0fbf6ac4800d9c8b976e3778eb3c45074c089980091238caeaed47e757b9cdd68",
    "BlockHash": "0xb666cdae44dcc8ec85cff67735f53a1e5d70bf62ab2367c3eb65c72fef9a7522",
    "BlockNumber": 21533212,
    "BlockTimestamp": 1735777859
}