{
    "RawJsonBlockHeader": "EvmBlockHeaderFromRpc { number: 0x13b9065, hash: 0xe7f8995113bbff56e905b274692fd00d37809d23492f89a0b82b6fc0c80bc5c9, difficulty: 0x0, extra_data: 0x546974616e2028746974616e6275696c6465722e78797a29, gas_limit: 0x1c9c380, gas_used: 0xe52d7b, logs_bloom: 0x79ed5ca20380810c92271010c0629f0d104233010cb54090016dc070a0a0c15161cb21046b020848d38039602ba295174221c0bca910ec60331db740826a7900102ac02b2068dcab280e0a8ca3cca1e040c21825847dc409071d170eec25e29c0a4856004270d23200cc9092f44cecc52b71044910060d0018e062deb0cb601b01261e560b05c3982249824603a604a4012126c5ebe2c29b472c294ddf929420078c32e0db00e216126050c0adc8358c7487544853000482352703692132026135d71803aa981355054c100002bd05c78d4120428c94a5102005d20aa82e221201383160a82c442141ce66c010d1922f84a0d60030a924d1c2058021d080153d, miner: 0x4838b106fce9647bdf1e7877bf73ce8b0bad5f97, mix_hash: 0x8289c2b7b69221aada97d5eee31350512ac3363234e10a51b28387bb4317b215, nonce: 0x0000000000000000, parent_hash: 0x9a9812ce82f9f8a1b2d99e7e66a688f1a2f8aa8d44241b76f40e3e85d7c23289, receipts_root: 0x279c6887e3963ca80686d05da0500c4d6806f0c3944db8b2eaab33a6cb6f8712, sha3_uncles: 0x1dcc4de8dec75d7aab85b567b6ccd41ad312451b948a7413f0a142fd40d49347, size: 0xd8e9, state_root: 0x74db76742143f81e49f69149c3f8a70ee78790874f279977ac15847bcf3c877c, timestamp: 0x66d8fb33, total_difficulty: 0xc70d815d562d3cfa955, transactions_root: 0x87d71381b39a9e20759a809115cf1561987ff87da7851932e31954292dc91b04, base_fee_per_gas: Some(0xadc0da41), withdrawals_root: Some(0x0c72e03e80389caf0e9d1bfd61c53a96625cc289cd422a93c67c00b89c170b68), blob_gas_used: Some(0xc0000), excess_blob_gas: Some(0x40000), parent_beacon_block_root: Some(0x0f5dc19b9ea82f9a5e7009bac07ebc23b02e9b881ee1dc0042eacb5545d2cf1f) }",
    "RawBlockHeader": "Header { parent_hash: 0x9a9812ce82f9f8a1b2d99e7e66a688f1a2f8aa8d44241b76f40e3e85d7c23289, ommers_hash: 0x1dcc4de8dec75d7aab85b567b6ccd41ad312451b948a7413f0a142fd40d49347, beneficiary: 0x4838b106fce9647bdf1e7877bf73ce8b0bad5f97, state_root: 0x74db76742143f81e49f69149c3f8a70ee78790874f279977ac15847bcf3c877c, transactions_root: 0x87d71381b39a9e20759a809115cf1561987ff87da7851932e31954292dc91b04, receipts_root: 0x279c6887e3963ca80686d05da0500c4d6806f0c3944db8b2eaab33a6cb6f8712, withdrawals_root: Some(0x0c72e03e80389caf0e9d1bfd61c53a96625cc289cd422a93c67c00b89c170b68), logs_bloom: 0x79ed5ca20380810c92271010c0629f0d104233010cb54090016dc070a0a0c15161cb21046b020848d38039602ba295174221c0bca910ec60331db740826a7900102ac02b2068dcab280e0a8ca3cca1e040c21825847dc409071d170eec25e29c0a4856004270d23200cc9092f44cecc52b71044910060d0018e062deb0cb601b01261e560b05c3982249824603a604a4012126c5ebe2c29b472c294ddf929420078c32e0db00e216126050c0adc8358c7487544853000482352703692132026135d71803aa981355054c100002bd05c78d4120428c94a5102005d20aa82e221201383160a82c442141ce66c010d1922f84a0d60030a924d1c2058021d080153d, difficulty: 0x0_U256, number: 20680805, gas_limit: 30000000, gas_used: 15019387, timestamp: 1725496115, mix_hash: 0x8289c2b7b69221aada97d5eee31350512ac3363234e10a51b28387bb4317b215, nonce: 0, base_fee_per_gas: Some(2915097153), blob_gas_used: Some(786432), excess_blob_gas: Some(262144), parent_beacon_block_root: Some(0x0f5dc19b9ea82f9a5e7009bac07ebc23b02e9b881ee1dc0042eacb5545d2cf1f), extra_data: 0x546974616e2028746974616e6275696c6465722e78797a29 }",
    "RlpEncodedBlockHeader": "f90263a09a9812ce82f9f8a1b2d99e7e66a688f1a2f8aa8d44241b76f40e3e85d7c23289a01dcc4de8dec75d7aab85b567b6ccd41ad312451b948a7413f0a142fd40d49347944838b106fce9647bdf1e7877bf73ce8b0bad5f97a074db76742143f81e49f69149c3f8a70ee78790874f279977ac15847bcf3c877ca087d71381b39a9e20759a809115cf1561987ff87da7851932e31954292dc91b04a0279c6887e3963ca80686d05da0500c4d6806f0c3944db8b2eaab33a6cb6f8712b9010079ed5ca20380810c92271010c0629f0d104233010cb54090016dc070a0a0c15161cb21046b020848d38039602ba295174221c0bca910ec60331db740826a7900102ac02b2068dcab280e0a8ca3cca1e040c21825847dc409071d170eec25e29c0a4856004270d23200cc9092f44cecc52b71044910060d0018e062deb0cb601b01261e560b05c3982249824603a604a4012126c5ebe2c29b472c294ddf929420078c32e0db00e216126050c0adc8358c7487544853000482352703692132026135d71803aa981355054c100002bd05c78d4120428c94a5102005d20aa82e221201383160a82c442141ce66c010d1922f84a0d60030a924d1c2058021d080153d8084013b90658401c9c38083e52d7b8466d8fb3398546974616e2028746974616e6275696c6465722e78797a29a08289c2b7b69221aada97d5eee31350512ac3363234e10a51b28387bb4317b21588000000000000000084adc0da41a00c72e03e80389caf0e9d1bfd61c53a96625cc289cd422a93c67c00b89c170b68830c000083040000a00f5dc19b9ea82f9a5e7009bac07ebc23b02e9b881ee1dc0042eacb5545d2cf1f",
    "BlockHash": "0xe7f8995113bbff56e905b274692fd00d37809d23492f89a0b82b6fc0c80bc5c9",
    "BlockNumber": 20680805,
    "BlockTimestamp": 1725496115
}