{
    "RawJsonBlockHeader": "EvmBlockHeaderFromRpc { number: 0x13c544b, hash: 0x9dbe8993001e4c7a5a168a7c3d459419235c6b3f04f71513e2ea899c03f76d14, difficulty: 0x0, extra_data: 0xd883010e08846765746888676f312e32322e36856c696e7578, gas_limit: 0x1c9c380, gas_used: 0xef2067, logs_bloom: 0xc7e1898e6a432dabbe51c843993cdad215048ea8c7e25522438faa1542318580776f8413c186aa4f6d522b2bdf95975c3f7d9ea0ea157068e344e57d372e30f39b998e98db272fdb9c3c429864f3bbf425cfdf67ea67bb883556681dec90d355369d44bda27c74c1180460a536b4bfb2357a6d4bec4e4e7416126ab62e5bb1b2aaef2ec92e48585caae011c9bd953c07b141daf769bc961cdb0a825fccda772832a29b5e2d78fb6b3915a0d5bd211c33ab4c589259973c17594a3b94b0077e87bd8a120b0f416fc8e2f0b622a29dfceec7e3c3e927d74bbe480d5372656276f410f72f2137bdac40bbb764a8b95fe5cce6748d37a31e414c108d9b8da66f639e, miner: 0xb4da52336092db22fe8e036866d59c6488604f89, mix_hash: 0x6f68d9e3091accf81525ff0d51212c7303f377b19f5e8b986de376e83fc05094, nonce: 0x0000000000000000, parent_hash: 0x0276d0be19564e10b5e437e520b3272c90da4630dae6f35fd8b1607db1895feb, receipts_root: 0x1e8119ff0d28905b5c6f9bca5b256bf6aff24a645157990e7247d7bf95a8cc7c, sha3_uncles: 0x1dcc4de8dec75d7aab85b567b6ccd41ad312451b948a7413f0a142fd40d49347, size: 0x10fb4, state_root: 0x1da2d6bb0260e83fc1c1bf307098ff010eb6615421c28ab19da0c5b47b9aeb9c, timestamp: 0x66e235cb, total_difficulty: 0xc70d815d562d3cfa955, transactions_root: 0x4a18a4f8f23a57c374d3fafc9808b6b1dc911945ad286f061c86e7c50fecf2fd, base_fee_per_gas: Some(0x660ae8a6), withdrawals_root: Some(0xc38d40bc278ce0e116363f85cdfc77557480c82c8f0b90243842c1e2445b7eff), blob_gas_used: Some(0xc0000), excess_blob_gas: Some(0xc0000), parent_beacon_block_root: Some(0xc5f4f30174c0997cee39b698e2233dfc99e1fc1e069758c858c3cbfb5e8a8dba) }",
    "RawBlockHeader": "Header { parent_hash: 0x0276d0be19564e10b5e437e520b3272c90da4630dae6f35fd8b1607db1895feb, ommers_hash: 0x1dcc4de8dec75d7aab85b567b6ccd41ad312451b948a7413f0a142fd40d49347, beneficiary: 0xb4da52336092db22fe8e036866d59c6488604f89, state_root: 0x1da2d6bb0260e83fc1c1bf307098ff010eb6615421c28ab19da0c5b47b9aeb9c, transactions_root: 0x4a18a4f8f23a57c374d3fafc9808b6b1dc911945ad286f061c86e7c50fecf2fd, receipts_root: 0x1e8119ff0d28905b5c6f9bca5b256bf6aff24a645157990e7247d7bf95a8cc7c, withdrawals_root: Some(0xc38d40bc278ce0e116363f85cdfc77557480c82c8f0b90243842c1e2445b7eff), logs_bloom: 0xc7e1898e6a432dabbe51c843993cdad215048ea8c7e25522438faa1542318580776f8413c186aa4f6d522b2bdf95975c3f7d9ea0ea157068e344e57d372e30f39b998e98db272fdb9c3c429864f3bbf425cfdf67ea67bb883556681dec90d355369d44bda27c74c1180460a536b4bfb2357a6d4bec4e4e7416126ab62e5bb1b2aaef2ec92e48585caae011c9bd953c07b141daf769bc961cdb0a825fccda772832a29b5e2d78fb6b3915a0d5bd211c33ab4c589259973c17594a3b94b0077e87bd8a120b0f416fc8e2f0b622a29dfceec7e3c3e927d74bbe480d5372656276f410f72f2137bdac40bbb764a8b95fe5cce6748d37a31e414c108d9b8da66f639e, difficulty: 0x0_U256, number: 20730955, gas_limit: 30000000, gas_used: 15671399, timestamp: 1726100939, mix_hash: 0x6f68d9e3091accf81525ff0d51212c7303f377b19f5e8b986de376e83fc05094, nonce: 0, base_fee_per_gas: Some(1711990950), blob_gas_used: Some(786432), excess_blob_gas: Some(786432), parent_beacon_block_root: Some(0xc5f4f30174c0997cee39b698e2233dfc99e1fc1e069758c858c3cbfb5e8a8dba), extra_data: 0xd883010e08846765746888676f312e32322e36856c696e7578 }",
    "RlpEncodedBlockHeader": "f90264a00276d0be19564e10b5e437e520b3272c90da4630dae6f35fd8b1607db1895feba01dcc4de8dec75d7aab85b567b6ccd41ad312451b948a7413f0a142fd40d4934794b4da52336092db22fe8e036866d59c6488604f89a01da2d6bb0260e83fc1c1bf307098ff010eb6615421c28ab19da0c5b47b9aeb9ca04a18a4f8f23a57c374d3fafc9808b6b1dc911945ad286f061c86e7c50fecf2fda01e8119ff0d28905b5c6f9bca5b256bf6aff24a645157990e7247d7bf95a8cc7cb90100c7e1898e6a432dabbe51c843993cdad215048ea8c7e25522438faa1542318580776f8413c186aa4f6d522b2bdf95975c3f7d9ea0ea157068e344e57d372e30f39b998e98db272fdb9c3c429864f3bbf425cfdf67ea67bb883556681dec90d355369d44bda27c74c1180460a536b4bfb2357a6d4bec4e4e7416126ab62e5bb1b2aaef2ec92e48585caae011c9bd953c07b141daf769bc961cdb0a825fccda772832a29b5e2d78fb6b3915a0d5bd211c33ab4c589259973c17594a3b94b0077e87bd8a120b0f416fc8e2f0b622a29dfceec7e3c3e927d74bbe480d5372656276f410f72f2137bdac40bbb764a8b95fe5cce6748d37a31e414c108d9b8da66f639e8084013c544b8401c9c38083ef20678466e235cb99d883010e08846765746888676f312e32322e36856c696e7578a06f68d9e3091accf81525ff0d51212c7303f377b19f5e8b986de376e83fc0509488000000000000000084660ae8a6a0c38d40bc278ce0e116363f85cdfc77557480c82c8f0b90243842c1e2445b7eff830c0000830c0000a0c5f4f30174c0997cee39b698e2233dfc99e1fc1e069758c858c3cbfb5e8a8dba",
    "BlockHash": "0x9dbe8993001e4c7a5a168a7c3d459419235c6b3f04f71513e2ea899c03f76d14",
    "BlockNumber": 20730955,
    "BlockTimestamp": 1726100939
}