{
    "RawJsonBlockHeader": "EvmBlockHeaderFromRpc { number: 0x131a186, hash: 0x17bfeab19820a68cea81652370bf69ca0e016cd1fce0998e66cc5046d27465c4, difficulty: 0x0, extra_data: 0x496c6c756d696e61746520446d6f63726174697a6520447374726962757465, gas_limit: 0x1c9c380, gas_used: 0x11cb729, logs_bloom: 0x963b231af98b79ac4a088411a03512ccb111094255cc01b2eaa16c5fef6b9fb0d76114cf0237203926a91ebcac3b3dd0d27dd2798c86e431ac54c664a02f6d803a4dc75cfe049f6b9804e1bff2dcd0bee14930f587cc7b0ded14cf3b82f4918e017ae5211374847a84597392873029464ba02f3f969ace498a31d81fcaac067b4eee8c45ec396394a4c406fa032bed5f40f5f911c114a158bb39a95a5cf37d3ec7a77dfcacd2765a08757bf69befafff043f4c8186314643cb618ca718ed0475db8f3a9be376425ee9cb440a5b5f92e14f0d04d657a1a39f688645066360e86ff4dfb8f2a61d5657eb9c5bcfed5dbff7962f9628da4c48fb594703107901564f, miner: 0xdf99a0839818b3f120ebac9b73f82b617dc6a555, mix_hash: 0x9648ab635c823daa980bc6e263ea2f82873542ae51b7574e571e46c3b57e7dc4, nonce: 0x0000000000000000, parent_hash: 0xadf66f129cb2c7813b1580cbf05862fd67302bc228a7353750422585251853ac, receipts_root: 0xfbdffcd1b15048205f3d39cb1a014089d97b8d42739cdc030047076851e8bf25, sha3_uncles: 0x1dcc4de8dec75d7aab85b567b6ccd41ad312451b948a7413f0a142fd40d49347, size: 0x10457, state_root: 0x745666da4e5f09042d06da47899eb6851bd1c8508198a0c4850c5cea3635d81f, timestamp: 0x66611fdb, total_difficulty: 0xc70d815d562d3cfa955, transactions_root: 0x858679b99d3224fe4b878648ace945bbe5d34679c5dd70e2eb13e6fb82dbd627, base_fee_per_gas: Some(0x2687c87e5), withdrawals_root: Some(0x9b7273696c258092609d250763b6fb1b911a35aa7c805fe5c210a47859751edf), blob_gas_used: Some(0x0), excess_blob_gas: Some(0xa0000), parent_beacon_block_root: Some(0x22b5ecbf7ed9d81fb819b80e4825a1c6e6f3f0fbc4cd1bd63fa8a2e788591f07) }",
    "RawBlockHeader": "Header { parent_hash: 0xadf66f129cb2c7813b1580cbf05862fd67302bc228a7353750422585251853ac, ommers_hash: 0x1dcc4de8dec75d7aab85b567b6ccd41ad312451b948a7413f0a142fd40d49347, beneficiary: 0xdf99a0839818b3f120ebac9b73f82b617dc6a555, state_root: 0x745666da4e5f09042d06da47899eb6851bd1c8508198a0c4850c5cea3635d81f, transactions_root: 0x858679b99d3224fe4b878648ace945bbe5d34679c5dd70e2eb13e6fb82dbd627, receipts_root: 0xfbdffcd1b15048205f3d39cb1a014089d97b8d42739cdc030047076851e8bf25, withdrawals_root: Some(0x9b7273696c258092609d250763b6fb1b911a35aa7c805fe5c210a47859751edf), logs_bloom: 0x963b231af98b79ac4a088411a03512ccb111094255cc01b2eaa16c5fef6b9fb0d76114cf0237203926a91ebcac3b3dd0d27dd2798c86e431ac54c664a02f6d803a4dc75cfe049f6b9804e1bff2dcd0bee14930f587cc7b0ded14cf3b82f4918e017ae5211374847a84597392873029464ba02f3f969ace498a31d81fcaac067b4eee8c45ec396394a4c406fa032bed5f40f5f911c114a158bb39a95a5cf37d3ec7a77dfcacd2765a08757bf69befafff043f4c8186314643cb618ca718ed0475db8f3a9be376425ee9cb440a5b5f92e14f0d04d657a1a39f688645066360e86ff4dfb8f2a61d5657eb9c5bcfed5dbff7962f9628da4c48fb594703107901564f, difficulty: 0x0_U256, number: 20029830, gas_limit: 30000000, gas_used: 18659113, timestamp: 1717641179, mix_hash: 0x9648ab635c823daa980bc6e263ea2f82873542ae51b7574e571e46c3b57e7dc4, nonce: 0, base_fee_per_gas: Some(10342926309), blob_gas_used: Some(0), excess_blob_gas: Some(655360), parent_beacon_block_root: Some(0x22b5ecbf7ed9d81fb819b80e4825a1c6e6f3f0fbc4cd1bd63fa8a2e788591f07), extra_data: 0x496c6c756d696e61746520446d6f63726174697a6520447374726962757465 }",
    "RlpEncodedBlockHeader": "f90269a0adf66f129cb2c7813b1580cbf05862fd67302bc228a7353750422585251853aca01dcc4de8dec75d7aab85b567b6ccd41ad312451b948a7413f0a142fd40d4934794df99a0839818b3f120ebac9b73f82b617dc6a555a0745666da4e5f09042d06da47899eb6851bd1c8508198a0c4850c5cea3635d81fa0858679b99d3224fe4b878648ace945bbe5d34679c5dd70e2eb13e6fb82dbd627a0fbdffcd1b15048205f3d39cb1a014089d97b8d42739cdc030047076851e8bf25b90100963b231af98b79ac4a088411a03512ccb111094255cc01b2eaa16c5fef6b9fb0d76114cf0237203926a91ebcac3b3dd0d27dd2798c86e431ac54c664a02f6d803a4dc75cfe049f6b9804e1bff2dcd0bee14930f587cc7b0ded14cf3b82f4918e017ae5211374847a84597392873029464ba02f3f969ace498a31d81fcaac067b4eee8c45ec396394a4c406fa032bed5f40f5f911c114a158bb39a95a5cf37d3ec7a77dfcacd2765a08757bf69befafff043f4c8186314643cb618ca718ed0475db8f3a9be376425ee9cb440a5b5f92e14f0d04d657a1a39f688645066360e86ff4dfb8f2a61d5657eb9c5bcfed5dbff7962f9628da4c48fb594703107901564f80840131a1868401c9c38084011cb7298466611fdb9f496c6c756d696e61746520446d6f63726174697a6520447374726962757465a09648ab635c823daa980bc6e263ea2f82873542ae51b7574e571e46c3b57e7dc48800000000000000008502687c87e5a09b7273696c258092609d250763b6fb1b911a35aa7c805fe5c210a47859751edf80830a0000a022b5ecbf7ed9d81fb819b80e4825a1c6e6f3f0fbc4cd1bd63fa8a2e788591f07",
    "BlockHash": "0x17bfeab19820a68cea81652370bf69ca0e016cd1fce0998e66cc5046d27465c4",
    "BlockNumber": 20029830,
    "BlockTimestamp": 1717641179
}