{
    "RawJsonBlockHeader": "EvmBlockHeaderFromRpc { number: 0x13f642e, hash: 0x35dcb1ae58ab30e5f3b8713c70f250b2defe70945ea05f159d5ee45a8c80d861, difficulty: 0x0, extra_data: 0x546974616e2028746974616e6275696c6465722e78797a29, gas_limit: 0x1c9c380, gas_used: 0x1c97bec, logs_bloom: 0xd5fdcb377d5f1bddbd3d8279b7b9fa5bb91be61addff4ae59fb9fcc77f6255f9a7d9f5b4f2fbebdddbdf1f836ff2f79befdfbef7cb4bfabb5fbdfccfd03b2bce7df4f65b4b77a87fefcfffdd9becbded4e9f87773cff7e0d355a7cedba76fede16356b7c9b6cefffbfef7d10cc3d7d77777f8bed73df3e29fbfbfbf6f45cb71f7b7bef7d75a2747dde7ffaf3dffacfaf674bbcb1efbc9b6f6fa32ef66df73ffa27f5bbaface7ad5fbbb677deafe7bd4f6db7fbb6bde6f0deacfbef6754ecceed63f871bffe963e7ff7e84d7343fbffc77b2f2b06e76faef93fb5f64fe7fcbfc224f9ad69b7b7adca7fe79b97f767d73ddf7d53255ed44fdefd7f8d6a7f9a36ab, miner: 0x4838b106fce9647bdf1e7877bf73ce8b0bad5f97, mix_hash: 0x04bbb6954a761b61c971e55469791731fb1d617cab4761a79d42332c3bcfb2e9, nonce: 0x0000000000000000, parent_hash: 0xbdad4e9f780aa9af56406fce9ec4b5c14bb814fe1a433a76cecd70a8118146b5, receipts_root: 0xde426981d8d2e00410f90feaebe35ec77be9d746bfd766165f5b232a159ea336, sha3_uncles: 0x1dcc4de8dec75d7aab85b567b6ccd41ad312451b948a7413f0a142fd40d49347, size: 0x21d7a, state_root: 0x1d46e9deff6a6be8a8ee11aab987c075e9cf85572ca7c59d8353e885f223062c, timestamp: 0x67071ffb, total_difficulty: 0xc70d815d562d3cfa955, transactions_root: 0x280d1c142ca84f95f9c2de31c43e6b52dc914af4245a9632bc5efa9dd5d5eeda, base_fee_per_gas: Some(0x1a6b09cae), withdrawals_root: Some(0xe5876e8bdc86b87224c8e354f9ee8dc732428deb0f28f50e71ecfaeca0be08ca), blob_gas_used: Some(0x0), excess_blob_gas: Some(0x5c0000), parent_beacon_block_root: Some(0x08b0ebae8c9caa11dff8c579a99db04fb36eb9dabf406fec742ceff0e8c54dcf) }",
    "RawBlockHeader": "Header { parent_hash: 0xbdad4e9f780aa9af56406fce9ec4b5c14bb814fe1a433a76cecd70a8118146b5, ommers_hash: 0x1dcc4de8dec75d7aab85b567b6ccd41ad312451b948a7413f0a142fd40d49347, beneficiary: 0x4838b106fce9647bdf1e7877bf73ce8b0bad5f97, state_root: 0x1d46e9deff6a6be8a8ee11aab987c075e9cf85572ca7c59d8353e885f223062c, transactions_root: 0x280d1c142ca84f95f9c2de31c43e6b52dc914af4245a9632bc5efa9dd5d5eeda, receipts_root: 0xde426981d8d2e00410f90feaebe35ec77be9d746bfd766165f5b232a159ea336, withdrawals_root: Some(0xe5876e8bdc86b87224c8e354f9ee8dc732428deb0f28f50e71ecfaeca0be08ca), logs_bloom: 0xd5fdcb377d5f1bddbd3d8279b7b9fa5bb91be61addff4ae59fb9fcc77f6255f9a7d9f5b4f2fbebdddbdf1f836ff2f79befdfbef7cb4bfabb5fbdfccfd03b2bce7df4f65b4b77a87fefcfffdd9becbded4e9f87773cff7e0d355a7cedba76fede16356b7c9b6cefffbfef7d10cc3d7d77777f8bed73df3e29fbfbfbf6f45cb71f7b7bef7d75a2747dde7ffaf3dffacfaf674bbcb1efbc9b6f6fa32ef66df73ffa27f5bbaface7ad5fbbb677deafe7bd4f6db7fbb6bde6f0deacfbef6754ecceed63f871bffe963e7ff7e84d7343fbffc77b2f2b06e76faef93fb5f64fe7fcbfc224f9ad69b7b7adca7fe79b97f767d73ddf7d53255ed44fdefd7f8d6a7f9a36ab, difficulty: 0x0_U256, number: 20931630, gas_limit: 30000000, gas_used: 29981676, timestamp: 1728520187, mix_hash: 0x04bbb6954a761b61c971e55469791731fb1d617cab4761a79d42332c3bcfb2e9, nonce: 0, base_fee_per_gas: Some(7091559598), blob_gas_used: Some(0), excess_blob_gas: Some(6029312), parent_beacon_block_root: Some(0x08b0ebae8c9caa11dff8c579a99db04fb36eb9dabf406fec742ceff0e8c54dcf), extra_data: 0x546974616e2028746974616e6275696c6465722e78797a29 }",
    "RlpEncodedBlockHeader": "f90262a0bdad4e9f780aa9af56406fce9ec4b5c14bb814fe1a433a76cecd70a8118146b5a01dcc4de8dec75d7aab85b567b6ccd41ad312451b948a7413f0a142fd40d49347944838b106fce9647bdf1e7877bf73ce8b0bad5f97a01d46e9deff6a6be8a8ee11aab987c075e9cf85572ca7c59d8353e885f223062ca0280d1c142ca84f95f9c2de31c43e6b52dc914af4245a9632bc5efa9dd5d5eedaa0de426981d8d2e00410f90feaebe35ec77be9d746bfd766165f5b232a159ea336b90100d5fdcb377d5f1bddbd3d8279b7b9fa5bb91be61addff4ae59fb9fcc77f6255f9a7d9f5b4f2fbebdddbdf1f836ff2f79befdfbef7cb4bfabb5fbdfccfd03b2bce7df4f65b4b77a87fefcfffdd9becbded4e9f87773cff7e0d355a7cedba76fede16356b7c9b6cefffbfef7d10cc3d7d77777f8bed73df3e29fbfbfbf6f45cb71f7b7bef7d75a2747dde7ffaf3dffacfaf674bbcb1efbc9b6f6fa32ef66df73ffa27f5bbaface7ad5fbbb677deafe7bd4f6db7fbb6bde6f0deacfbef6754ecceed63f871bffe963e7ff7e84d7343fbffc77b2f2b06e76faef93fb5f64fe7fcbfc224f9ad69b7b7adca7fe79b97f767d73ddf7d53255ed44fdefd7f8d6a7f9a36ab8084013f642e8401c9c3808401c97bec8467071ffb98546974616e2028746974616e6275696c6465722e78797a29a004bbb6954a761b61c971e55469791731fb1d617cab4761a79d42332c3bcfb2e98800000000000000008501a6b09caea0e5876e8bdc86b87224c8e354f9ee8dc732428deb0f28f50e71ecfaeca0be08ca80835c0000a008b0ebae8c9caa11dff8c579a99db04fb36eb9dabf406fec742ceff0e8c54dcf",
    "BlockHash": "0x35dcb1ae58ab30e5f3b8713c70f250b2defe70945ea05f159d5ee45a8c80d861",
    "BlockNumber": 20931630,
    "BlockTimestamp": 1728520187
}