{
    "RawJsonBlockHeader": "EvmBlockHeaderFromRpc { number: 0x13acc8c, hash: 0x9f581462ce8e8a17b00f1e43ea7a93cd111211833b3ee64e26dd1df6d99b4764, difficulty: 0x0, extra_data: 0x6265617665726275696c642e6f7267, gas_limit: 0x1c9c380, gas_used: 0xe32925, logs_bloom: 0x05e905e9ab051a06e20492d8b795db94339b2e4dc5d2e2f429ab08c270f3124e02422707f1bc7b4c6b16b743091b47ff2273d809bf713af2b7cbbd06f57eb83961d61e2c511fe3a8e91c474ad7e0796d0f87ec3fec5c186c06567c5dbc6b19a4f2265d065bee8c37a2c5dd92c27a8ccd16baae7dc1542fe212149794100f074d21723b579f44e3713ef9938a33f3ce2ce54de63d67f93dfbbd033fd655f54f4b8fee1bee15526e38ccb841d60da2dc49b45438930af5315fd8f7044e8298c174fb51f8d306094d5515f4780a33e8d8e731db9a0e56bb4c34b76449064e25ec1376f9ffea3d06d550981f59d317e3639ace20b61d011a19c61fd2f90e553e3de5, miner: 0x95222290dd7278aa3ddd389cc1e1d165cc4bafe5, mix_hash: 0x0243f71231c13c1836c4a5cb9222ddd79b94f646bdb3106e4e4ca147d8b77c9a, nonce: 0x0000000000000000, parent_hash: 0x3aa70ef77d49f5df5c4a3576b9a68cb108873542a2b1508c79ac1a689a8912c8, receipts_root: 0xa56c46cd4c90a64fd69947889fbeb221e7dce7e1922cdddf7c0373cf19863127, sha3_uncles: 0x1dcc4de8dec75d7aab85b567b6ccd41ad312451b948a7413f0a142fd40d49347, size: 0x314a7, state_root: 0xde20f3879aa54a85909db8424980d31ce7f23b065c8d182986dee4501996a8e3, timestamp: 0x66cfc0b3, total_difficulty: 0xc70d815d562d3cfa955, transactions_root: 0x7e6908614e2553ecb51b9a299ddeca0ea3f2e1e1ca498cc26d5a583a58f8a18a, base_fee_per_gas: Some(0x2f5da509), withdrawals_root: Some(0x1508ef96c7a616e3177ab70093f77ef1be9360d8a9db3b205982a15e270636c3), blob_gas_used: Some(0xc0000), excess_blob_gas: Some(0x0), parent_beacon_block_root: Some(0x806626bd711257bbde4ea604d259916b48d9bbaa7b32e049752aa383dc129128) }",
    "RawBlockHeader": "Header { parent_hash: 0x3aa70ef77d49f5df5c4a3576b9a68cb108873542a2b1508c79ac1a689a8912c8, ommers_hash: 0x1dcc4de8dec75d7aab85b567b6ccd41ad312451b948a7413f0a142fd40d49347, beneficiary: 0x95222290dd7278aa3ddd389cc1e1d165cc4bafe5, state_root: 0xde20f3879aa54a85909db8424980d31ce7f23b065c8d182986dee4501996a8e3, transactions_root: 0x7e6908614e2553ecb51b9a299ddeca0ea3f2e1e1ca498cc26d5a583a58f8a18a, receipts_root: 0xa56c46cd4c90a64fd69947889fbeb221e7dce7e1922cdddf7c0373cf19863127, withdrawals_root: Some(0x1508ef96c7a616e3177ab70093f77ef1be9360d8a9db3b205982a15e270636c3), logs_bloom: 0x05e905e9ab051a06e20492d8b795db94339b2e4dc5d2e2f429ab08c270f3124e02422707f1bc7b4c6b16b743091b47ff2273d809bf713af2b7cbbd06f57eb83961d61e2c511fe3a8e91c474ad7e0796d0f87ec3fec5c186c06567c5dbc6b19a4f2265d065bee8c37a2c5dd92c27a8ccd16baae7dc1542fe212149794100f074d21723b579f44e3713ef9938a33f3ce2ce54de63d67f93dfbbd033fd655f54f4b8fee1bee15526e38ccb841d60da2dc49b45438930af5315fd8f7044e8298c174fb51f8d306094d5515f4780a33e8d8e731db9a0e56bb4c34b76449064e25ec1376f9ffea3d06d550981f59d317e3639ace20b61d011a19c61fd2f90e553e3de5, difficulty: 0x0_U256, number: 20630668, gas_limit: 30000000, gas_used: 14887205, timestamp: 1724891315, mix_hash: 0x0243f71231c13c1836c4a5cb9222ddd79b94f646bdb3106e4e4ca147d8b77c9a, nonce: 0, base_fee_per_gas: Some(794666249), blob_gas_used: Some(786432), excess_blob_gas: Some(0), parent_beacon_block_root: Some(0x806626bd711257bbde4ea604d259916b48d9bbaa7b32e049752aa383dc129128), extra_data: 0x6265617665726275696c642e6f7267 }",
    "RlpEncodedBlockHeader": "f90257a03aa70ef77d49f5df5c4a3576b9a68cb108873542a2b1508c79ac1a689a8912c8a01dcc4de8dec75d7aab85b567b6ccd41ad312451b948a7413f0a142fd40d493479495222290dd7278aa3ddd389cc1e1d165cc4bafe5a0de20f3879aa54a85909db8424980d31ce7f23b065c8d182986dee4501996a8e3a07e6908614e2553ecb51b9a299ddeca0ea3f2e1e1ca498cc26d5a583a58f8a18aa0a56c46cd4c90a64fd69947889fbeb221e7dce7e1922cdddf7c0373cf19863127b9010005e905e9ab051a06e20492d8b795db94339b2e4dc5d2e2f429ab08c270f3124e02422707f1bc7b4c6b16b743091b47ff2273d809bf713af2b7cbbd06f57eb83961d61e2c511fe3a8e91c474ad7e0796d0f87ec3fec5c186c06567c5dbc6b19a4f2265d065bee8c37a2c5dd92c27a8ccd16baae7dc1542fe212149794100f074d21723b579f44e3713ef9938a33f3ce2ce54de63d67f93dfbbd033fd655f54f4b8fee1bee15526e38ccb841d60da2dc49b45438930af5315fd8f7044e8298c174fb51f8d306094d5515f4780a33e8d8e731db9a0e56bb4c34b76449064e25ec1376f9ffea3d06d550981f59d317e3639ace20b61d011a19c61fd2f90e553e3de58084013acc8c8401c9c38083e329258466cfc0b38f6265617665726275696c642e6f7267a00243f71231c13c1836c4a5cb9222ddd79b94f646bdb3106e4e4ca147d8b77c9a880000000000000000842f5da509a01508ef96c7a616e3177ab70093f77ef1be9360d8a9db3b205982a15e270636c3830c000080a0806626bd711257bbde4ea604d259916b48d9bbaa7b32e049752aa383dc129128",
    "BlockHash": "0x9f581462ce8e8a17b00f1e43ea7a93cd111211833b3ee64e26dd1df6d99b4764",
    "BlockNumber": 20630668,
    "BlockTimestamp": 1724891315
}