{
    "RawJsonBlockHeader": "EvmBlockHeaderFromRpc { number: 0x136f942, hash: 0x096e31ee565fa2856bb38cb9622c969ba9823e5dfa28b223ae90986f8ce27190, difficulty: 0x0, extra_data: 0x546974616e2028746974616e6275696c6465722e78797a29, gas_limit: 0x1c9c380, gas_used: 0x11347f9, logs_bloom: 0x38e767c7b564f3496b1c4676be7673b4f9623398ad5a6062370bdb5df711b685d407b5f7f2dd373cde91f163b5f501fc36fbed398d2ab5ef9aa77016553eec99cbfe56ba7b2c9f2bec14e53ed7c620aebc4a86f504fc1e89b9a4486ab8b65c2ddfb650541fb7d96c8dbbd5ba60a18fce7c6a3ff309a6ee3c92c3a09ca81b5a852f6b29edfbaad7045ceabd61a23e4d7d6565fb631fe441f939856a5c7d907fa0cfe7b360a8fa75e08ead58d4ccbbdceca465ce91a4b0b34f9fcf6c8f28266af7e5ba58071b3b2ff9f3addd1b3c3fdd84edfbf61a45eb93dda7957a3be674e05faef1efe9d294e4b77ec70383b55d597b9ab9fac3cffa0ac233a1fb7eb9247dcf, miner: 0x4838b106fce9647bdf1e7877bf73ce8b0bad5f97, mix_hash: 0x0b6e0893e5aeeedc2e4ca8aa1dd3b12e1e08d59bf219f69049bc6beb290dcdf7, nonce: 0x0000000000000000, parent_hash: 0x7e9e9409f666114e4359cf6d1fb5b3deed242d017bc4124dbd0927c163363269, receipts_root: 0xb26f7fb96707ace6a631e6c7c423895a3ff9cb3b215e89d2af8d5a41da575e74, sha3_uncles: 0x1dcc4de8dec75d7aab85b567b6ccd41ad312451b948a7413f0a142fd40d49347, size: 0x16151, state_root: 0xf58c2c3d008477e642244fdc386fbecaad90e191e96344c394f29f30d284838d, timestamp: 0x66a19baf, total_difficulty: 0xc70d815d562d3cfa955, transactions_root: 0xed237f2e6a8129700d4d9ece4e79559285f006b9eeacb84d6f3248d35f8f6573, base_fee_per_gas: Some(0x77e5228c), withdrawals_root: Some(0xaaec02a90ffce0d61235eb1181840b1cc44c1ec8a97315fd35403b6ddcfa9a28), blob_gas_used: Some(0x0), excess_blob_gas: Some(0x20000), parent_beacon_block_root: Some(0xac1d01605e47735500fdb42c9694d3cb809800c910f2ce4bc9d50461977cc7c4) }",
    "RawBlockHeader": "Header { parent_hash: 0x7e9e9409f666114e4359cf6d1fb5b3deed242d017bc4124dbd0927c163363269, ommers_hash: 0x1dcc4de8dec75d7aab85b567b6ccd41ad312451b948a7413f0a142fd40d49347, beneficiary: 0x4838b106fce9647bdf1e7877bf73ce8b0bad5f97, state_root: 0xf58c2c3d008477e642244fdc386fbecaad90e191e96344c394f29f30d284838d, transactions_root: 0xed237f2e6a8129700d4d9ece4e79559285f006b9eeacb84d6f3248d35f8f6573, receipts_root: 0xb26f7fb96707ace6a631e6c7c423895a3ff9cb3b215e89d2af8d5a41da575e74, withdrawals_root: Some(0xaaec02a90ffce0d61235eb1181840b1cc44c1ec8a97315fd35403b6ddcfa9a28), logs_bloom: 0x38e767c7b564f3496b1c4676be7673b4f9623398ad5a6062370bdb5df711b685d407b5f7f2dd373cde91f163b5f501fc36fbed398d2ab5ef9aa77016553eec99cbfe56ba7b2c9f2bec14e53ed7c620aebc4a86f504fc1e89b9a4486ab8b65c2ddfb650541fb7d96c8dbbd5ba60a18fce7c6a3ff309a6ee3c92c3a09ca81b5a852f6b29edfbaad7045ceabd61a23e4d7d6565fb631fe441f939856a5c7d907fa0cfe7b360a8fa75e08ead58d4ccbbdceca465ce91a4b0b34f9fcf6c8f28266af7e5ba58071b3b2ff9f3addd1b3c3fdd84edfbf61a45eb93dda7957a3be674e05faef1efe9d294e4b77ec70383b55d597b9ab9fac3cffa0ac233a1fb7eb9247dcf, difficulty: 0x0_U256, number: 20379970, gas_limit: 30000000, gas_used: 18040825, timestamp: 1721867183, mix_hash: 0x0b6e0893e5aeeedc2e4ca8aa1dd3b12e1e08d59bf219f69049bc6beb290dcdf7, nonce: 0, base_fee_per_gas: Some(2011505292), blob_gas_used: Some(0), excess_blob_gas: Some(131072), parent_beacon_block_root: Some(0xac1d01605e47735500fdb42c9694d3cb809800c910f2ce4bc9d50461977cc7c4), extra_data: 0x546974616e2028746974616e6275696c6465722e78797a29 }",
    "RlpEncodedBlockHeader": "f90261a07e9e9409f666114e4359cf6d1fb5b3deed242d017bc4124dbd0927c163363269a01dcc4de8dec75d7aab85b567b6ccd41ad312451b948a7413f0a142fd40d49347944838b106fce9647bdf1e7877bf73ce8b0bad5f97a0f58c2c3d008477e642244fdc386fbecaad90e191e96344c394f29f30d284838da0ed237f2e6a8129700d4d9ece4e79559285f006b9eeacb84d6f3248d35f8f6573a0b26f7fb96707ace6a631e6c7c423895a3ff9cb3b215e89d2af8d5a41da575e74b9010038e767c7b564f3496b1c4676be7673b4f9623398ad5a6062370bdb5df711b685d407b5f7f2dd373cde91f163b5f501fc36fbed398d2ab5ef9aa77016553eec99cbfe56ba7b2c9f2bec14e53ed7c620aebc4a86f504fc1e89b9a4486ab8b65c2ddfb650541fb7d96c8dbbd5ba60a18fce7c6a3ff309a6ee3c92c3a09ca81b5a852f6b29edfbaad7045ceabd61a23e4d7d6565fb631fe441f939856a5c7d907fa0cfe7b360a8fa75e08ead58d4ccbbdceca465ce91a4b0b34f9fcf6c8f28266af7e5ba58071b3b2ff9f3addd1b3c3fdd84edfbf61a45eb93dda7957a3be674e05faef1efe9d294e4b77ec70383b55d597b9ab9fac3cffa0ac233a1fb7eb9247dcf80840136f9428401c9c38084011347f98466a19baf98546974616e2028746974616e6275696c6465722e78797a29a00b6e0893e5aeeedc2e4ca8aa1dd3b12e1e08d59bf219f69049bc6beb290dcdf78800000000000000008477e5228ca0aaec02a90ffce0d61235eb1181840b1cc44c1ec8a97315fd35403b6ddcfa9a288083020000a0ac1d01605e47735500fdb42c9694d3cb809800c910f2ce4bc9d50461977cc7c4",
    "BlockHash": "0x096e31ee565fa2856bb38cb9622c969ba9823e5dfa28b223ae90986f8ce27190",
    "BlockNumber": 20379970,
    "BlockTimestamp": 1721867183
}