{
    "RawJsonBlockHeader": "EvmBlockHeaderFromRpc { number: 0x1470ad3, hash: 0xb94de23efa89d8b162c06f5c41b540b2aaef2ad1cef6bec196df3c3c09f3a024, difficulty: 0x0, extra_data: 0x546974616e2028746974616e6275696c6465722e78797a29, gas_limit: 0x1c9c380, gas_used: 0x1c7c349, logs_bloom: 0x20238040e54a8890b1089060800810081190a36004820412c00103c52419808825300f0d00002007aa583a0408021d004607ad188851683404942444042c9b800520820824421c2c8e02f2dee82000680085203084e44e08040c1504c524080226223440926260208c2a0d02b0002c072220084a2110253b06000096404a50890802025443000e8008d0a2298a22c00220490071050088185e29045450b4018c2200a80280056304063011c82e1044880492cf054c40421024e4f4a4341a06ad2a81502308002e3000984000a5701801110a01c30501405250a2500764822c0a40b4345a00680800002012c0825010204d0c90c92d80a6c140e9a052d6c85c36, miner: 0x4838b106fce9647bdf1e7877bf73ce8b0bad5f97, mix_hash: 0x8266c6e640fc9e7127093dfea67c08c4064e48de443514ee780654956e690ccc, nonce: 0x0000000000000000, parent_hash: 0x5901912f1aeb9c5e6c747ac620f309c34f7de0d39fe29477ec9f893eab56e2ef, receipts_root: 0x9cbbbb658b8c186d4cec96361e717e8332d5e2f011f54607a2146d5c715a3d1b, sha3_uncles: 0x1dcc4de8dec75d7aab85b567b6ccd41ad312451b948a7413f0a142fd40d49347, size: 0x113a5, state_root: 0x2bb6896ac65a3e5d2dbc994944298a1400d8872e700bc5339e1b47552cf9d870, timestamp: 0x67636af3, total_difficulty: 0xc70d815d562d3cfa955, transactions_root: 0xf77d19faa472e92c0ccb24f14a13a93673121340c2d02e94e426c132a9e81f50, base_fee_per_gas: Some(0x24f19cb77), withdrawals_root: Some(0x72f8b7e81807e99d51a0b21d4f6e442d69522d47ec57afa70b9026455f36b142), blob_gas_used: Some(0x0), excess_blob_gas: Some(0x4420000), parent_beacon_block_root: Some(0xca8b18f9e0cacc275c5e1901625a8a5d310d324d70694695bee3b7bb09b5d519) }",
    "RawBlockHeader": "Header { parent_hash: 0x5901912f1aeb9c5e6c747ac620f309c34f7de0d39fe29477ec9f893eab56e2ef, ommers_hash: 0x1dcc4de8dec75d7aab85b567b6ccd41ad312451b948a7413f0a142fd40d49347, beneficiary: 0x4838b106fce9647bdf1e7877bf73ce8b0bad5f97, state_root: 0x2bb6896ac65a3e5d2dbc994944298a1400d8872e700bc5339e1b47552cf9d870, transactions_root: 0xf77d19faa472e92c0ccb24f14a13a93673121340c2d02e94e426c132a9e81f50, receipts_root: 0x9cbbbb658b8c186d4cec96361e717e8332d5e2f011f54607a2146d5c715a3d1b, withdrawals_root: Some(0x72f8b7e81807e99d51a0b21d4f6e442d69522d47ec57afa70b9026455f36b142), logs_bloom: 0x20238040e54a8890b1089060800810081190a36004820412c00103c52419808825300f0d00002007aa583a0408021d004607ad188851683404942444042c9b800520820824421c2c8e02f2dee82000680085203084e44e08040c1504c524080226223440926260208c2a0d02b0002c072220084a2110253b06000096404a50890802025443000e8008d0a2298a22c00220490071050088185e29045450b4018c2200a80280056304063011c82e1044880492cf054c40421024e4f4a4341a06ad2a81502308002e3000984000a5701801110a01c30501405250a2500764822c0a40b4345a00680800002012c0825010204d0c90c92d80a6c140e9a052d6c85c36, difficulty: 0x0_U256, number: 21433043, gas_limit: 30000000, gas_used: 29868873, timestamp: 1734568691, mix_hash: 0x8266c6e640fc9e7127093dfea67c08c4064e48de443514ee780654956e690ccc, nonce: 0, base_fee_per_gas: Some(9917025143), blob_gas_used: Some(0), excess_blob_gas: Some(71434240), parent_beacon_block_root: Some(0xca8b18f9e0cacc275c5e1901625a8a5d310d324d70694695bee3b7bb09b5d519), extra_data: 0x546974616e2028746974616e6275696c6465722e78797a29 }",
    "RlpEncodedBlockHeader": "f90263a05901912f1aeb9c5e6c747ac620f309c34f7de0d39fe29477ec9f893eab56e2efa01dcc4de8dec75d7aab85b567b6ccd41ad312451b948a7413f0a142fd40d49347944838b106fce9647bdf1e7877bf73ce8b0bad5f97a02bb6896ac65a3e5d2dbc994944298a1400d8872e700bc5339e1b47552cf9d870a0f77d19faa472e92c0ccb24f14a13a93673121340c2d02e94e426c132a9e81f50a09cbbbb658b8c186d4cec96361e717e8332d5e2f011f54607a2146d5c715a3d1bb9010020238040e54a8890b1089060800810081190a36004820412c00103c52419808825300f0d00002007aa583a0408021d004607ad188851683404942444042c9b800520820824421c2c8e02f2dee82000680085203084e44e08040c1504c524080226223440926260208c2a0d02b0002c072220084a2110253b06000096404a50890802025443000e8008d0a2298a22c00220490071050088185e29045450b4018c2200a80280056304063011c82e1044880492cf054c40421024e4f4a4341a06ad2a81502308002e3000984000a5701801110a01c30501405250a2500764822c0a40b4345a00680800002012c0825010204d0c90c92d80a6c140e9a052d6c85c36808401470ad38401c9c3808401c7c3498467636af398546974616e2028746974616e6275696c6465722e78797a29a08266c6e640fc9e7127093dfea67c08c4064e48de443514ee780654956e690ccc88000000000000000085024f19cb77a072f8b7e81807e99d51a0b21d4f6e442d69522d47ec57afa70b9026455f36b142808404420000a0ca8b18f9e0cacc275c5e1901625a8a5d310d324d70694695bee3b7bb09b5d519",
    "BlockHash": "0xb94de23efa89d8b162c06f5c41b540b2aaef2ad1cef6bec196df3c3c09f3a024",
    "BlockNumber": 21433043,
    "BlockTimestamp": 1734568691
}