{
    "RawJsonBlockHeader": "EvmBlockHeaderFromRpc { number: 0x133e9e3, hash: 0xe5dca003b61793be8d7660059f9d34e1c8d774878ecf0759fa4ec712302dd9c6, difficulty: 0x0, extra_data: 0x6265617665726275696c642e6f7267, gas_limit: 0x1c9c380, gas_used: 0x16c9342, logs_bloom: 0x16a651e77706594273db667bf2a957e335458b1f28dc6f4c6e1f6c62e462f8ae2c9d8d95cda08bfdba123d53bd97f3d97f719078cf35ef2466f23e6544bf7a85a0dfff990b9c8d2feca7fd2ec8cef3fe2cd3e239fdd7dd137f502dfea9bcd58e1b09d18c0b67c16736edd7d260fdbd4fa24d4efd0e144e37938efd5f44bb945e5fbf7fdff3dee2ce05d8b4d49ebecf534363be1deb56c3bff2bdb84f6cfc1adf8eff59ea1ce1e0b657d2dddeb8dbdd9aeaf3db14ecf5d618aff752bf85a67ee1dfbbcc1f2e5d0ff98d53d812eb7b9de16cff2222d42c28d56263531b4abbe997bffcfe7a618d2d7a9afc8b8aae551f271589f4cf2b96e8c5be93e93036c155f7, miner: 0x95222290dd7278aa3ddd389cc1e1d165cc4bafe5, mix_hash: 0x786a6303f6cdb6702debbd888468f7db4e80278169e1cf0dc8a6a585eb1fcf9a, nonce: 0x0000000000000000, parent_hash: 0xab21d0aa5087db23b600a8f53f60364417c661092e557b50cb3a581ac810074e, receipts_root: 0x27c64701f7bf2e24bcc24e703b506f73f63fd7b67768f4782c8493abaff7c13c, sha3_uncles: 0x1dcc4de8dec75d7aab85b567b6ccd41ad312451b948a7413f0a142fd40d49347, size: 0x30e01, state_root: 0xb37838be3431b45300652d8cd854e83d7cb9404cb005a1c3ccbebdd1237a47aa, timestamp: 0x667cb17f, total_difficulty: 0xc70d815d562d3cfa955, transactions_root: 0xb1069e902589c1add14ba9fee78c17ecd6167bd60a591ba9a7e032efb68faf66, base_fee_per_gas: Some(0xe5817bff), withdrawals_root: Some(0x56a2132d122ca2ae7b53725d1e143eea14bd6af9d2cfc3b29dbb9119e0282826), blob_gas_used: Some(0xc0000), excess_blob_gas: Some(0x2e0000), parent_beacon_block_root: Some(0x0346d163003b03b6bfec80dd359f05e1a11f6ffedea98e806c4bb01ad4e1c28a) }",
    "RawBlockHeader": "Header { parent_hash: 0xab21d0aa5087db23b600a8f53f60364417c661092e557b50cb3a581ac810074e, ommers_hash: 0x1dcc4de8dec75d7aab85b567b6ccd41ad312451b948a7413f0a142fd40d49347, beneficiary: 0x95222290dd7278aa3ddd389cc1e1d165cc4bafe5, state_root: 0xb37838be3431b45300652d8cd854e83d7cb9404cb005a1c3ccbebdd1237a47aa, transactions_root: 0xb1069e902589c1add14ba9fee78c17ecd6167bd60a591ba9a7e032efb68faf66, receipts_root: 0x27c64701f7bf2e24bcc24e703b506f73f63fd7b67768f4782c8493abaff7c13c, withdrawals_root: Some(0x56a2132d122ca2ae7b53725d1e143eea14bd6af9d2cfc3b29dbb9119e0282826), logs_bloom: 0x16a651e77706594273db667bf2a957e335458b1f28dc6f4c6e1f6c62e462f8ae2c9d8d95cda08bfdba123d53bd97f3d97f719078cf35ef2466f23e6544bf7a85a0dfff990b9c8d2feca7fd2ec8cef3fe2cd3e239fdd7dd137f502dfea9bcd58e1b09d18c0b67c16736edd7d260fdbd4fa24d4efd0e144e37938efd5f44bb945e5fbf7fdff3dee2ce05d8b4d49ebecf534363be1deb56c3bff2bdb84f6cfc1adf8eff59ea1ce1e0b657d2dddeb8dbdd9aeaf3db14ecf5d618aff752bf85a67ee1dfbbcc1f2e5d0ff98d53d812eb7b9de16cff2222d42c28d56263531b4abbe997bffcfe7a618d2d7a9afc8b8aae551f271589f4cf2b96e8c5be93e93036c155f7, difficulty: 0x0_U256, number: 20179427, gas_limit: 30000000, gas_used: 23892802, timestamp: 1719447935, mix_hash: 0x786a6303f6cdb6702debbd888468f7db4e80278169e1cf0dc8a6a585eb1fcf9a, nonce: 0, base_fee_per_gas: Some(3850468351), blob_gas_used: Some(786432), excess_blob_gas: Some(3014656), parent_beacon_block_root: Some(0x0346d163003b03b6bfec80dd359f05e1a11f6ffedea98e806c4bb01ad4e1c28a), extra_data: 0x6265617665726275696c642e6f7267 }",
    "RlpEncodedBlockHeader": "f9025ba0ab21d0aa5087db23b600a8f53f60364417c661092e557b50cb3a581ac810074ea01dcc4de8dec75d7aab85b567b6ccd41ad312451b948a7413f0a142fd40d493479495222290dd7278aa3ddd389cc1e1d165cc4bafe5a0b37838be3431b45300652d8cd854e83d7cb9404cb005a1c3ccbebdd1237a47aaa0b1069e902589c1add14ba9fee78c17ecd6167bd60a591ba9a7e032efb68faf66a027c64701f7bf2e24bcc24e703b506f73f63fd7b67768f4782c8493abaff7c13cb9010016a651e77706594273db667bf2a957e335458b1f28dc6f4c6e1f6c62e462f8ae2c9d8d95cda08bfdba123d53bd97f3d97f719078cf35ef2466f23e6544bf7a85a0dfff990b9c8d2feca7fd2ec8cef3fe2cd3e239fdd7dd137f502dfea9bcd58e1b09d18c0b67c16736edd7d260fdbd4fa24d4efd0e144e37938efd5f44bb945e5fbf7fdff3dee2ce05d8b4d49ebecf534363be1deb56c3bff2bdb84f6cfc1adf8eff59ea1ce1e0b657d2dddeb8dbdd9aeaf3db14ecf5d618aff752bf85a67ee1dfbbcc1f2e5d0ff98d53d812eb7b9de16cff2222d42c28d56263531b4abbe997bffcfe7a618d2d7a9afc8b8aae551f271589f4cf2b96e8c5be93e93036c155f780840133e9e38401c9c38084016c934284667cb17f8f6265617665726275696c642e6f7267a0786a6303f6cdb6702debbd888468f7db4e80278169e1cf0dc8a6a585eb1fcf9a88000000000000000084e5817bffa056a2132d122ca2ae7b53725d1e143eea14bd6af9d2cfc3b29dbb9119e0282826830c0000832e0000a00346d163003b03b6bfec80dd359f05e1a11f6ffedea98e806c4bb01ad4e1c28a",
    "BlockHash": "0xe5dca003b61793be8d7660059f9d34e1c8d774878ecf0759fa4ec712302dd9c6",
    "BlockNumber": 20179427,
    "BlockTimestamp": 1719447935
}