{
    "RawJsonBlockHeader": "EvmBlockHeaderFromRpc { number: 0x147ce44, hash: 0x229ac43f9217e74030a5f9a422fdf917fa03ad2658cdb8011a34f7f9fba49cb3, difficulty: 0x0, extra_data: 0xd883010d0f846765746888676f312e32312e36856c696e7578, gas_limit: 0x1ca3599, gas_used: 0x3833f4, logs_bloom: 0x002100000c00100002021000900004829401020a4000000042014c02083200001080442142108400040181000801010802034400080800010004000030ac400004c002100210000c180a402840105838010000011068020000020289001000401001002000404520800000000000200000014060000034502200601400001004010004c00080051a0341001811020004401000008100004800000040401084244a0210002088a0000808088080000020250000001004000409414002040010002010a01200200445490910844000100000000300102204340404008a008020800010614001000008080001200021640180000000004000010020000200010415, miner: 0x9f4cf329f4cf376b7aded854d6054859dd102a2a, mix_hash: 0x99ab2fdadba960f16d3440271900acdd003ffea60ea52c673572da09ed7e9780, nonce: 0x0000000000000000, parent_hash: 0x65fab54f6199a54f3d5fdc232e6bbaf942a0bb05a7d7b74b5665b2868173c9bb, receipts_root: 0x8813558ba85e60e3ed5d6486e7b3ed56fe7396bfbe79c909e29763bb76565a81, sha3_uncles: 0x1dcc4de8dec75d7aab85b567b6ccd41ad312451b948a7413f0a142fd40d49347, size: 0x2361, state_root: 0x8409a89d25ddf8111db450a6557b7253c9dbda0f3df7e44288b9329e41559dcc, timestamp: 0x676ca3b7, total_difficulty: 0xc70d815d562d3cfa955, transactions_root: 0x20ea9480b9ed39a0f6a50f61040348439965af4ff1d0d13c6d825e1c9b6023f0, base_fee_per_gas: Some(0x155af098d), withdrawals_root: Some(0x773c388552d61df31ab4683771a001250d7ed5e2d5f3b09bf5302cfd0b48d3ca), blob_gas_used: Some(0xa0000), excess_blob_gas: Some(0x3400000), parent_beacon_block_root: Some(0x2b56f02a2cd93b48d69f3363c018889cd32138e10627e908a4aa8e0bdf5f3f0f) }",
    "RawBlockHeader": "Header { parent_hash: 0x65fab54f6199a54f3d5fdc232e6bbaf942a0bb05a7d7b74b5665b2868173c9bb, ommers_hash: 0x1dcc4de8dec75d7aab85b567b6ccd41ad312451b948a7413f0a142fd40d49347, beneficiary: 0x9f4cf329f4cf376b7aded854d6054859dd102a2a, state_root: 0x8409a89d25ddf8111db450a6557b7253c9dbda0f3df7e44288b9329e41559dcc, transactions_root: 0x20ea9480b9ed39a0f6a50f61040348439965af4ff1d0d13c6d825e1c9b6023f0, receipts_root: 0x8813558ba85e60e3ed5d6486e7b3ed56fe7396bfbe79c909e29763bb76565a81, withdrawals_root: Some(0x773c388552d61df31ab4683771a001250d7ed5e2d5f3b09bf5302cfd0b48d3ca), logs_bloom: 0x002100000c00100002021000900004829401020a4000000042014c02083200001080442142108400040181000801010802034400080800010004000030ac400004c002100210000c180a402840105838010000011068020000020289001000401001002000404520800000000000200000014060000034502200601400001004010004c00080051a0341001811020004401000008100004800000040401084244a0210002088a0000808088080000020250000001004000409414002040010002010a01200200445490910844000100000000300102204340404008a008020800010614001000008080001200021640180000000004000010020000200010415, difficulty: 0x0_U256, number: 21483076, gas_limit: 30029209, gas_used: 3683316, timestamp: 1735173047, mix_hash: 0x99ab2fdadba960f16d3440271900acdd003ffea60ea52c673572da09ed7e9780, nonce: 0, base_fee_per_gas: Some(5732501901), blob_gas_used: Some(655360), excess_blob_gas: Some(54525952), parent_beacon_block_root: Some(0x2b56f02a2cd93b48d69f3363c018889cd32138e10627e908a4aa8e0bdf5f3f0f), extra_data: 0xd883010d0f846765746888676f312e32312e36856c696e7578 }",
    "RlpEncodedBlockHeader": "f90266a065fab54f6199a54f3d5fdc232e6bbaf942a0bb05a7d7b74b5665b2868173c9bba01dcc4de8dec75d7aab85b567b6ccd41ad312451b948a7413f0a142fd40d49347949f4cf329f4cf376b7aded854d6054859dd102a2aa08409a89d25ddf8111db450a6557b7253c9dbda0f3df7e44288b9329e41559dcca020ea9480b9ed39a0f6a50f61040348439965af4ff1d0d13c6d825e1c9b6023f0a08813558ba85e60e3ed5d6486e7b3ed56fe7396bfbe79c909e29763bb76565a81b90100002100000c00100002021000900004829401020a4000000042014c02083200001080442142108400040181000801010802034400080800010004000030ac400004c002100210000c180a402840105838010000011068020000020289001000401001002000404520800000000000200000014060000034502200601400001004010004c00080051a0341001811020004401000008100004800000040401084244a0210002088a0000808088080000020250000001004000409414002040010002010a01200200445490910844000100000000300102204340404008a00802080001061400100000808000120002164018000000000400001002000020001041580840147ce448401ca3599833833f484676ca3b799d883010d0f846765746888676f312e32312e36856c696e7578a099ab2fdadba960f16d3440271900acdd003ffea60ea52c673572da09ed7e9780880000000000000000850155af098da0773c388552d61df31ab4683771a001250d7ed5e2d5f3b09bf5302cfd0b48d3ca830a00008403400000a02b56f02a2cd93b48d69f3363c018889cd32138e10627e908a4aa8e0bdf5f3f0f",
    "BlockHash": "0x229ac43f9217e74030a5f9a422fdf917fa03ad2658cdb8011a34f7f9fba49cb3",
    "BlockNumber": 21483076,
    "BlockTimestamp": 1735173047
}