{
    "RawJsonBlockHeader": "EvmBlockHeaderFromRpc { number: 0x1326850, hash: 0x6e6f06f688c87c830dd5862e3f1cbe397d9fa177ab7934e68d1d8f3602cb9525, difficulty: 0x0, extra_data: 0x407273796e636275696c646572, gas_limit: 0x1c9c380, gas_used: 0x17284fa, logs_bloom: 0xf5f7b7237defffb3af9dd0f8fab3fc4bdfcde839a7e4a4f2b3c5f82d7583b28b6f9f5ee581cfea3877d0bd1778b7df360ea3b95a9f72e4b57fd1f6ffadaefbfa241ee43d7dd3ed799c6cf11bc6ede8ffe82dd3bd84de9c267d871ce09a6ce7f14721f2e6b6663cef915bfd914e32fdedb719777ff2ffbf2db6b5759cea2b15545b72dedab749d3fd3067b243ceeb75a7dd67e66f5587208faf032d727fb77bba57e7d3eee6e7aed7cfdd53cefacbaf36cdc57c18d1b90b5759ffffaf46988af2dff5f8fb7ddf2b70d959ac94443ffccb5af76a82d76ae8b674add4869abeee77727eece60be0b6727fddbfc52b31a70e51adf37d7fb72dd789fd9e1f7b027fa5, miner: 0x1f9090aae28b8a3dceadf281b0f12828e676c326, mix_hash: 0xdbb028f5f090ef1327000a2e8df56ad39adb0613e24edb81853aad0531eb557c, nonce: 0x0000000000000000, parent_hash: 0x883404fb2c6c9f7d3c8aefdddd5151d066627faee5cf18a8cea751fcb58ee47a, receipts_root: 0x87326136306cde0a6f4286d4ee450622f9ed953f7452f1aadf6574d03435b3f0, sha3_uncles: 0x1dcc4de8dec75d7aab85b567b6ccd41ad312451b948a7413f0a142fd40d49347, size: 0x21409, state_root: 0xb0c25a42013b062939196b6b00a795695f3901902206b976b43f6351b712bf1f, timestamp: 0x666a7ed3, total_difficulty: 0xc70d815d562d3cfa955, transactions_root: 0xbc95694693684e439b7127cc379de1693d53e1cfd212d5e77510fc9838df832e, base_fee_per_gas: Some(0x275aa0e9e), withdrawals_root: Some(0xa8ea05d3f7806d743cebd8ad5d4a51893d84bc9c753fadb5413fd3c4bb246226), blob_gas_used: Some(0x20000), excess_blob_gas: Some(0x180000), parent_beacon_block_root: Some(0x3ff43aba07174d4b664bd3b91e95618151080e3edb798fd0b6e85d9729446349) }",
    "RawBlockHeader": "Header { parent_hash: 0x883404fb2c6c9f7d3c8aefdddd5151d066627faee5cf18a8cea751fcb58ee47a, ommers_hash: 0x1dcc4de8dec75d7aab85b567b6ccd41ad312451b948a7413f0a142fd40d49347, beneficiary: 0x1f9090aae28b8a3dceadf281b0f12828e676c326, state_root: 0xb0c25a42013b062939196b6b00a795695f3901902206b976b43f6351b712bf1f, transactions_root: 0xbc95694693684e439b7127cc379de1693d53e1cfd212d5e77510fc9838df832e, receipts_root: 0x87326136306cde0a6f4286d4ee450622f9ed953f7452f1aadf6574d03435b3f0, withdrawals_root: Some(0xa8ea05d3f7806d743cebd8ad5d4a51893d84bc9c753fadb5413fd3c4bb246226), logs_bloom: 0xf5f7b7237defffb3af9dd0f8fab3fc4bdfcde839a7e4a4f2b3c5f82d7583b28b6f9f5ee581cfea3877d0bd1778b7df360ea3b95a9f72e4b57fd1f6ffadaefbfa241ee43d7dd3ed799c6cf11bc6ede8ffe82dd3bd84de9c267d871ce09a6ce7f14721f2e6b6663cef915bfd914e32fdedb719777ff2ffbf2db6b5759cea2b15545b72dedab749d3fd3067b243ceeb75a7dd67e66f5587208faf032d727fb77bba57e7d3eee6e7aed7cfdd53cefacbaf36cdc57c18d1b90b5759ffffaf46988af2dff5f8fb7ddf2b70d959ac94443ffccb5af76a82d76ae8b674add4869abeee77727eece60be0b6727fddbfc52b31a70e51adf37d7fb72dd789fd9e1f7b027fa5, difficulty: 0x0_U256, number: 20080720, gas_limit: 30000000, gas_used: 24282362, timestamp: 1718255315, mix_hash: 0xdbb028f5f090ef1327000a2e8df56ad39adb0613e24edb81853aad0531eb557c, nonce: 0, base_fee_per_gas: Some(10564013726), blob_gas_used: Some(131072), excess_blob_gas: Some(1572864), parent_beacon_block_root: Some(0x3ff43aba07174d4b664bd3b91e95618151080e3edb798fd0b6e85d9729446349), extra_data: 0x407273796e636275696c646572 }",
    "RlpEncodedBlockHeader": "f9025aa0883404fb2c6c9f7d3c8aefdddd5151d066627faee5cf18a8cea751fcb58ee47aa01dcc4de8dec75d7aab85b567b6ccd41ad312451b948a7413f0a142fd40d49347941f9090aae28b8a3dceadf281b0f12828e676c326a0b0c25a42013b062939196b6b00a795695f3901902206b976b43f6351b712bf1fa0bc95694693684e439b7127cc379de1693d53e1cfd212d5e77510fc9838df832ea087326136306cde0a6f4286d4ee450622f9ed953f7452f1aadf6574d03435b3f0b90100f5f7b7237defffb3af9dd0f8fab3fc4bdfcde839a7e4a4f2b3c5f82d7583b28b6f9f5ee581cfea3877d0bd1778b7df360ea3b95a9f72e4b57fd1f6ffadaefbfa241ee43d7dd3ed799c6cf11bc6ede8ffe82dd3bd84de9c267d871ce09a6ce7f14721f2e6b6663cef915bfd914e32fdedb719777ff2ffbf2db6b5759cea2b15545b72dedab749d3fd3067b243ceeb75a7dd67e66f5587208faf032d727fb77bba57e7d3eee6e7aed7cfdd53cefacbaf36cdc57c18d1b90b5759ffffaf46988af2dff5f8fb7ddf2b70d959ac94443ffccb5af76a82d76ae8b674add4869abeee77727eece60be0b6727fddbfc52b31a70e51adf37d7fb72dd789fd9e1f7b027fa58084013268508401c9c38084017284fa84666a7ed38d407273796e636275696c646572a0dbb028f5f090ef1327000a2e8df56ad39adb0613e24edb81853aad0531eb557c880000000000000000850275aa0e9ea0a8ea05d3f7806d743cebd8ad5d4a51893d84bc9c753fadb5413fd3c4bb2462268302000083180000a03ff43aba07174d4b664bd3b91e95618151080e3edb798fd0b6e85d9729446349",
    "BlockHash": "0x6e6f06f688c87c830dd5862e3f1cbe397d9fa177ab7934e68d1d8f3602cb9525",
    "BlockNumber": 20080720,
    "BlockTimestamp": 1718255315
}