{
    "RawJsonBlockHeader": "EvmBlockHeaderFromRpc { number: 0x13ea002, hash: 0xe31705e466e23321a3b821d9cc3dca843f34bd9871e991f3be934c1b36696169, difficulty: 0x0, extra_data: 0x6265617665726275696c642e6f7267, gas_limit: 0x1c9c380, gas_used: 0x9fad1a, logs_bloom: 0x1877d4d689431b033b8459b4b08230011388c50aac5ed0e69a8f600a5dd70fa8d0450181745818d19259b809120a231b1b01c5c9d90a2a7450df87e04279119116ec95da0648bd49f81a422e900298b532c6b47d576c5c6f6d1b4649c46f8786df8808528a39d12a372a71024949b807326106c510b80fa28a1a069c807c1a0107020752dc70ba9d2c4621f34ba5471555000a51b921d06dcabf15c248f32221033ec74c91b6633acc68c2d3bbb1bda435e3c4dd345303689a754028072841a4437a3b92a1997c58a3d0592c42bb4cc406ec6996e48cd41044d0b7cee8c4a4775171775d21e9806f8b8c9189c020c0518937f98f0d2b1bc011030309450534c5, miner: 0x95222290dd7278aa3ddd389cc1e1d165cc4bafe5, mix_hash: 0xfbaa8a85db1fddfc9ec15c95ae1aba9ce0e7a2e3ed9db431eb82a0fdd7e66d7e, nonce: 0x0000000000000000, parent_hash: 0x841b0d890e825762c1563bdd4bea356122a3e0f5c0199e613f84c14120f1d91b, receipts_root: 0xc7b056cdbd7fa20068b5d930b0bc27ef9c8130488a0d7354a1d7b078e7f1ba26, sha3_uncles: 0x1dcc4de8dec75d7aab85b567b6ccd41ad312451b948a7413f0a142fd40d49347, size: 0xaab8, state_root: 0xeab5d2f44735644198278095a318af4740c0a5527d6edc6b42994fd419c50562, timestamp: 0x66fde587, total_difficulty: 0xc70d815d562d3cfa955, transactions_root: 0xea045387037781cb312351b51b9598770b6e0abb8c9ac0048ec8df6f8994b357, base_fee_per_gas: Some(0x140256f45), withdrawals_root: Some(0xb498a1d63a0f0e34ec1d903b5bf1c0ececa7e788bd6ee027b452ee2e1ec1f20a), blob_gas_used: Some(0x0), excess_blob_gas: Some(0x140000), parent_beacon_block_root: Some(0x376b618c7182ae51c99f15d9c7616b64f92e66d93c546059a77a8d9391436694) }",
    "RawBlockHeader": "Header { parent_hash: 0x841b0d890e825762c1563bdd4bea356122a3e0f5c0199e613f84c14120f1d91b, ommers_hash: 0x1dcc4de8dec75d7aab85b567b6ccd41ad312451b948a7413f0a142fd40d49347, beneficiary: 0x95222290dd7278aa3ddd389cc1e1d165cc4bafe5, state_root: 0xeab5d2f44735644198278095a318af4740c0a5527d6edc6b42994fd419c50562, transactions_root: 0xea045387037781cb312351b51b9598770b6e0abb8c9ac0048ec8df6f8994b357, receipts_root: 0xc7b056cdbd7fa20068b5d930b0bc27ef9c8130488a0d7354a1d7b078e7f1ba26, withdrawals_root: Some(0xb498a1d63a0f0e34ec1d903b5bf1c0ececa7e788bd6ee027b452ee2e1ec1f20a), logs_bloom: 0x1877d4d689431b033b8459b4b08230011388c50aac5ed0e69a8f600a5dd70fa8d0450181745818d19259b809120a231b1b01c5c9d90a2a7450df87e04279119116ec95da0648bd49f81a422e900298b532c6b47d576c5c6f6d1b4649c46f8786df8808528a39d12a372a71024949b807326106c510b80fa28a1a069c807c1a0107020752dc70ba9d2c4621f34ba5471555000a51b921d06dcabf15c248f32221033ec74c91b6633acc68c2d3bbb1bda435e3c4dd345303689a754028072841a4437a3b92a1997c58a3d0592c42bb4cc406ec6996e48cd41044d0b7cee8c4a4775171775d21e9806f8b8c9189c020c0518937f98f0d2b1bc011030309450534c5, difficulty: 0x0_U256, number: 20881410, gas_limit: 30000000, gas_used: 10464538, timestamp: 1727915399, mix_hash: 0xfbaa8a85db1fddfc9ec15c95ae1aba9ce0e7a2e3ed9db431eb82a0fdd7e66d7e, nonce: 0, base_fee_per_gas: Some(5371162437), blob_gas_used: Some(0), excess_blob_gas: Some(1310720), parent_beacon_block_root: Some(0x376b618c7182ae51c99f15d9c7616b64f92e66d93c546059a77a8d9391436694), extra_data: 0x6265617665726275696c642e6f7267 }",
    "RlpEncodedBlockHeader": "f90258a0841b0d890e825762c1563bdd4bea356122a3e0f5c0199e613f84c14120f1d91ba01dcc4de8dec75d7aab85b567b6ccd41ad312451b948a7413f0a142fd40d493479495222290dd7278aa3ddd389cc1e1d165cc4bafe5a0eab5d2f44735644198278095a318af4740c0a5527d6edc6b42994fd419c50562a0ea045387037781cb312351b51b9598770b6e0abb8c9ac0048ec8df6f8994b357a0c7b056cdbd7fa20068b5d930b0bc27ef9c8130488a0d7354a1d7b078e7f1ba26b901001877d4d689431b033b8459b4b08230011388c50aac5ed0e69a8f600a5dd70fa8d0450181745818d19259b809120a231b1b01c5c9d90a2a7450df87e04279119116ec95da0648bd49f81a422e900298b532c6b47d576c5c6f6d1b4649c46f8786df8808528a39d12a372a71024949b807326106c510b80fa28a1a069c807c1a0107020752dc70ba9d2c4621f34ba5471555000a51b921d06dcabf15c248f32221033ec74c91b6633acc68c2d3bbb1bda435e3c4dd345303689a754028072841a4437a3b92a1997c58a3d0592c42bb4cc406ec6996e48cd41044d0b7cee8c4a4775171775d21e9806f8b8c9189c020c0518937f98f0d2b1bc011030309450534c58084013ea0028401c9c380839fad1a8466fde5878f6265617665726275696c642e6f7267a0fbaa8a85db1fddfc9ec15c95ae1aba9ce0e7a2e3ed9db431eb82a0fdd7e66d7e880000000000000000850140256f45a0b498a1d63a0f0e34ec1d903b5bf1c0ececa7e788bd6ee027b452ee2e1ec1f20a8083140000a0376b618c7182ae51c99f15d9c7616b64f92e66d93c546059a77a8d9391436694",
    "BlockHash": "0xe31705e466e23321a3b821d9cc3dca843f34bd9871e991f3be934c1b36696169",
    "BlockNumber": 20881410,
    "BlockTimestamp": 1727915399
}