{
    "RawJsonBlockHeader": "EvmBlockHeaderFromRpc { number: 0x1357179, hash: 0x9d5d1e8f7726d7dcdaa943a2500f80d5215f373974ae4c38e25320e6fc0ce565, difficulty: 0x0, extra_data: 0x4e65746865726d696e64, gas_limit: 0x1c9c380, gas_used: 0x550841, logs_bloom: 0x00a101e880028500402801908a18040014190a180104620910999200c20240000084080e020008489600871104001905822180148e42a00015500740083a00b003400348844008080874740a814800a38a550165b5404880b2ce342180240104198884300693526144104cc000080f6909a040110160c4019a00041049091544980304480e40c1c000500143086600220021c009010d10482924004204bd9920c346400f404020100803c1c4c9200c00a6c0c08900219003001d0821030084819b1804030a002100100824030058808e198900065002c010e800120b1021ba401958220001800028040420a228426885960030825a2000c02224020612104585, miner: 0x261f4af4d2a14b8f879888c0e2c7c6d06f37826c, mix_hash: 0xd8d1133332b1927743fcb39f4f45fe47f2209bbb7cda666aa4325b79823ddd89, nonce: 0x0000000000000000, parent_hash: 0xdd5bb4b27eea3fc7e65b3e50f7f196e21238e10c72f69b200fe14b0bef294b8d, receipts_root: 0x24b1bec81a62ed78e2411b86ceb0d964d9a2fa2c6868d62fd90a34f1806d46e3, sha3_uncles: 0x1dcc4de8dec75d7aab85b567b6ccd41ad312451b948a7413f0a142fd40d49347, size: 0x709a, state_root: 0x78f9ad938895350313d67bf51fb4399a909c852994e21cac42a20a504e9081d9, timestamp: 0x668f26d3, total_difficulty: 0xc70d815d562d3cfa955, transactions_root: 0x1c7c1c4684ea4b4988800033a9fdd14d0bb89f9c307ea843506794ecdf3d43e5, base_fee_per_gas: Some(0xa9ecd699), withdrawals_root: Some(0x76d347cedc337f62f639e425c8af035555e37d09a659e38983f1acdf557c8da2), blob_gas_used: Some(0x0), excess_blob_gas: Some(0x0), parent_beacon_block_root: Some(0x28d0adcca5dddcf9dfbd5338fd6d30b6b5c32b4720fa73aba9056c84ddeb873a) }",
    "RawBlockHeader": "Header { parent_hash: 0xdd5bb4b27eea3fc7e65b3e50f7f196e21238e10c72f69b200fe14b0bef294b8d, ommers_hash: 0x1dcc4de8dec75d7aab85b567b6ccd41ad312451b948a7413f0a142fd40d49347, beneficiary: 0x261f4af4d2a14b8f879888c0e2c7c6d06f37826c, state_root: 0x78f9ad938895350313d67bf51fb4399a909c852994e21cac42a20a504e9081d9, transactions_root: 0x1c7c1c4684ea4b4988800033a9fdd14d0bb89f9c307ea843506794ecdf3d43e5, receipts_root: 0x24b1bec81a62ed78e2411b86ceb0d964d9a2fa2c6868d62fd90a34f1806d46e3, withdrawals_root: Some(0x76d347cedc337f62f639e425c8af035555e37d09a659e38983f1acdf557c8da2), logs_bloom: 0x00a101e880028500402801908a18040014190a180104620910999200c20240000084080e020008489600871104001905822180148e42a00015500740083a00b003400348844008080874740a814800a38a550165b5404880b2ce342180240104198884300693526144104cc000080f6909a040110160c4019a00041049091544980304480e40c1c000500143086600220021c009010d10482924004204bd9920c346400f404020100803c1c4c9200c00a6c0c08900219003001d0821030084819b1804030a002100100824030058808e198900065002c010e800120b1021ba401958220001800028040420a228426885960030825a2000c02224020612104585, difficulty: 0x0_U256, number: 20279673, gas_limit: 30000000, gas_used: 5572673, timestamp: 1720657619, mix_hash: 0xd8d1133332b1927743fcb39f4f45fe47f2209bbb7cda666aa4325b79823ddd89, nonce: 0, base_fee_per_gas: Some(2850870937), blob_gas_used: Some(0), excess_blob_gas: Some(0), parent_beacon_block_root: Some(0x28d0adcca5dddcf9dfbd5338fd6d30b6b5c32b4720fa73aba9056c84ddeb873a), extra_data: 0x4e65746865726d696e64 }",
    "RlpEncodedBlockHeader": "f9024fa0dd5bb4b27eea3fc7e65b3e50f7f196e21238e10c72f69b200fe14b0bef294b8da01dcc4de8dec75d7aab85b567b6ccd41ad312451b948a7413f0a142fd40d4934794261f4af4d2a14b8f879888c0e2c7c6d06f37826ca078f9ad938895350313d67bf51fb4399a909c852994e21cac42a20a504e9081d9a01c7c1c4684ea4b4988800033a9fdd14d0bb89f9c307ea843506794ecdf3d43e5a024b1bec81a62ed78e2411b86ceb0d964d9a2fa2c6868d62fd90a34f1806d46e3b9010000a101e880028500402801908a18040014190a180104620910999200c20240000084080e020008489600871104001905822180148e42a00015500740083a00b003400348844008080874740a814800a38a550165b5404880b2ce342180240104198884300693526144104cc000080f6909a040110160c4019a00041049091544980304480e40c1c000500143086600220021c009010d10482924004204bd9920c346400f404020100803c1c4c9200c00a6c0c08900219003001d0821030084819b1804030a002100100824030058808e198900065002c010e800120b1021ba401958220001800028040420a228426885960030825a2000c022240206121045858084013571798401c9c3808355084184668f26d38a4e65746865726d696e64a0d8d1133332b1927743fcb39f4f45fe47f2209bbb7cda666aa4325b79823ddd8988000000000000000084a9ecd699a076d347cedc337f62f639e425c8af035555e37d09a659e38983f1acdf557c8da28080a028d0adcca5dddcf9dfbd5338fd6d30b6b5c32b4720fa73aba9056c84ddeb873a",
    "BlockHash": "0x9d5d1e8f7726d7dcdaa943a2500f80d5215f373974ae4c38e25320e6fc0ce565",
    "BlockNumber": 20279673,
    "BlockTimestamp": 1720657619
}