{
    "RawJsonBlockHeader": "EvmBlockHeaderFromRpc { number: 0x1388270, hash: 0x1aff6bd0adeb557e47ae0619283afb91b776d9462d1f591aee018a0caceccd08, difficulty: 0x0, extra_data: 0xd883010d0c846765746888676f312e32312e36856c696e7578, gas_limit: 0x1c9c380, gas_used: 0x295a3f, logs_bloom: 0x042200500100000812001000d00004004000000100000000000a0000400000900c000100020040004000301000800108032000289a0008001000240810240000e0001008000002000806408801000420020080054244081100000c008d22000000680080100020a800044000104028913100000010000428040008110850100000000210004180080000000000200010a1023a010b81430840200444003002000288000203002050000000c20304002000440058020000810490020004400200000120021a0601002120002298000900009204080640001004001a020908400180746160004004001000018028001042000090400620a0c00b00b1001044d020, miner: 0x9275a67fb99df1302d1da4b363aa4920c1183223, mix_hash: 0x8fc660e6e07273ebf47108e50749711b9731c5966c717d63269675355ced3a5e, nonce: 0x0000000000000000, parent_hash: 0xbc8880b6c1287ff495d887564e6f4340b0544d3b9d792af620e83118bcfbbfd4, receipts_root: 0xf1ae398e5cc0f59b7853fb09ec70c37f3474987780078bcb3dcbc478414dd27c, sha3_uncles: 0x1dcc4de8dec75d7aab85b567b6ccd41ad312451b948a7413f0a142fd40d49347, size: 0x3629, state_root: 0x9ae08598c37f2575154eaf64db071c5d28153a6dbb29701258bd9ad25c92f098, timestamp: 0x66b42147, total_difficulty: 0xc70d815d562d3cfa955, transactions_root: 0xee43d369841e77f5009615786624e3929a13ba63fcf9a0e036c20bef9a78e51b, base_fee_per_gas: Some(0x4705b15b), withdrawals_root: Some(0x161a5516fc3734644aac35ee2d06575ceec2798d37f9ea2f6be1d6c7510bf039), blob_gas_used: Some(0x80000), excess_blob_gas: Some(0x100000), parent_beacon_block_root: Some(0xa6939f98cbc712052bc2bd8a452136849909aa443c8a2d2da21f7027a968479c) }",
    "RawBlockHeader": "Header { parent_hash: 0xbc8880b6c1287ff495d887564e6f4340b0544d3b9d792af620e83118bcfbbfd4, ommers_hash: 0x1dcc4de8dec75d7aab85b567b6ccd41ad312451b948a7413f0a142fd40d49347, beneficiary: 0x9275a67fb99df1302d1da4b363aa4920c1183223, state_root: 0x9ae08598c37f2575154eaf64db071c5d28153a6dbb29701258bd9ad25c92f098, transactions_root: 0xee43d369841e77f5009615786624e3929a13ba63fcf9a0e036c20bef9a78e51b, receipts_root: 0xf1ae398e5cc0f59b7853fb09ec70c37f3474987780078bcb3dcbc478414dd27c, withdrawals_root: Some(0x161a5516fc3734644aac35ee2d06575ceec2798d37f9ea2f6be1d6c7510bf039), logs_bloom: 0x042200500100000812001000d00004004000000100000000000a0000400000900c000100020040004000301000800108032000289a0008001000240810240000e0001008000002000806408801000420020080054244081100000c008d22000000680080100020a800044000104028913100000010000428040008110850100000000210004180080000000000200010a1023a010b81430840200444003002000288000203002050000000c20304002000440058020000810490020004400200000120021a0601002120002298000900009204080640001004001a020908400180746160004004001000018028001042000090400620a0c00b00b1001044d020, difficulty: 0x0_U256, number: 20480624, gas_limit: 30000000, gas_used: 2710079, timestamp: 1723081031, mix_hash: 0x8fc660e6e07273ebf47108e50749711b9731c5966c717d63269675355ced3a5e, nonce: 0, base_fee_per_gas: Some(1191555419), blob_gas_used: Some(524288), excess_blob_gas: Some(1048576), parent_beacon_block_root: Some(0xa6939f98cbc712052bc2bd8a452136849909aa443c8a2d2da21f7027a968479c), extra_data: 0xd883010d0c846765746888676f312e32312e36856c696e7578 }",
    "RlpEncodedBlockHeader": "f90264a0bc8880b6c1287ff495d887564e6f4340b0544d3b9d792af620e83118bcfbbfd4a01dcc4de8dec75d7aab85b567b6ccd41ad312451b948a7413f0a142fd40d49347949275a67fb99df1302d1da4b363aa4920c1183223a09ae08598c37f2575154eaf64db071c5d28153a6dbb29701258bd9ad25c92f098a0ee43d369841e77f5009615786624e3929a13ba63fcf9a0e036c20bef9a78e51ba0f1ae398e5cc0f59b7853fb09ec70c37f3474987780078bcb3dcbc478414dd27cb90100042200500100000812001000d00004004000000100000000000a0000400000900c000100020040004000301000800108032000289a0008001000240810240000e0001008000002000806408801000420020080054244081100000c008d22000000680080100020a800044000104028913100000010000428040008110850100000000210004180080000000000200010a1023a010b81430840200444003002000288000203002050000000c20304002000440058020000810490020004400200000120021a0601002120002298000900009204080640001004001a020908400180746160004004001000018028001042000090400620a0c00b00b1001044d0208084013882708401c9c38083295a3f8466b4214799d883010d0c846765746888676f312e32312e36856c696e7578a08fc660e6e07273ebf47108e50749711b9731c5966c717d63269675355ced3a5e880000000000000000844705b15ba0161a5516fc3734644aac35ee2d06575ceec2798d37f9ea2f6be1d6c7510bf0398308000083100000a0a6939f98cbc712052bc2bd8a452136849909aa443c8a2d2da21f7027a968479c",
    "BlockHash": "0x1aff6bd0adeb557e47ae0619283afb91b776d9462d1f591aee018a0caceccd08",
    "BlockNumber": 20480624,
    "BlockTimestamp": 1723081031
}