{
    "RawJsonBlockHeader": "EvmBlockHeaderFromRpc { number: 0x133276f, hash: 0x0761399d81362d138c185989539b8fc085d50b332bff8a640330d5ab6bf5c00b, difficulty: 0x0, extra_data: 0x6265617665726275696c642e6f7267, gas_limit: 0x1c9c380, gas_used: 0xa4d7a0, logs_bloom: 0x2c2d5c5b205943889293126aab152ea7745ff526154dc484785929da1066280ca491f5acc08144a96b021b49140725895221ba018d02fea4a3e9308098ad004350dee41f04208bab7d66c51ed22c013e9cc6d0d50af25ce2e4d44dd3c07458a77dd2078537b3432c210dda8408e02847802b406b10150e38a287c4bf312a1c1f9892d2da09ad970f03e0a324302a1e06447181015140808860f8204c7eb53b3e8e000023503d3b0266fed0daa873948b86d30f81a23151029c0622120800047051002003542b285226768a72db07eca4b47a1a76255009bd47bf6022620839c632712b670e36408398a406c3246aeba6e768d5bde8abadc0852815ee01c73405, miner: 0x95222290dd7278aa3ddd389cc1e1d165cc4bafe5, mix_hash: 0x61c8695cb656e07eb8946decb6b92bdd7bdd7dc7758ad99c30b48b0844bfe1fb, nonce: 0x0000000000000000, parent_hash: 0x27effcf07e6fb79d3e3c45524357a2c30644d4e69e996f1f4489c61c161d522b, receipts_root: 0x8cb4a1e4f4be3f00e008ab85647a290f592bf60236899286c1e05bf2ff1aaf2b, sha3_uncles: 0x1dcc4de8dec75d7aab85b567b6ccd41ad312451b948a7413f0a142fd40d49347, size: 0x117ab, state_root: 0xb0e924f061d33f6594366b4f3f6ccc6ca2f14d12b1c95ec2f25d4938b51a52cf, timestamp: 0x667384d3, total_difficulty: 0xc70d815d562d3cfa955, transactions_root: 0xcfb0003536c01bd9e7102e7bd470814cd9729b22845a2b4f799eba5a0ea62586, base_fee_per_gas: Some(0x12db18b47), withdrawals_root: Some(0xeffc39a322f6f09ac0e8339fb5cbe4676cb2320a5dcbd3a2fed073491126b700), blob_gas_used: Some(0x0), excess_blob_gas: Some(0x40000), parent_beacon_block_root: Some(0x99e3e6ac26539a4cd55b77a32449de66f98f71275831a50d62f98aa250615424) }",
    "RawBlockHeader": "Header { parent_hash: 0x27effcf07e6fb79d3e3c45524357a2c30644d4e69e996f1f4489c61c161d522b, ommers_hash: 0x1dcc4de8dec75d7aab85b567b6ccd41ad312451b948a7413f0a142fd40d49347, beneficiary: 0x95222290dd7278aa3ddd389cc1e1d165cc4bafe5, state_root: 0xb0e924f061d33f6594366b4f3f6ccc6ca2f14d12b1c95ec2f25d4938b51a52cf, transactions_root: 0xcfb0003536c01bd9e7102e7bd470814cd9729b22845a2b4f799eba5a0ea62586, receipts_root: 0x8cb4a1e4f4be3f00e008ab85647a290f592bf60236899286c1e05bf2ff1aaf2b, withdrawals_root: Some(0xeffc39a322f6f09ac0e8339fb5cbe4676cb2320a5dcbd3a2fed073491126b700), logs_bloom: 0x2c2d5c5b205943889293126aab152ea7745ff526154dc484785929da1066280ca491f5acc08144a96b021b49140725895221ba018d02fea4a3e9308098ad004350dee41f04208bab7d66c51ed22c013e9cc6d0d50af25ce2e4d44dd3c07458a77dd2078537b3432c210dda8408e02847802b406b10150e38a287c4bf312a1c1f9892d2da09ad970f03e0a324302a1e06447181015140808860f8204c7eb53b3e8e000023503d3b0266fed0daa873948b86d30f81a23151029c0622120800047051002003542b285226768a72db07eca4b47a1a76255009bd47bf6022620839c632712b670e36408398a406c3246aeba6e768d5bde8abadc0852815ee01c73405, difficulty: 0x0_U256, number: 20129647, gas_limit: 30000000, gas_used: 10803104, timestamp: 1718846675, mix_hash: 0x61c8695cb656e07eb8946decb6b92bdd7bdd7dc7758ad99c30b48b0844bfe1fb, nonce: 0, base_fee_per_gas: Some(5061577543), blob_gas_used: Some(0), excess_blob_gas: Some(262144), parent_beacon_block_root: Some(0x99e3e6ac26539a4cd55b77a32449de66f98f71275831a50d62f98aa250615424), extra_data: 0x6265617665726275696c642e6f7267 }",
    "RlpEncodedBlockHeader": "f90258a027effcf07e6fb79d3e3c45524357a2c30644d4e69e996f1f4489c61c161d522ba01dcc4de8dec75d7aab85b567b6ccd41ad312451b948a7413f0a142fd40d493479495222290dd7278aa3ddd389cc1e1d165cc4bafe5a0b0e924f061d33f6594366b4f3f6ccc6ca2f14d12b1c95ec2f25d4938b51a52cfa0cfb0003536c01bd9e7102e7bd470814cd9729b22845a2b4f799eba5a0ea62586a08cb4a1e4f4be3f00e008ab85647a290f592bf60236899286c1e05bf2ff1aaf2bb901002c2d5c5b205943889293126aab152ea7745ff526154dc484785929da1066280ca491f5acc08144a96b021b49140725895221ba018d02fea4a3e9308098ad004350dee41f04208bab7d66c51ed22c013e9cc6d0d50af25ce2e4d44dd3c07458a77dd2078537b3432c210dda8408e02847802b406b10150e38a287c4bf312a1c1f9892d2da09ad970f03e0a324302a1e06447181015140808860f8204c7eb53b3e8e000023503d3b0266fed0daa873948b86d30f81a23151029c0622120800047051002003542b285226768a72db07eca4b47a1a76255009bd47bf6022620839c632712b670e36408398a406c3246aeba6e768d5bde8abadc0852815ee01c7340580840133276f8401c9c38083a4d7a084667384d38f6265617665726275696c642e6f7267a061c8695cb656e07eb8946decb6b92bdd7bdd7dc7758ad99c30b48b0844bfe1fb88000000000000000085012db18b47a0effc39a322f6f09ac0e8339fb5cbe4676cb2320a5dcbd3a2fed073491126b7008083040000a099e3e6ac26539a4cd55b77a32449de66f98f71275831a50d62f98aa250615424",
    "BlockHash": "0x0761399d81362d138c185989539b8fc085d50b332bff8a640330d5ab6bf5c00b",
    "BlockNumber": 20129647,
    "BlockTimestamp": 1718846675
}