{
    "RawJsonBlockHeader": "EvmBlockHeaderFromRpc { number: 0x133303e, hash: 0x0cd37513c06e453bea618d4abd24f6ee0aca8e71e8f7f3bd162ddd7cf8618eb0, difficulty: 0x0, extra_data: 0x546974616e2028746974616e6275696c6465722e78797a29, gas_limit: 0x1c9c380, gas_used: 0x101b364, logs_bloom: 0x15af5c5a09c0423c87338248cb8e1afedb6fa79c12d96b7f165b6770e7b2ecf349d295ec443dcaee8e22bf859fcb1b0e43778a909fa2aba5b6686b4a99fd6f89a682f709cf0debf8a81441be60fdc0a6a1955b5b425d583b3571a2cf99670482ad79e41282d799f71455f143a2405fe76714bf0b509c04e0b2f46294588a1e9156b5b857311289c4815537b07a6ff622e62c76c54b1b346cc92aa95a60b171e9be96036a9a3360052bf5f2f49983ee89fde28c1a60bd48ae7daa66bfbea16ae41d96b096011bdf42c5682d216e0ce2619eb8744263692b3444965b0b39adf2c479f3e9ca811a757069e457cf02568863bd8df87511eeb5d9819ca920f0a3f48b, miner: 0x4838b106fce9647bdf1e7877bf73ce8b0bad5f97, mix_hash: 0x13072aa46fd16581062062a17b4ce6afb8e082a20528eaddc7bdb8125e155e22, nonce: 0x0000000000000000, parent_hash: 0xef2fd950c5267e8643541f818349b609ac983421127ae9c902b562e68053429e, receipts_root: 0x33895d6709b3ab4d0eb3a79c203e800c01bd49ad863dfa88b7d85567a179855e, sha3_uncles: 0x1dcc4de8dec75d7aab85b567b6ccd41ad312451b948a7413f0a142fd40d49347, size: 0x144b2, state_root: 0x19d3f8c0bb16540bf4ce7622acffad570cecacc298880e9cd859297388fb3362, timestamp: 0x6673ef77, total_difficulty: 0xc70d815d562d3cfa955, transactions_root: 0xbe7be780beb96ef7e623ee7cd05bfbf14d4819b9b2a3cdcebe99137b8415cc78, base_fee_per_gas: Some(0x2611f816c), withdrawals_root: Some(0x172d61d79a57a26b181f3d91d326544a95d4093ecb5f0e0fdedc3dc233eeb40c), blob_gas_used: Some(0xc0000), excess_blob_gas: Some(0x500000), parent_beacon_block_root: Some(0x64f1931d7a7e289c39388dc365a6e030425dd80c0acb30e016b349ad9649abd5) }",
    "RawBlockHeader": "Header { parent_hash: 0xef2fd950c5267e8643541f818349b609ac983421127ae9c902b562e68053429e, ommers_hash: 0x1dcc4de8dec75d7aab85b567b6ccd41ad312451b948a7413f0a142fd40d49347, beneficiary: 0x4838b106fce9647bdf1e7877bf73ce8b0bad5f97, state_root: 0x19d3f8c0bb16540bf4ce7622acffad570cecacc298880e9cd859297388fb3362, transactions_root: 0xbe7be780beb96ef7e623ee7cd05bfbf14d4819b9b2a3cdcebe99137b8415cc78, receipts_root: 0x33895d6709b3ab4d0eb3a79c203e800c01bd49ad863dfa88b7d85567a179855e, withdrawals_root: Some(0x172d61d79a57a26b181f3d91d326544a95d4093ecb5f0e0fdedc3dc233eeb40c), logs_bloom: 0x15af5c5a09c0423c87338248cb8e1afedb6fa79c12d96b7f165b6770e7b2ecf349d295ec443dcaee8e22bf859fcb1b0e43778a909fa2aba5b6686b4a99fd6f89a682f709cf0debf8a81441be60fdc0a6a1955b5b425d583b3571a2cf99670482ad79e41282d799f71455f143a2405fe76714bf0b509c04e0b2f46294588a1e9156b5b857311289c4815537b07a6ff622e62c76c54b1b346cc92aa95a60b171e9be96036a9a3360052bf5f2f49983ee89fde28c1a60bd48ae7daa66bfbea16ae41d96b096011bdf42c5682d216e0ce2619eb8744263692b3444965b0b39adf2c479f3e9ca811a757069e457cf02568863bd8df87511eeb5d9819ca920f0a3f48b, difficulty: 0x0_U256, number: 20131902, gas_limit: 30000000, gas_used: 16888676, timestamp: 1718873975, mix_hash: 0x13072aa46fd16581062062a17b4ce6afb8e082a20528eaddc7bdb8125e155e22, nonce: 0, base_fee_per_gas: Some(10219389292), blob_gas_used: Some(786432), excess_blob_gas: Some(5242880), parent_beacon_block_root: Some(0x64f1931d7a7e289c39388dc365a6e030425dd80c0acb30e016b349ad9649abd5), extra_data: 0x546974616e2028746974616e6275696c6465722e78797a29 }",
    "RlpEncodedBlockHeader": "f90265a0ef2fd950c5267e8643541f818349b609ac983421127ae9c902b562e68053429ea01dcc4de8dec75d7aab85b567b6ccd41ad312451b948a7413f0a142fd40d49347944838b106fce9647bdf1e7877bf73ce8b0bad5f97a019d3f8c0bb16540bf4ce7622acffad570cecacc298880e9cd859297388fb3362a0be7be780beb96ef7e623ee7cd05bfbf14d4819b9b2a3cdcebe99137b8415cc78a033895d6709b3ab4d0eb3a79c203e800c01bd49ad863dfa88b7d85567a179855eb9010015af5c5a09c0423c87338248cb8e1afedb6fa79c12d96b7f165b6770e7b2ecf349d295ec443dcaee8e22bf859fcb1b0e43778a909fa2aba5b6686b4a99fd6f89a682f709cf0debf8a81441be60fdc0a6a1955b5b425d583b3571a2cf99670482ad79e41282d799f71455f143a2405fe76714bf0b509c04e0b2f46294588a1e9156b5b857311289c4815537b07a6ff622e62c76c54b1b346cc92aa95a60b171e9be96036a9a3360052bf5f2f49983ee89fde28c1a60bd48ae7daa66bfbea16ae41d96b096011bdf42c5682d216e0ce2619eb8744263692b3444965b0b39adf2c479f3e9ca811a757069e457cf02568863bd8df87511eeb5d9819ca920f0a3f48b80840133303e8401c9c380840101b364846673ef7798546974616e2028746974616e6275696c6465722e78797a29a013072aa46fd16581062062a17b4ce6afb8e082a20528eaddc7bdb8125e155e228800000000000000008502611f816ca0172d61d79a57a26b181f3d91d326544a95d4093ecb5f0e0fdedc3dc233eeb40c830c000083500000a064f1931d7a7e289c39388dc365a6e030425dd80c0acb30e016b349ad9649abd5",
    "BlockHash": "0x0cd37513c06e453bea618d4abd24f6ee0aca8e71e8f7f3bd162ddd7cf8618eb0",
    "BlockNumber": 20131902,
    "BlockTimestamp": 1718873975
}