{
    "RawJsonBlockHeader": "EvmBlockHeaderFromRpc { number: 0x136355b, hash: 0x66d1abe8d1fab05188e95ec69b6b7220ea55880fefa740b14b299d81fdf599bc, difficulty: 0x0, extra_data: 0x6265617665726275696c642e6f7267, gas_limit: 0x1c9c380, gas_used: 0xa7157d, logs_bloom: 0x99b540669802132c449008f885197a197809ac0901219ef2022960fe8c230da080028c0896e040c44209034816ab1d00160582699e2465a04c39e873e429050264809ca85361402b0a10440da949acf083610203826c080a189416d6c86e70a010c052900ac7002022f9551441242dd501d2845c00819753fa1a1cb411cb14304904ac410022c06c0b69242901b700773c018a0391e0805f25002b4f7010009baee43a0410832057804750c2290589c80687708498d0120804a10da2010020467198908b18921c48013042050351c040a3e609120260009761016146ca11b39984dc61841b11d180bea4a48450a89809062dd48c148084c00098827473021444, miner: 0x95222290dd7278aa3ddd389cc1e1d165cc4bafe5, mix_hash: 0x7522281a864ad2c0aa5ded4ee7715f470a7c1085c7ceb18dbffa9fca88c957b6, nonce: 0x0000000000000000, parent_hash: 0x2cbf0cdbd073bdd1fbcd59ebd515ea598cbd876bd861e731c35da03ca9700cb8, receipts_root: 0xa09dc4293a71ee36b8060031048edba6ab92247106cd35c7491b7c4949c11677, sha3_uncles: 0x1dcc4de8dec75d7aab85b567b6ccd41ad312451b948a7413f0a142fd40d49347, size: 0xa923, state_root: 0x96fc435afb09152655496688d656eb4beceb2bbc929408a506a33bda9ef06ceb, timestamp: 0x66986123, total_difficulty: 0xc70d815d562d3cfa955, transactions_root: 0xe87d88431c9119b3fa1c390cad894805663a3963e99e61f6b699627fde675a67, base_fee_per_gas: Some(0x1137ae7db), withdrawals_root: Some(0x98804f11f6669670a121f9bef4a6fe9ac31f512f68bf19ae3a36a73b516270f2), blob_gas_used: Some(0x0), excess_blob_gas: Some(0x0), parent_beacon_block_root: Some(0xcc5f9aa97a229593a219232172d1d796cdcc7dd75d24250e267a45cda8b29163) }",
    "RawBlockHeader": "Header { parent_hash: 0x2cbf0cdbd073bdd1fbcd59ebd515ea598cbd876bd861e731c35da03ca9700cb8, ommers_hash: 0x1dcc4de8dec75d7aab85b567b6ccd41ad312451b948a7413f0a142fd40d49347, beneficiary: 0x95222290dd7278aa3ddd389cc1e1d165cc4bafe5, state_root: 0x96fc435afb09152655496688d656eb4beceb2bbc929408a506a33bda9ef06ceb, transactions_root: 0xe87d88431c9119b3fa1c390cad894805663a3963e99e61f6b699627fde675a67, receipts_root: 0xa09dc4293a71ee36b8060031048edba6ab92247106cd35c7491b7c4949c11677, withdrawals_root: Some(0x98804f11f6669670a121f9bef4a6fe9ac31f512f68bf19ae3a36a73b516270f2), logs_bloom: 0x99b540669802132c449008f885197a197809ac0901219ef2022960fe8c230da080028c0896e040c44209034816ab1d00160582699e2465a04c39e873e429050264809ca85361402b0a10440da949acf083610203826c080a189416d6c86e70a010c052900ac7002022f9551441242dd501d2845c00819753fa1a1cb411cb14304904ac410022c06c0b69242901b700773c018a0391e0805f25002b4f7010009baee43a0410832057804750c2290589c80687708498d0120804a10da2010020467198908b18921c48013042050351c040a3e609120260009761016146ca11b39984dc61841b11d180bea4a48450a89809062dd48c148084c00098827473021444, difficulty: 0x0_U256, number: 20329819, gas_limit: 30000000, gas_used: 10950013, timestamp: 1721262371, mix_hash: 0x7522281a864ad2c0aa5ded4ee7715f470a7c1085c7ceb18dbffa9fca88c957b6, nonce: 0, base_fee_per_gas: Some(4621789147), blob_gas_used: Some(0), excess_blob_gas: Some(0), parent_beacon_block_root: Some(0xcc5f9aa97a229593a219232172d1d796cdcc7dd75d24250e267a45cda8b29163), extra_data: 0x6265617665726275696c642e6f7267 }",
    "RlpEncodedBlockHeader": "f90255a02cbf0cdbd073bdd1fbcd59ebd515ea598cbd876bd861e731c35da03ca9700cb8a01dcc4de8dec75d7aab85b567b6ccd41ad312451b948a7413f0a142fd40d493479495222290dd7278aa3ddd389cc1e1d165cc4bafe5a096fc435afb09152655496688d656eb4beceb2bbc929408a506a33bda9ef06ceba0e87d88431c9119b3fa1c390cad894805663a3963e99e61f6b699627fde675a67a0a09dc4293a71ee36b8060031048edba6ab92247106cd35c7491b7c4949c11677b9010099b540669802132c449008f885197a197809ac0901219ef2022960fe8c230da080028c0896e040c44209034816ab1d00160582699e2465a04c39e873e429050264809ca85361402b0a10440da949acf083610203826c080a189416d6c86e70a010c052900ac7002022f9551441242dd501d2845c00819753fa1a1cb411cb14304904ac410022c06c0b69242901b700773c018a0391e0805f25002b4f7010009baee43a0410832057804750c2290589c80687708498d0120804a10da2010020467198908b18921c48013042050351c040a3e609120260009761016146ca11b39984dc61841b11d180bea4a48450a89809062dd48c148084c0009882747302144480840136355b8401c9c38083a7157d84669861238f6265617665726275696c642e6f7267a07522281a864ad2c0aa5ded4ee7715f470a7c1085c7ceb18dbffa9fca88c957b68800000000000000008501137ae7dba098804f11f6669670a121f9bef4a6fe9ac31f512f68bf19ae3a36a73b516270f28080a0cc5f9aa97a229593a219232172d1d796cdcc7dd75d24250e267a45cda8b29163",
    "BlockHash": "0x66d1abe8d1fab05188e95ec69b6b7220ea55880fefa740b14b299d81fdf599bc",
    "BlockNumber": 20329819,
    "BlockTimestamp": 1721262371
}