{
    "RawJsonBlockHeader": "EvmBlockHeaderFromRpc { number: 0x13ddbe7, hash: 0x6c010d0303e08dc2abff83f3063fc78a68e9cc1744a02a47ffaf4b1d314b967b, difficulty: 0x0, extra_data: 0x6265617665726275696c642e6f7267, gas_limit: 0x1c9c380, gas_used: 0x105ea3a, logs_bloom: 0x95b5fe23d99105f8aa261bd2dab67de9f94f29400d1d76e48f49e03d06bb83af255dcd00e77916b907d8da3374ab6bd0c3698caec81224f0fb73b282e9ffe5e1ba24850e1299db2b6d22fef9e156d5b88332ba27d37e6db584b0085ed32eede46e95f23f47748c610b7df8d7f1a2fdd06371126d13d5af159ec49d36205b0919cd25a7d25e2f9a087ed9a6f2a7e2494e874bd94195e9e209e11c5574ec339e010ecc6bed03217799427579d59b92dd4a6497293042169696c6350135ac5d21663b9f0b523d1e7cfb7579d8af273bc1a6cffcbddf004a2054758e5722f0f6b85c37d8fe7b8314c47a628e53ec95517e358fadf9084f122be41eca2ae1d5c75ede, miner: 0x95222290dd7278aa3ddd389cc1e1d165cc4bafe5, mix_hash: 0x02604b490967bb1e5e8be11ca0958c0d69fe9c0c2bad6b53c29202c5510e50b6, nonce: 0x0000000000000000, parent_hash: 0x8171024df664257e9d4ae74c8dcec0f1693f26cd6aa1e25cf83b98a1bd9064f3, receipts_root: 0x62cf1244ee3be5be1df7d95048eda20c1e9b9db9dd7641421b175031dd794d4f, sha3_uncles: 0x1dcc4de8dec75d7aab85b567b6ccd41ad312451b948a7413f0a142fd40d49347, size: 0x10342, state_root: 0xec48b1255e8a81e4dad208fab242dd8359383c6acc42584d95f5ec09b72fa3ce, timestamp: 0x66f4aae3, total_difficulty: 0xc70d815d562d3cfa955, transactions_root: 0x9b0d3a113da202bc455a32bae159e67de51fb6cf22a450085e3754e4ea7b9d8c, base_fee_per_gas: Some(0x2f5ffe8fc), withdrawals_root: Some(0x115c341cdcabe9d96a5c41bf5fc328e40d3e6a082fcf30bfb5d301a5051db90a), blob_gas_used: Some(0x0), excess_blob_gas: Some(0x60000), parent_beacon_block_root: Some(0x119022d0d72f979af7bdb8fc1b063ea845987ed4397b29423ce958799b62f28a) }",
    "RawBlockHeader": "Header { parent_hash: 0x8171024df664257e9d4ae74c8dcec0f1693f26cd6aa1e25cf83b98a1bd9064f3, ommers_hash: 0x1dcc4de8dec75d7aab85b567b6ccd41ad312451b948a7413f0a142fd40d49347, beneficiary: 0x95222290dd7278aa3ddd389cc1e1d165cc4bafe5, state_root: 0xec48b1255e8a81e4dad208fab242dd8359383c6acc42584d95f5ec09b72fa3ce, transactions_root: 0x9b0d3a113da202bc455a32bae159e67de51fb6cf22a450085e3754e4ea7b9d8c, receipts_root: 0x62cf1244ee3be5be1df7d95048eda20c1e9b9db9dd7641421b175031dd794d4f, withdrawals_root: Some(0x115c341cdcabe9d96a5c41bf5fc328e40d3e6a082fcf30bfb5d301a5051db90a), logs_bloom: 0x95b5fe23d99105f8aa261bd2dab67de9f94f29400d1d76e48f49e03d06bb83af255dcd00e77916b907d8da3374ab6bd0c3698caec81224f0fb73b282e9ffe5e1ba24850e1299db2b6d22fef9e156d5b88332ba27d37e6db584b0085ed32eede46e95f23f47748c610b7df8d7f1a2fdd06371126d13d5af159ec49d36205b0919cd25a7d25e2f9a087ed9a6f2a7e2494e874bd94195e9e209e11c5574ec339e010ecc6bed03217799427579d59b92dd4a6497293042169696c6350135ac5d21663b9f0b523d1e7cfb7579d8af273bc1a6cffcbddf004a2054758e5722f0f6b85c37d8fe7b8314c47a628e53ec95517e358fadf9084f122be41eca2ae1d5c75ede, difficulty: 0x0_U256, number: 20831207, gas_limit: 30000000, gas_used: 17164858, timestamp: 1727310563, mix_hash: 0x02604b490967bb1e5e8be11ca0958c0d69fe9c0c2bad6b53c29202c5510e50b6, nonce: 0, base_fee_per_gas: Some(12717123836), blob_gas_used: Some(0), excess_blob_gas: Some(393216), parent_beacon_block_root: Some(0x119022d0d72f979af7bdb8fc1b063ea845987ed4397b29423ce958799b62f28a), extra_data: 0x6265617665726275696c642e6f7267 }",
    "RlpEncodedBlockHeader": "f90259a08171024df664257e9d4ae74c8dcec0f1693f26cd6aa1e25cf83b98a1bd9064f3a01dcc4de8dec75d7aab85b567b6ccd41ad312451b948a7413f0a142fd40d493479495222290dd7278aa3ddd389cc1e1d165cc4bafe5a0ec48b1255e8a81e4dad208fab242dd8359383c6acc42584d95f5ec09b72fa3cea09b0d3a113da202bc455a32bae159e67de51fb6cf22a450085e3754e4ea7b9d8ca062cf1244ee3be5be1df7d95048eda20c1e9b9db9dd7641421b175031dd794d4fb9010095b5fe23d99105f8aa261bd2dab67de9f94f29400d1d76e48f49e03d06bb83af255dcd00e77916b907d8da3374ab6bd0c3698caec81224f0fb73b282e9ffe5e1ba24850e1299db2b6d22fef9e156d5b88332ba27d37e6db584b0085ed32eede46e95f23f47748c610b7df8d7f1a2fdd06371126d13d5af159ec49d36205b0919cd25a7d25e2f9a087ed9a6f2a7e2494e874bd94195e9e209e11c5574ec339e010ecc6bed03217799427579d59b92dd4a6497293042169696c6350135ac5d21663b9f0b523d1e7cfb7579d8af273bc1a6cffcbddf004a2054758e5722f0f6b85c37d8fe7b8314c47a628e53ec95517e358fadf9084f122be41eca2ae1d5c75ede8084013ddbe78401c9c380840105ea3a8466f4aae38f6265617665726275696c642e6f7267a002604b490967bb1e5e8be11ca0958c0d69fe9c0c2bad6b53c29202c5510e50b68800000000000000008502f5ffe8fca0115c341cdcabe9d96a5c41bf5fc328e40d3e6a082fcf30bfb5d301a5051db90a8083060000a0119022d0d72f979af7bdb8fc1b063ea845987ed4397b29423ce958799b62f28a",
    "BlockHash": "0x6c010d0303e08dc2abff83f3063fc78a68e9cc1744a02a47ffaf4b1d314b967b",
    "BlockNumber": 20831207,
    "BlockTimestamp": 1727310563
}