{
    "RawJsonBlockHeader": "EvmBlockHeaderFromRpc { number: 0x137bd29, hash: 0x9fd0c2258dd070892dc574c69228849a4e5ab98cd9ab1436a4090cfa64253fb7, difficulty: 0x0, extra_data: 0x7273796e632d6275696c6465722e78797a, gas_limit: 0x1c9c380, gas_used: 0x3acf57, logs_bloom: 0x00200004411010110c02004aa0001004200200880401000402021065046a000010800450080000000408480004000100120201002c49202200842400022000400000118000020a0c4812100a0000802020000631084c01c0201050008006c81814004800002001000048488000001400304040040080043084000098400d2080808810432301000000086200200000140003000501040008840801400018010003020000484060100201108002010848002008002000000004208500000a04040008001300000802100402000d0208061000020084000010400021030040300200502080000402900000100020200080a14b4108000008420208001410840000, miner: 0x1f9090aae28b8a3dceadf281b0f12828e676c326, mix_hash: 0x910ae191f01da98c9b65b3ce2243e6bf4451317f31fcc7f9480f6a130e8b09c0, nonce: 0x0000000000000000, parent_hash: 0xa2ec767affe7e6a52960d7a5e96b4c5a641bc72e468f496eb95f19ebb464b5d4, receipts_root: 0xa0f00ea9147d5412501ec35d0596ee48bdbc25d4f66e3a78109ad808beb543f0, sha3_uncles: 0x1dcc4de8dec75d7aab85b567b6ccd41ad312451b948a7413f0a142fd40d49347, size: 0x34be, state_root: 0x7ee6e46c97cc8357d43ef8491ad32d393659c140d24c568ff1ba68b80728c2e1, timestamp: 0x66aad6fb, total_difficulty: 0xc70d815d562d3cfa955, transactions_root: 0xadede412bcb53f3952bd39a8c3d614e52bb7f86d60200ebd74dfa9973ad8c6bc, base_fee_per_gas: Some(0xcc37bc35), withdrawals_root: Some(0xce90d79e57005c489a31e62c0add9cca4175ba1be663466cfdbe2b654726d38b), blob_gas_used: Some(0x0), excess_blob_gas: Some(0x0), parent_beacon_block_root: Some(0x5051f2d8d5246bc81b184c6a1693cc845b654b7f351fd86ad255a7719ff8604f) }",
    "RawBlockHeader": "Header { parent_hash: 0xa2ec767affe7e6a52960d7a5e96b4c5a641bc72e468f496eb95f19ebb464b5d4, ommers_hash: 0x1dcc4de8dec75d7aab85b567b6ccd41ad312451b948a7413f0a142fd40d49347, beneficiary: 0x1f9090aae28b8a3dceadf281b0f12828e676c326, state_root: 0x7ee6e46c97cc8357d43ef8491ad32d393659c140d24c568ff1ba68b80728c2e1, transactions_root: 0xadede412bcb53f3952bd39a8c3d614e52bb7f86d60200ebd74dfa9973ad8c6bc, receipts_root: 0xa0f00ea9147d5412501ec35d0596ee48bdbc25d4f66e3a78109ad808beb543f0, withdrawals_root: Some(0xce90d79e57005c489a31e62c0add9cca4175ba1be663466cfdbe2b654726d38b), logs_bloom: 0x00200004411010110c02004aa0001004200200880401000402021065046a000010800450080000000408480004000100120201002c49202200842400022000400000118000020a0c4812100a0000802020000631084c01c0201050008006c81814004800002001000048488000001400304040040080043084000098400d2080808810432301000000086200200000140003000501040008840801400018010003020000484060100201108002010848002008002000000004208500000a04040008001300000802100402000d0208061000020084000010400021030040300200502080000402900000100020200080a14b4108000008420208001410840000, difficulty: 0x0_U256, number: 20430121, gas_limit: 30000000, gas_used: 3854167, timestamp: 1722472187, mix_hash: 0x910ae191f01da98c9b65b3ce2243e6bf4451317f31fcc7f9480f6a130e8b09c0, nonce: 0, base_fee_per_gas: Some(3426204725), blob_gas_used: Some(0), excess_blob_gas: Some(0), parent_beacon_block_root: Some(0x5051f2d8d5246bc81b184c6a1693cc845b654b7f351fd86ad255a7719ff8604f), extra_data: 0x7273796e632d6275696c6465722e78797a }",
    "RlpEncodedBlockHeader": "f90256a0a2ec767affe7e6a52960d7a5e96b4c5a641bc72e468f496eb95f19ebb464b5d4a01dcc4de8dec75d7aab85b567b6ccd41ad312451b948a7413f0a142fd40d49347941f9090aae28b8a3dceadf281b0f12828e676c326a07ee6e46c97cc8357d43ef8491ad32d393659c140d24c568ff1ba68b80728c2e1a0adede412bcb53f3952bd39a8c3d614e52bb7f86d60200ebd74dfa9973ad8c6bca0a0f00ea9147d5412501ec35d0596ee48bdbc25d4f66e3a78109ad808beb543f0b9010000200004411010110c02004aa0001004200200880401000402021065046a000010800450080000000408480004000100120201002c49202200842400022000400000118000020a0c4812100a0000802020000631084c01c0201050008006c81814004800002001000048488000001400304040040080043084000098400d2080808810432301000000086200200000140003000501040008840801400018010003020000484060100201108002010848002008002000000004208500000a04040008001300000802100402000d0208061000020084000010400021030040300200502080000402900000100020200080a14b410800000842020800141084000080840137bd298401c9c380833acf578466aad6fb917273796e632d6275696c6465722e78797aa0910ae191f01da98c9b65b3ce2243e6bf4451317f31fcc7f9480f6a130e8b09c088000000000000000084cc37bc35a0ce90d79e57005c489a31e62c0add9cca4175ba1be663466cfdbe2b654726d38b8080a05051f2d8d5246bc81b184c6a1693cc845b654b7f351fd86ad255a7719ff8604f",
    "BlockHash": "0x9fd0c2258dd070892dc574c69228849a4e5ab98cd9ab1436a4090cfa64253fb7",
    "BlockNumber": 20430121,
    "BlockTimestamp": 1722472187
}