{
    "RawJsonBlockHeader": "EvmBlockHeaderFromRpc { number: 0x13d1805, hash: 0x7407353733fcb67e0cca001d942fc3ab2051a58946a03c49c72a8b6dce9206df, difficulty: 0x0, extra_data: 0x546974616e2028746974616e6275696c6465722e78797a29, gas_limit: 0x1c9c380, gas_used: 0x1838373, logs_bloom: 0x633f55e7566de97df6aeabffc398fb179562eb65fe7d7d95aaa958a2e2aba8fa4cff457476315ebdef54b2719c5e0955a7bbeacdabedeabb97dbf4e4d9bbbdecd7f2f988c9e9dbb96e665feaf1c5febafac6d5f5dc6ebca74ebec76edffddca2fe576e3e8a6edf779dced196ab6fefc7fcf26e695fcb7eafd3fcff1edbdff7f7de17367bfde2d9b548eaf35a632eb8de0c09f90bef591dfb7b3c74fb6bb31ebff6a7b1ea3db0f6116b29ddfefaeeed0c34bfc0fe328bd0d84f4ffcb4a801f5fcb39adcfaf77b0fda2742aef3a3ff6e5e6bb72fdff737a7f704f46b0ffddebb961379eddeb35bd523baad678dfd4d4997b78efa75b3f2bcdf8b23f528ff5134cf, miner: 0x4838b106fce9647bdf1e7877bf73ce8b0bad5f97, mix_hash: 0xfe4dc163ef2a96ea5d2be9f3cb68422acde7804b0ccd4e7d1014fe1584b14f83, nonce: 0x0000000000000000, parent_hash: 0xdcd2bef9d49d4a39772908a09aa367f5846019a83de55f5d723e2a7f1d10d6d3, receipts_root: 0x1fd70fd40c36579d15369b34ebdad7bfcbcdbabe96c08c5cd6b8fe30b9b5621d, sha3_uncles: 0x1dcc4de8dec75d7aab85b567b6ccd41ad312451b948a7413f0a142fd40d49347, size: 0x198fb, state_root: 0x710918621899997b4e2fd3a64fc52d01f1bb00eeecf622927b35795ae4a414ab, timestamp: 0x66eb7057, total_difficulty: 0xc70d815d562d3cfa955, transactions_root: 0x46c3f47a055216506b11de2e10efa13731dd9c6ab916e534584b05e53f853d3b, base_fee_per_gas: Some(0x1a97ea262), withdrawals_root: Some(0xb8185e33481ad7a6bf5d95f890517ab46604ace88190b2e4a1c2d375c6dbb6d6), blob_gas_used: Some(0x0), excess_blob_gas: Some(0x60000), parent_beacon_block_root: Some(0xffc900763b33d2dcdc8f1d2cc028be3cec34d8c0f935c1117e8be621e7688d2b) }",
    "RawBlockHeader": "Header { parent_hash: 0xdcd2bef9d49d4a39772908a09aa367f5846019a83de55f5d723e2a7f1d10d6d3, ommers_hash: 0x1dcc4de8dec75d7aab85b567b6ccd41ad312451b948a7413f0a142fd40d49347, beneficiary: 0x4838b106fce9647bdf1e7877bf73ce8b0bad5f97, state_root: 0x710918621899997b4e2fd3a64fc52d01f1bb00eeecf622927b35795ae4a414ab, transactions_root: 0x46c3f47a055216506b11de2e10efa13731dd9c6ab916e534584b05e53f853d3b, receipts_root: 0x1fd70fd40c36579d15369b34ebdad7bfcbcdbabe96c08c5cd6b8fe30b9b5621d, withdrawals_root: Some(0xb8185e33481ad7a6bf5d95f890517ab46604ace88190b2e4a1c2d375c6dbb6d6), logs_bloom: 0x633f55e7566de97df6aeabffc398fb179562eb65fe7d7d95aaa958a2e2aba8fa4cff457476315ebdef54b2719c5e0955a7bbeacdabedeabb97dbf4e4d9bbbdecd7f2f988c9e9dbb96e665feaf1c5febafac6d5f5dc6ebca74ebec76edffddca2fe576e3e8a6edf779dced196ab6fefc7fcf26e695fcb7eafd3fcff1edbdff7f7de17367bfde2d9b548eaf35a632eb8de0c09f90bef591dfb7b3c74fb6bb31ebff6a7b1ea3db0f6116b29ddfefaeeed0c34bfc0fe328bd0d84f4ffcb4a801f5fcb39adcfaf77b0fda2742aef3a3ff6e5e6bb72fdff737a7f704f46b0ffddebb961379eddeb35bd523baad678dfd4d4997b78efa75b3f2bcdf8b23f528ff5134cf, difficulty: 0x0_U256, number: 20781061, gas_limit: 30000000, gas_used: 25396083, timestamp: 1726705751, mix_hash: 0xfe4dc163ef2a96ea5d2be9f3cb68422acde7804b0ccd4e7d1014fe1584b14f83, nonce: 0, base_fee_per_gas: Some(7138615906), blob_gas_used: Some(0), excess_blob_gas: Some(393216), parent_beacon_block_root: Some(0xffc900763b33d2dcdc8f1d2cc028be3cec34d8c0f935c1117e8be621e7688d2b), extra_data: 0x546974616e2028746974616e6275696c6465722e78797a29 }",
    "RlpEncodedBlockHeader": "f90262a0dcd2bef9d49d4a39772908a09aa367f5846019a83de55f5d723e2a7f1d10d6d3a01dcc4de8dec75d7aab85b567b6ccd41ad312451b948a7413f0a142fd40d49347944838b106fce9647bdf1e7877bf73ce8b0bad5f97a0710918621899997b4e2fd3a64fc52d01f1bb00eeecf622927b35795ae4a414aba046c3f47a055216506b11de2e10efa13731dd9c6ab916e534584b05e53f853d3ba01fd70fd40c36579d15369b34ebdad7bfcbcdbabe96c08c5cd6b8fe30b9b5621db90100633f55e7566de97df6aeabffc398fb179562eb65fe7d7d95aaa958a2e2aba8fa4cff457476315ebdef54b2719c5e0955a7bbeacdabedeabb97dbf4e4d9bbbdecd7f2f988c9e9dbb96e665feaf1c5febafac6d5f5dc6ebca74ebec76edffddca2fe576e3e8a6edf779dced196ab6fefc7fcf26e695fcb7eafd3fcff1edbdff7f7de17367bfde2d9b548eaf35a632eb8de0c09f90bef591dfb7b3c74fb6bb31ebff6a7b1ea3db0f6116b29ddfefaeeed0c34bfc0fe328bd0d84f4ffcb4a801f5fcb39adcfaf77b0fda2742aef3a3ff6e5e6bb72fdff737a7f704f46b0ffddebb961379eddeb35bd523baad678dfd4d4997b78efa75b3f2bcdf8b23f528ff5134cf8084013d18058401c9c38084018383738466eb705798546974616e2028746974616e6275696c6465722e78797a29a0fe4dc163ef2a96ea5d2be9f3cb68422acde7804b0ccd4e7d1014fe1584b14f838800000000000000008501a97ea262a0b8185e33481ad7a6bf5d95f890517ab46604ace88190b2e4a1c2d375c6dbb6d68083060000a0ffc900763b33d2dcdc8f1d2cc028be3cec34d8c0f935c1117e8be621e7688d2b",
    "BlockHash": "0x7407353733fcb67e0cca001d942fc3ab2051a58946a03c49c72a8b6dce9206df",
    "BlockNumber": 20781061,
    "BlockTimestamp": 1726705751
}