{
    "RawJsonBlockHeader": "EvmBlockHeaderFromRpc { number: 0x12d097c, hash: 0x603a40ffd9d8d8b4edc450f86786aa84ed93ea0a9504b69ae379eea86a61a1ce, difficulty: 0x0, extra_data: 0x546974616e2028746974616e6275696c6465722e78797a29, gas_limit: 0x1c9c380, gas_used: 0x1a5d20b, logs_bloom: 0x073fbf3ff7ab9bbffafbddfddfbbe7ed5f5fbb77c5513ba39789b9473bf3b737dcd724bdf29573357ffdf5ea95f7d3b3ee29ea20bfb9f2ede67b2827bdfff26963d7953e5ff24befede1f93fe7ebeeaefa8f7bab45e49cdb7de0437cfff7fd51ebcfcffb9b7ed0de275fd7ff5a7deff7a3afeffbb777feffe3765f36670fef25dfffbffefb36cbed915fb6772f7ffed37793f7bfff30e5fdeca27dfa76b77cfbdeeb1f7d1abb6fd6cfbff9fdaeefefef7446eff04a24be6b9edfa7f72f92f375d3fa5e9edc934d74b7eacbbfc7bdd78f71ef5ff755ab3d75d33f5173cfb0edec78fcfefa6df7defeead6feefa7fdab05ff7bf2129bfee9f17dac4f3a7815f6df, miner: 0x4838b106fce9647bdf1e7877bf73ce8b0bad5f97, mix_hash: 0xf08e0e6c10ed8c8c3d7f30a44ea4f1c38c28cc24681308735ac43b8c76f14975, nonce: 0x0000000000000000, parent_hash: 0xeb8d3b613624cda18e15d6f133d33dd5397cad46a28e6e474b4d5394feb7b340, receipts_root: 0x38f1351e37050f4b1a540a3ada49b417f522925db7a997bf8d26109102b9d48a, sha3_uncles: 0x1dcc4de8dec75d7aab85b567b6ccd41ad312451b948a7413f0a142fd40d49347, size: 0x48053, state_root: 0xc1e6f14e1693d86d49e441f19cdc36b71c03d479d4e55007214ca5a811192792, timestamp: 0x6629a1bb, total_difficulty: 0xc70d815d562d3cfa955, transactions_root: 0xc2261267a968e09f9ee9ab3967ffd169d6e3ea0efe737858ea8592c545938acd, base_fee_per_gas: Some(0x2057a92d8), withdrawals_root: Some(0x5d4cc2bb6486dd671bc023f035cab0787c2639f998386344ae0be16a15448078), blob_gas_used: Some(0x0), excess_blob_gas: Some(0x0), parent_beacon_block_root: Some(0x1ec750f07d36071bebcd958fbfc63ee97f0488276c4ef9d2270354ef49bc9c4b) }",
    "RawBlockHeader": "Header { parent_hash: 0xeb8d3b613624cda18e15d6f133d33dd5397cad46a28e6e474b4d5394feb7b340, ommers_hash: 0x1dcc4de8dec75d7aab85b567b6ccd41ad312451b948a7413f0a142fd40d49347, beneficiary: 0x4838b106fce9647bdf1e7877bf73ce8b0bad5f97, state_root: 0xc1e6f14e1693d86d49e441f19cdc36b71c03d479d4e55007214ca5a811192792, transactions_root: 0xc2261267a968e09f9ee9ab3967ffd169d6e3ea0efe737858ea8592c545938acd, receipts_root: 0x38f1351e37050f4b1a540a3ada49b417f522925db7a997bf8d26109102b9d48a, withdrawals_root: Some(0x5d4cc2bb6486dd671bc023f035cab0787c2639f998386344ae0be16a15448078), logs_bloom: 0x073fbf3ff7ab9bbffafbddfddfbbe7ed5f5fbb77c5513ba39789b9473bf3b737dcd724bdf29573357ffdf5ea95f7d3b3ee29ea20bfb9f2ede67b2827bdfff26963d7953e5ff24befede1f93fe7ebeeaefa8f7bab45e49cdb7de0437cfff7fd51ebcfcffb9b7ed0de275fd7ff5a7deff7a3afeffbb777feffe3765f36670fef25dfffbffefb36cbed915fb6772f7ffed37793f7bfff30e5fdeca27dfa76b77cfbdeeb1f7d1abb6fd6cfbff9fdaeefefef7446eff04a24be6b9edfa7f72f92f375d3fa5e9edc934d74b7eacbbfc7bdd78f71ef5ff755ab3d75d33f5173cfb0edec78fcfefa6df7defeead6feefa7fdab05ff7bf2129bfee9f17dac4f3a7815f6df, difficulty: 0x0_U256, number: 19728764, gas_limit: 30000000, gas_used: 27644427, timestamp: 1714004411, mix_hash: 0xf08e0e6c10ed8c8c3d7f30a44ea4f1c38c28cc24681308735ac43b8c76f14975, nonce: 0, base_fee_per_gas: Some(8681853656), blob_gas_used: Some(0), excess_blob_gas: Some(0), parent_beacon_block_root: Some(0x1ec750f07d36071bebcd958fbfc63ee97f0488276c4ef9d2270354ef49bc9c4b), extra_data: 0x546974616e2028746974616e6275696c6465722e78797a29 }",
    "RlpEncodedBlockHeader": "f9025fa0eb8d3b613624cda18e15d6f133d33dd5397cad46a28e6e474b4d5394feb7b340a01dcc4de8dec75d7aab85b567b6ccd41ad312451b948a7413f0a142fd40d49347944838b106fce9647bdf1e7877bf73ce8b0bad5f97a0c1e6f14e1693d86d49e441f19cdc36b71c03d479d4e55007214ca5a811192792a0c2261267a968e09f9ee9ab3967ffd169d6e3ea0efe737858ea8592c545938acda038f1351e37050f4b1a540a3ada49b417f522925db7a997bf8d26109102b9d48ab90100073fbf3ff7ab9bbffafbddfddfbbe7ed5f5fbb77c5513ba39789b9473bf3b737dcd724bdf29573357ffdf5ea95f7d3b3ee29ea20bfb9f2ede67b2827bdfff26963d7953e5ff24befede1f93fe7ebeeaefa8f7bab45e49cdb7de0437cfff7fd51ebcfcffb9b7ed0de275fd7ff5a7deff7a3afeffbb777feffe3765f36670fef25dfffbffefb36cbed915fb6772f7ffed37793f7bfff30e5fdeca27dfa76b77cfbdeeb1f7d1abb6fd6cfbff9fdaeefefef7446eff04a24be6b9edfa7f72f92f375d3fa5e9edc934d74b7eacbbfc7bdd78f71ef5ff755ab3d75d33f5173cfb0edec78fcfefa6df7defeead6feefa7fdab05ff7bf2129bfee9f17dac4f3a7815f6df8084012d097c8401c9c3808401a5d20b846629a1bb98546974616e2028746974616e6275696c6465722e78797a29a0f08e0e6c10ed8c8c3d7f30a44ea4f1c38c28cc24681308735ac43b8c76f149758800000000000000008502057a92d8a05d4cc2bb6486dd671bc023f035cab0787c2639f998386344ae0be16a154480788080a01ec750f07d36071bebcd958fbfc63ee97f0488276c4ef9d2270354ef49bc9c4b",
    "BlockHash": "0x603a40ffd9d8d8b4edc450f86786aa84ed93ea0a9504b69ae379eea86a61a1ce",
    "BlockNumber": 19728764,
    "BlockTimestamp": 1714004411
}