{
    "RawJsonBlockHeader": "EvmBlockHeaderFromRpc { number: 0x12f568f, hash: 0x5714266877bcf8d59694964f0ef82553416bdabf038a9cad4a93d68ca1edbd73, difficulty: 0x0, extra_data: 0x546974616e2028746974616e6275696c6465722e78797a29, gas_limit: 0x1c9c380, gas_used: 0x124a3c7, logs_bloom: 0xd7a2112e57729b15f838eba3ce977339f7c8c0b2451f560c428d85dd6f720f7d66df8ead50cb8de8ea569ba08c52f7bf868189440be8b4f53f9f3e26b8a20d20da471d2d710b83dbe864d1791c2cf23e7b95451120f45c6aa5077f2b81eed49178ccdb430be70c8e2658dcca3f057f9be3595a63dbcc3614d3acff1e5c89a3e6023a14b4631fb75d54eb23deb7879177d427a6e9e97fe57d4b9e146f67193a550faea078f889bb96eade77dee27bbb9d826dbf13656abd6b2dfb883759891070fa9eb8c63588dc4b4a66dad1c39e7cb62642bb3abc6638153f16df9341e27b82f01ebf4b8b1d0175f27f57eb0511fc952dcd7a334b81a1fff999b9c7f6e16c92, miner: 0x4838b106fce9647bdf1e7877bf73ce8b0bad5f97, mix_hash: 0xf0dc466ba34b0afbc88bda941ce7dfb86f1141ba73fbfaf7510acc33ca6ccaa0, nonce: 0x0000000000000000, parent_hash: 0x5b42ffe21f23292962a49c97e88695a1e28ad234ceababd4f750e667df445412, receipts_root: 0xfd33f5261d80815e8e68200be10abe7e991a34be203716cbf797a99be463b124, sha3_uncles: 0x1dcc4de8dec75d7aab85b567b6ccd41ad312451b948a7413f0a142fd40d49347, size: 0x15d81, state_root: 0xbe8a13b78fec3ddc3f91cf919dee8a672d30b387327b19e96b2778f17a11d5a4, timestamp: 0x66456fb3, total_difficulty: 0xc70d815d562d3cfa955, transactions_root: 0xdfc943ab7d33c7f84f7e20917c04b0bf1117eca645c9e83ef99a1aef94b15de9, base_fee_per_gas: Some(0x1151f1184), withdrawals_root: Some(0x479dc79ccbac0a966cb657bce308e39b090bb4dcd9c4eeb7fda225e2bd002f12), blob_gas_used: Some(0x0), excess_blob_gas: Some(0x0), parent_beacon_block_root: Some(0x8d4b327dfd0be643c8d6a45ece848b6357bb89739151919fcde2407980dee57d) }",
    "RawBlockHeader": "Header { parent_hash: 0x5b42ffe21f23292962a49c97e88695a1e28ad234ceababd4f750e667df445412, ommers_hash: 0x1dcc4de8dec75d7aab85b567b6ccd41ad312451b948a7413f0a142fd40d49347, beneficiary: 0x4838b106fce9647bdf1e7877bf73ce8b0bad5f97, state_root: 0xbe8a13b78fec3ddc3f91cf919dee8a672d30b387327b19e96b2778f17a11d5a4, transactions_root: 0xdfc943ab7d33c7f84f7e20917c04b0bf1117eca645c9e83ef99a1aef94b15de9, receipts_root: 0xfd33f5261d80815e8e68200be10abe7e991a34be203716cbf797a99be463b124, withdrawals_root: Some(0x479dc79ccbac0a966cb657bce308e39b090bb4dcd9c4eeb7fda225e2bd002f12), logs_bloom: 0xd7a2112e57729b15f838eba3ce977339f7c8c0b2451f560c428d85dd6f720f7d66df8ead50cb8de8ea569ba08c52f7bf868189440be8b4f53f9f3e26b8a20d20da471d2d710b83dbe864d1791c2cf23e7b95451120f45c6aa5077f2b81eed49178ccdb430be70c8e2658dcca3f057f9be3595a63dbcc3614d3acff1e5c89a3e6023a14b4631fb75d54eb23deb7879177d427a6e9e97fe57d4b9e146f67193a550faea078f889bb96eade77dee27bbb9d826dbf13656abd6b2dfb883759891070fa9eb8c63588dc4b4a66dad1c39e7cb62642bb3abc6638153f16df9341e27b82f01ebf4b8b1d0175f27f57eb0511fc952dcd7a334b81a1fff999b9c7f6e16c92, difficulty: 0x0_U256, number: 19879567, gas_limit: 30000000, gas_used: 19178439, timestamp: 1715826611, mix_hash: 0xf0dc466ba34b0afbc88bda941ce7dfb86f1141ba73fbfaf7510acc33ca6ccaa0, nonce: 0, base_fee_per_gas: Some(4649324932), blob_gas_used: Some(0), excess_blob_gas: Some(0), parent_beacon_block_root: Some(0x8d4b327dfd0be643c8d6a45ece848b6357bb89739151919fcde2407980dee57d), extra_data: 0x546974616e2028746974616e6275696c6465722e78797a29 }",
    "RlpEncodedBlockHeader": "f9025fa05b42ffe21f23292962a49c97e88695a1e28ad234ceababd4f750e667df445412a01dcc4de8dec75d7aab85b567b6ccd41ad312451b948a7413f0a142fd40d49347944838b106fce9647bdf1e7877bf73ce8b0bad5f97a0be8a13b78fec3ddc3f91cf919dee8a672d30b387327b19e96b2778f17a11d5a4a0dfc943ab7d33c7f84f7e20917c04b0bf1117eca645c9e83ef99a1aef94b15de9a0fd33f5261d80815e8e68200be10abe7e991a34be203716cbf797a99be463b124b90100d7a2112e57729b15f838eba3ce977339f7c8c0b2451f560c428d85dd6f720f7d66df8ead50cb8de8ea569ba08c52f7bf868189440be8b4f53f9f3e26b8a20d20da471d2d710b83dbe864d1791c2cf23e7b95451120f45c6aa5077f2b81eed49178ccdb430be70c8e2658dcca3f057f9be3595a63dbcc3614d3acff1e5c89a3e6023a14b4631fb75d54eb23deb7879177d427a6e9e97fe57d4b9e146f67193a550faea078f889bb96eade77dee27bbb9d826dbf13656abd6b2dfb883759891070fa9eb8c63588dc4b4a66dad1c39e7cb62642bb3abc6638153f16df9341e27b82f01ebf4b8b1d0175f27f57eb0511fc952dcd7a334b81a1fff999b9c7f6e16c928084012f568f8401c9c380840124a3c78466456fb398546974616e2028746974616e6275696c6465722e78797a29a0f0dc466ba34b0afbc88bda941ce7dfb86f1141ba73fbfaf7510acc33ca6ccaa08800000000000000008501151f1184a0479dc79ccbac0a966cb657bce308e39b090bb4dcd9c4eeb7fda225e2bd002f128080a08d4b327dfd0be643c8d6a45ece848b6357bb89739151919fcde2407980dee57d",
    "BlockHash": "0x5714266877bcf8d59694964f0ef82553416bdabf038a9cad4a93d68ca1edbd73",
    "BlockNumber": 19879567,
    "BlockTimestamp": 1715826611
}