{
    "RawJsonBlockHeader": "EvmBlockHeaderFromRpc { number: 0x12e9313, hash: 0xaeab04b54c065b1ac88db407de02a6b53255a4b671c5d9da7781fd7dc7468940, difficulty: 0x0, extra_data: 0x546974616e2028746974616e6275696c6465722e78797a29, gas_limit: 0x1c9c380, gas_used: 0x191f7e9, logs_bloom: 0xe1f787253dbb299a9aa83ea2ba14cf70372b5f9240492b342fdff07071ad9ba2f5a87e95803026efa736e22dcfb7c7356e25e03ab9da71652683b38981fff948f5562cdfd66cef1f6ae7ea4a82e4e23826af343fd7545f4cf877c967de21181952dfc168b33a9fa711ccd8c073656d17cb494f7998048f648ec43595c80b285911229fecbafc9c0cc14ddf7b3e48ff822507e76d7b29ecebacb74ac4e7b13ae38f663b0418326ea66ef747d6afafe6f8e6c7ce318ca8f90f1df9c45f1aefd9fabbe43872d4f7cc7a53061ebd4733f9dd663bc69ec44898d5014ee19e1af9f8b273d0ae6901463538edae9099ed16e00bcc29f3591bfa78428918cc03423c658e, miner: 0x4838b106fce9647bdf1e7877bf73ce8b0bad5f97, mix_hash: 0x413d4c710925dde5beb9c87f3ce0b451fc3ba5df0233a1a4f3f3d24e93697f1d, nonce: 0x0000000000000000, parent_hash: 0x1b06f9516634621a0572738e67084f1aab6ae9b0729c5d9154db0f1e0859c195, receipts_root: 0x850cbf87528416afd181e8b856dace063a4f09497daa9ca8163f6dd0288f88ba, sha3_uncles: 0x1dcc4de8dec75d7aab85b567b6ccd41ad312451b948a7413f0a142fd40d49347, size: 0x4bae6, state_root: 0x35919a6606abbbd1809c7b0a2fe63d0264f2ee28e3466f5f48e8685448679915, timestamp: 0x663c357b, total_difficulty: 0xc70d815d562d3cfa955, transactions_root: 0x133dbfac8e0b822620bbe0de5e2d505e930886c02c36f7293514bc771d3407a8, base_fee_per_gas: Some(0xdd2cb0e7), withdrawals_root: Some(0x8e6c22097207e0983caf5d8ee91261ea51bb76de6f09075bb3f3d0093caa3496), blob_gas_used: Some(0x20000), excess_blob_gas: Some(0x0), parent_beacon_block_root: Some(0xa4bd4a24736f8d4305f8c3887bdb0b8c5782512f5c477911f88a40bb3e10560b) }",
    "RawBlockHeader": "Header { parent_hash: 0x1b06f9516634621a0572738e67084f1aab6ae9b0729c5d9154db0f1e0859c195, ommers_hash: 0x1dcc4de8dec75d7aab85b567b6ccd41ad312451b948a7413f0a142fd40d49347, beneficiary: 0x4838b106fce9647bdf1e7877bf73ce8b0bad5f97, state_root: 0x35919a6606abbbd1809c7b0a2fe63d0264f2ee28e3466f5f48e8685448679915, transactions_root: 0x133dbfac8e0b822620bbe0de5e2d505e930886c02c36f7293514bc771d3407a8, receipts_root: 0x850cbf87528416afd181e8b856dace063a4f09497daa9ca8163f6dd0288f88ba, withdrawals_root: Some(0x8e6c22097207e0983caf5d8ee91261ea51bb76de6f09075bb3f3d0093caa3496), logs_bloom: 0xe1f787253dbb299a9aa83ea2ba14cf70372b5f9240492b342fdff07071ad9ba2f5a87e95803026efa736e22dcfb7c7356e25e03ab9da71652683b38981fff948f5562cdfd66cef1f6ae7ea4a82e4e23826af343fd7545f4cf877c967de21181952dfc168b33a9fa711ccd8c073656d17cb494f7998048f648ec43595c80b285911229fecbafc9c0cc14ddf7b3e48ff822507e76d7b29ecebacb74ac4e7b13ae38f663b0418326ea66ef747d6afafe6f8e6c7ce318ca8f90f1df9c45f1aefd9fabbe43872d4f7cc7a53061ebd4733f9dd663bc69ec44898d5014ee19e1af9f8b273d0ae6901463538edae9099ed16e00bcc29f3591bfa78428918cc03423c658e, difficulty: 0x0_U256, number: 19829523, gas_limit: 30000000, gas_used: 26343401, timestamp: 1715221883, mix_hash: 0x413d4c710925dde5beb9c87f3ce0b451fc3ba5df0233a1a4f3f3d24e93697f1d, nonce: 0, base_fee_per_gas: Some(3710693607), blob_gas_used: Some(131072), excess_blob_gas: Some(0), parent_beacon_block_root: Some(0xa4bd4a24736f8d4305f8c3887bdb0b8c5782512f5c477911f88a40bb3e10560b), extra_data: 0x546974616e2028746974616e6275696c6465722e78797a29 }",
    "RlpEncodedBlockHeader": "f90261a01b06f9516634621a0572738e67084f1aab6ae9b0729c5d9154db0f1e0859c195a01dcc4de8dec75d7aab85b567b6ccd41ad312451b948a7413f0a142fd40d49347944838b106fce9647bdf1e7877bf73ce8b0bad5f97a035919a6606abbbd1809c7b0a2fe63d0264f2ee28e3466f5f48e8685448679915a0133dbfac8e0b822620bbe0de5e2d505e930886c02c36f7293514bc771d3407a8a0850cbf87528416afd181e8b856dace063a4f09497daa9ca8163f6dd0288f88bab90100e1f787253dbb299a9aa83ea2ba14cf70372b5f9240492b342fdff07071ad9ba2f5a87e95803026efa736e22dcfb7c7356e25e03ab9da71652683b38981fff948f5562cdfd66cef1f6ae7ea4a82e4e23826af343fd7545f4cf877c967de21181952dfc168b33a9fa711ccd8c073656d17cb494f7998048f648ec43595c80b285911229fecbafc9c0cc14ddf7b3e48ff822507e76d7b29ecebacb74ac4e7b13ae38f663b0418326ea66ef747d6afafe6f8e6c7ce318ca8f90f1df9c45f1aefd9fabbe43872d4f7cc7a53061ebd4733f9dd663bc69ec44898d5014ee19e1af9f8b273d0ae6901463538edae9099ed16e00bcc29f3591bfa78428918cc03423c658e8084012e93138401c9c380840191f7e984663c357b98546974616e2028746974616e6275696c6465722e78797a29a0413d4c710925dde5beb9c87f3ce0b451fc3ba5df0233a1a4f3f3d24e93697f1d88000000000000000084dd2cb0e7a08e6c22097207e0983caf5d8ee91261ea51bb76de6f09075bb3f3d0093caa34968302000080a0a4bd4a24736f8d4305f8c3887bdb0b8c5782512f5c477911f88a40bb3e10560b",
    "BlockHash": "0xaeab04b54c065b1ac88db407de02a6b53255a4b671c5d9da7781fd7dc7468940",
    "BlockNumber": 19829523,
    "BlockTimestamp": 1715221883
}