{
    "RawJsonBlockHeader": "EvmBlockHeaderFromRpc { number: 0x1301a0f, hash: 0x15ddea1139f3955f9532b4b8178f4bbecfcb5bdfafa8ac2136f299a495b61fd4, difficulty: 0x0, extra_data: 0x546974616e2028746974616e6275696c6465722e78797a29, gas_limit: 0x1c9c380, gas_used: 0x128d03f, logs_bloom: 0x17a75706612a7f67d21d81c3b7b11ee311c783456b5b659066c9e10be67704f4deee856db1ca93bd50f53d53f02fd58f6bab0278eb43b52e37e9bb6a9dbfb8606ba7b5cadb3eafaa6d8ddbeec5de87acae4d46778954dc11bdce79f1c6acb197535df9c1f2f20ea7108ed6ad4e327ddefabfa5f15a04f779fb2de5fe402aad8997bc5a6a7734c38c50ddae4f03ba4c7c242dcb41cb2c83ad256b0ec6bdb15b2edbde066ad935ac407aaf73c89893fce836c0f91660ba18aae5a7f5631bc90b2f75b42813524bfa75698c7a14ca2e9c9824edb367602c28d119aa766b10fdfd6797f0eee9453e17124acd7b82f447409a937b7351dffeaccb400b69d1f2e7cfcb, miner: 0x4838b106fce9647bdf1e7877bf73ce8b0bad5f97, mix_hash: 0x08b53f174f3a1129d1f316b2ed49876e79b12ecd1fd874b140608ff89686b137, nonce: 0x0000000000000000, parent_hash: 0x6bccf1011ab135aeb10715b9094a654d22f844757a1d3a1b9ddb14c5dfabab1c, receipts_root: 0xe9b5918a2adb33c36df9f237d289a869c935ab960bd4308f4389ed4c338030fb, sha3_uncles: 0x1dcc4de8dec75d7aab85b567b6ccd41ad312451b948a7413f0a142fd40d49347, size: 0x15ccd, state_root: 0xf694a8ec941b221ae28cd495f6c608308cf7f88f089801ab00a26294fa4d3b36, timestamp: 0x664eaa6f, total_difficulty: 0xc70d815d562d3cfa955, transactions_root: 0xa563544d7925870c9840db4a28699520f6cd71eab5c0bc1a1c2f47ad06a57db4, base_fee_per_gas: Some(0x15da0c975), withdrawals_root: Some(0x56e9352f1bb1ef7392e28515769d885f142b75f15b350f4f909b255dee6223d8), blob_gas_used: Some(0x0), excess_blob_gas: Some(0x60000), parent_beacon_block_root: Some(0xe77d911479f403477fd9a572dafe067ca07481f520f6c51347aba2786e1f4583) }",
    "RawBlockHeader": "Header { parent_hash: 0x6bccf1011ab135aeb10715b9094a654d22f844757a1d3a1b9ddb14c5dfabab1c, ommers_hash: 0x1dcc4de8dec75d7aab85b567b6ccd41ad312451b948a7413f0a142fd40d49347, beneficiary: 0x4838b106fce9647bdf1e7877bf73ce8b0bad5f97, state_root: 0xf694a8ec941b221ae28cd495f6c608308cf7f88f089801ab00a26294fa4d3b36, transactions_root: 0xa563544d7925870c9840db4a28699520f6cd71eab5c0bc1a1c2f47ad06a57db4, receipts_root: 0xe9b5918a2adb33c36df9f237d289a869c935ab960bd4308f4389ed4c338030fb, withdrawals_root: Some(0x56e9352f1bb1ef7392e28515769d885f142b75f15b350f4f909b255dee6223d8), logs_bloom: 0x17a75706612a7f67d21d81c3b7b11ee311c783456b5b659066c9e10be67704f4deee856db1ca93bd50f53d53f02fd58f6bab0278eb43b52e37e9bb6a9dbfb8606ba7b5cadb3eafaa6d8ddbeec5de87acae4d46778954dc11bdce79f1c6acb197535df9c1f2f20ea7108ed6ad4e327ddefabfa5f15a04f779fb2de5fe402aad8997bc5a6a7734c38c50ddae4f03ba4c7c242dcb41cb2c83ad256b0ec6bdb15b2edbde066ad935ac407aaf73c89893fce836c0f91660ba18aae5a7f5631bc90b2f75b42813524bfa75698c7a14ca2e9c9824edb367602c28d119aa766b10fdfd6797f0eee9453e17124acd7b82f447409a937b7351dffeaccb400b69d1f2e7cfcb, difficulty: 0x0_U256, number: 19929615, gas_limit: 30000000, gas_used: 19451967, timestamp: 1716431471, mix_hash: 0x08b53f174f3a1129d1f316b2ed49876e79b12ecd1fd874b140608ff89686b137, nonce: 0, base_fee_per_gas: Some(5865785717), blob_gas_used: Some(0), excess_blob_gas: Some(393216), parent_beacon_block_root: Some(0xe77d911479f403477fd9a572dafe067ca07481f520f6c51347aba2786e1f4583), extra_data: 0x546974616e2028746974616e6275696c6465722e78797a29 }",
    "RlpEncodedBlockHeader": "f90262a06bccf1011ab135aeb10715b9094a654d22f844757a1d3a1b9ddb14c5dfabab1ca01dcc4de8dec75d7aab85b567b6ccd41ad312451b948a7413f0a142fd40d49347944838b106fce9647bdf1e7877bf73ce8b0bad5f97a0f694a8ec941b221ae28cd495f6c608308cf7f88f089801ab00a26294fa4d3b36a0a563544d7925870c9840db4a28699520f6cd71eab5c0bc1a1c2f47ad06a57db4a0e9b5918a2adb33c36df9f237d289a869c935ab960bd4308f4389ed4c338030fbb9010017a75706612a7f67d21d81c3b7b11ee311c783456b5b659066c9e10be67704f4deee856db1ca93bd50f53d53f02fd58f6bab0278eb43b52e37e9bb6a9dbfb8606ba7b5cadb3eafaa6d8ddbeec5de87acae4d46778954dc11bdce79f1c6acb197535df9c1f2f20ea7108ed6ad4e327ddefabfa5f15a04f779fb2de5fe402aad8997bc5a6a7734c38c50ddae4f03ba4c7c242dcb41cb2c83ad256b0ec6bdb15b2edbde066ad935ac407aaf73c89893fce836c0f91660ba18aae5a7f5631bc90b2f75b42813524bfa75698c7a14ca2e9c9824edb367602c28d119aa766b10fdfd6797f0eee9453e17124acd7b82f447409a937b7351dffeaccb400b69d1f2e7cfcb808401301a0f8401c9c380840128d03f84664eaa6f98546974616e2028746974616e6275696c6465722e78797a29a008b53f174f3a1129d1f316b2ed49876e79b12ecd1fd874b140608ff89686b13788000000000000000085015da0c975a056e9352f1bb1ef7392e28515769d885f142b75f15b350f4f909b255dee6223d88083060000a0e77d911479f403477fd9a572dafe067ca07481f520f6c51347aba2786e1f4583",
    "BlockHash": "0x15ddea1139f3955f9532b4b8178f4bbecfcb5bdfafa8ac2136f299a495b61fd4",
    "BlockNumber": 19929615,
    "BlockTimestamp": 1716431471
}