{
    "RawJsonBlockHeader": "EvmBlockHeaderFromRpc { number: 0x130ddbb, hash: 0xbd071d4544de43a2f6bccd6d75d39277da323db1a3fe5adf50a767f1ca3829fe, difficulty: 0x0, extra_data: 0x6265617665726275696c642e6f7267, gas_limit: 0x1c9c380, gas_used: 0x9090cf, logs_bloom: 0x9627425ac9072830518134d0a41808012331215049f0d2860411400104f1a9228020218c080833a9a0a4dd50462625f04ae9f001b8aa2ef136c1a01030ac0941f9f2cd0c1b008e288882d28b924480667896f01640e48c4da245560cd5680651e628c1010f748a69245d110600606c3f02149cbd2c110d0c8a02719e108c444840701b563464409c2041421093ba004c0c2304618729738d54b2606e42b97c39437964a96aa872164a7310c28812eca904048020020540009970040b90a802769552029200580a7056580a08014e18100406b0873260119030226042023de0524238ac1923400c24a614d28218220f00826a5018190993c01081890a0c071c8d, miner: 0x95222290dd7278aa3ddd389cc1e1d165cc4bafe5, mix_hash: 0x170fb9decf9e264a6f003c38f336ed5624d160c42ab8d5483929ecbb1e5090f0, nonce: 0x0000000000000000, parent_hash: 0xca40b675fe18c1ff1712b84f41bc0fe2dccac21c6343f853e1f127c251189298, receipts_root: 0xa03b0e6f442906c88dafa3a95e203e1c87bc41fd172257ba56ee52a22f471cbf, sha3_uncles: 0x1dcc4de8dec75d7aab85b567b6ccd41ad312451b948a7413f0a142fd40d49347, size: 0xc793, state_root: 0xe4004e08eb3e2f5226844fb109707b9b45d1a8bd5cb35e6c8a42e3607b382ba2, timestamp: 0x6657e55b, total_difficulty: 0xc70d815d562d3cfa955, transactions_root: 0xea0c0fa11ef82d321e8502bcc8e07291ae0c975eb8ba0710aaaa8f2e6203f1fd, base_fee_per_gas: Some(0x1a4eeb953), withdrawals_root: Some(0x36f6d4364d8034de10847e91562b85eba5e11fd364205dd7a920359b663712b3), blob_gas_used: Some(0xc0000), excess_blob_gas: Some(0x0), parent_beacon_block_root: Some(0x691193f6189a9cb1481d90b05d05cbbc71667aaf480d1b76c9453ba78e20447b) }",
    "RawBlockHeader": "Header { parent_hash: 0xca40b675fe18c1ff1712b84f41bc0fe2dccac21c6343f853e1f127c251189298, ommers_hash: 0x1dcc4de8dec75d7aab85b567b6ccd41ad312451b948a7413f0a142fd40d49347, beneficiary: 0x95222290dd7278aa3ddd389cc1e1d165cc4bafe5, state_root: 0xe4004e08eb3e2f5226844fb109707b9b45d1a8bd5cb35e6c8a42e3607b382ba2, transactions_root: 0xea0c0fa11ef82d321e8502bcc8e07291ae0c975eb8ba0710aaaa8f2e6203f1fd, receipts_root: 0xa03b0e6f442906c88dafa3a95e203e1c87bc41fd172257ba56ee52a22f471cbf, withdrawals_root: Some(0x36f6d4364d8034de10847e91562b85eba5e11fd364205dd7a920359b663712b3), logs_bloom: 0x9627425ac9072830518134d0a41808012331215049f0d2860411400104f1a9228020218c080833a9a0a4dd50462625f04ae9f001b8aa2ef136c1a01030ac0941f9f2cd0c1b008e288882d28b924480667896f01640e48c4da245560cd5680651e628c1010f748a69245d110600606c3f02149cbd2c110d0c8a02719e108c444840701b563464409c2041421093ba004c0c2304618729738d54b2606e42b97c39437964a96aa872164a7310c28812eca904048020020540009970040b90a802769552029200580a7056580a08014e18100406b0873260119030226042023de0524238ac1923400c24a614d28218220f00826a5018190993c01081890a0c071c8d, difficulty: 0x0_U256, number: 19979707, gas_limit: 30000000, gas_used: 9474255, timestamp: 1717036379, mix_hash: 0x170fb9decf9e264a6f003c38f336ed5624d160c42ab8d5483929ecbb1e5090f0, nonce: 0, base_fee_per_gas: Some(7062075731), blob_gas_used: Some(786432), excess_blob_gas: Some(0), parent_beacon_block_root: Some(0x691193f6189a9cb1481d90b05d05cbbc71667aaf480d1b76c9453ba78e20447b), extra_data: 0x6265617665726275696c642e6f7267 }",
    "RlpEncodedBlockHeader": "f90258a0ca40b675fe18c1ff1712b84f41bc0fe2dccac21c6343f853e1f127c251189298a01dcc4de8dec75d7aab85b567b6ccd41ad312451b948a7413f0a142fd40d493479495222290dd7278aa3ddd389cc1e1d165cc4bafe5a0e4004e08eb3e2f5226844fb109707b9b45d1a8bd5cb35e6c8a42e3607b382ba2a0ea0c0fa11ef82d321e8502bcc8e07291ae0c975eb8ba0710aaaa8f2e6203f1fda0a03b0e6f442906c88dafa3a95e203e1c87bc41fd172257ba56ee52a22f471cbfb901009627425ac9072830518134d0a41808012331215049f0d2860411400104f1a9228020218c080833a9a0a4dd50462625f04ae9f001b8aa2ef136c1a01030ac0941f9f2cd0c1b008e288882d28b924480667896f01640e48c4da245560cd5680651e628c1010f748a69245d110600606c3f02149cbd2c110d0c8a02719e108c444840701b563464409c2041421093ba004c0c2304618729738d54b2606e42b97c39437964a96aa872164a7310c28812eca904048020020540009970040b90a802769552029200580a7056580a08014e18100406b0873260119030226042023de0524238ac1923400c24a614d28218220f00826a5018190993c01081890a0c071c8d80840130ddbb8401c9c380839090cf846657e55b8f6265617665726275696c642e6f7267a0170fb9decf9e264a6f003c38f336ed5624d160c42ab8d5483929ecbb1e5090f08800000000000000008501a4eeb953a036f6d4364d8034de10847e91562b85eba5e11fd364205dd7a920359b663712b3830c000080a0691193f6189a9cb1481d90b05d05cbbc71667aaf480d1b76c9453ba78e20447b",
    "BlockHash": "0xbd071d4544de43a2f6bccd6d75d39277da323db1a3fe5adf50a767f1ca3829fe",
    "BlockNumber": 19979707,
    "BlockTimestamp": 1717036379
}