{
    "RawJsonBlockHeader": "EvmBlockHeaderFromRpc { number: 0x12ddd10, hash: 0x6f292e7fd55802cdd695ae53a6b973ed2d4a32f419ae4db3d974dd1069795f7b, difficulty: 0x0, extra_data: 0x6265617665726275696c642e6f7267, gas_limit: 0x1c9c380, gas_used: 0xa89d0b, logs_bloom: 0x1479625d640d09539da82db181270b21d709149ccacfb34598593cd8c910afc992dd23a2204aa266ca401490293d9b974309c775ae592f0192cb52b0d07dafa85846da0dcf28ebb9a8627c5be1e9e67cc1b49060165c0c4235361c0188a41042869763c4ea2c8b874528a822240878c5a250dd9a52a59f0e18808d5842d908a9baa68f51328c597210494bd527eeca0d5248b231f565026dfb3d21d7403c2c1aabd1717756d5630207bd6df71875ac04d44bca2ba085b33f21dc001819841152d940720390cafc617a189c115807fa8c51080cc2c1e9d8dde04b144ed290e45b0cfaad8b0d8b00218ac4e1a66008c04080be9d689a34aac267496b318014d497, miner: 0x95222290dd7278aa3ddd389cc1e1d165cc4bafe5, mix_hash: 0x3b0f84ba0d48b28927489b76d317ba43953b515a03857d1c6c3b8cc568b35299, nonce: 0x0000000000000000, parent_hash: 0xbbafc3dbee1a1ab8c32a9cbd629767f5aa7da3adc7286bd60e8a250f312d686f, receipts_root: 0x356ce995f12b1ffe4059e5327acdabada274ddf423014b7e37cefa2c047dd92f, sha3_uncles: 0x1dcc4de8dec75d7aab85b567b6ccd41ad312451b948a7413f0a142fd40d49347, size: 0xf140, state_root: 0x094e315582bfc318f01e199a755c555fe6ed19d6928ae3cde03346175c72b200, timestamp: 0x66339e03, total_difficulty: 0xc70d815d562d3cfa955, transactions_root: 0xdc6bf505b482e1ae6d7caf8ad1ba4b13e756415ac9c4980fae1f684884b506c5, base_fee_per_gas: Some(0x2d92e61b2), withdrawals_root: Some(0x89b23baa08e372b07b252d55106048fff877d14f69b3d7ff54ad7eb28d7ec587), blob_gas_used: Some(0x0), excess_blob_gas: Some(0x80000), parent_beacon_block_root: Some(0x65d0015c96bbacff257dd575fc4410e51b726a210c1b47abd032f92513ce4d21) }",
    "RawBlockHeader": "Header { parent_hash: 0xbbafc3dbee1a1ab8c32a9cbd629767f5aa7da3adc7286bd60e8a250f312d686f, ommers_hash: 0x1dcc4de8dec75d7aab85b567b6ccd41ad312451b948a7413f0a142fd40d49347, beneficiary: 0x95222290dd7278aa3ddd389cc1e1d165cc4bafe5, state_root: 0x094e315582bfc318f01e199a755c555fe6ed19d6928ae3cde03346175c72b200, transactions_root: 0xdc6bf505b482e1ae6d7caf8ad1ba4b13e756415ac9c4980fae1f684884b506c5, receipts_root: 0x356ce995f12b1ffe4059e5327acdabada274ddf423014b7e37cefa2c047dd92f, withdrawals_root: Some(0x89b23baa08e372b07b252d55106048fff877d14f69b3d7ff54ad7eb28d7ec587), logs_bloom: 0x1479625d640d09539da82db181270b21d709149ccacfb34598593cd8c910afc992dd23a2204aa266ca401490293d9b974309c775ae592f0192cb52b0d07dafa85846da0dcf28ebb9a8627c5be1e9e67cc1b49060165c0c4235361c0188a41042869763c4ea2c8b874528a822240878c5a250dd9a52a59f0e18808d5842d908a9baa68f51328c597210494bd527eeca0d5248b231f565026dfb3d21d7403c2c1aabd1717756d5630207bd6df71875ac04d44bca2ba085b33f21dc001819841152d940720390cafc617a189c115807fa8c51080cc2c1e9d8dde04b144ed290e45b0cfaad8b0d8b00218ac4e1a66008c04080be9d689a34aac267496b318014d497, difficulty: 0x0_U256, number: 19782928, gas_limit: 30000000, gas_used: 11050251, timestamp: 1714658819, mix_hash: 0x3b0f84ba0d48b28927489b76d317ba43953b515a03857d1c6c3b8cc568b35299, nonce: 0, base_fee_per_gas: Some(12233630130), blob_gas_used: Some(0), excess_blob_gas: Some(524288), parent_beacon_block_root: Some(0x65d0015c96bbacff257dd575fc4410e51b726a210c1b47abd032f92513ce4d21), extra_data: 0x6265617665726275696c642e6f7267 }",
    "RlpEncodedBlockHeader": "f90258a0bbafc3dbee1a1ab8c32a9cbd629767f5aa7da3adc7286bd60e8a250f312d686fa01dcc4de8dec75d7aab85b567b6ccd41ad312451b948a7413f0a142fd40d493479495222290dd7278aa3ddd389cc1e1d165cc4bafe5a0094e315582bfc318f01e199a755c555fe6ed19d6928ae3cde03346175c72b200a0dc6bf505b482e1ae6d7caf8ad1ba4b13e756415ac9c4980fae1f684884b506c5a0356ce995f12b1ffe4059e5327acdabada274ddf423014b7e37cefa2c047dd92fb901001479625d640d09539da82db181270b21d709149ccacfb34598593cd8c910afc992dd23a2204aa266ca401490293d9b974309c775ae592f0192cb52b0d07dafa85846da0dcf28ebb9a8627c5be1e9e67cc1b49060165c0c4235361c0188a41042869763c4ea2c8b874528a822240878c5a250dd9a52a59f0e18808d5842d908a9baa68f51328c597210494bd527eeca0d5248b231f565026dfb3d21d7403c2c1aabd1717756d5630207bd6df71875ac04d44bca2ba085b33f21dc001819841152d940720390cafc617a189c115807fa8c51080cc2c1e9d8dde04b144ed290e45b0cfaad8b0d8b00218ac4e1a66008c04080be9d689a34aac267496b318014d4978084012ddd108401c9c38083a89d0b8466339e038f6265617665726275696c642e6f7267a03b0f84ba0d48b28927489b76d317ba43953b515a03857d1c6c3b8cc568b352998800000000000000008502d92e61b2a089b23baa08e372b07b252d55106048fff877d14f69b3d7ff54ad7eb28d7ec5878083080000a065d0015c96bbacff257dd575fc4410e51b726a210c1b47abd032f92513ce4d21",
    "BlockHash": "0x6f292e7fd55802cdd695ae53a6b973ed2d4a32f419ae4db3d974dd1069795f7b",
    "BlockNumber": 19782928,
    "BlockTimestamp": 1714658819
}