{
    "RawJsonBlockHeader": "EvmBlockHeaderFromRpc { number: 0x134b0fc, hash: 0x4cfaec3a922ac531fa43b7e6f4264602e2b691dea7e624846d1680a17100aae5, difficulty: 0x0, extra_data: 0x, gas_limit: 0x1c9c380, gas_used: 0xb449d5, logs_bloom: 0xd0ba342b4d800320163bd330e0ba082a1003a8120403084016105c42153a400198cbc53098b80074e6413a0008e0470c8b2790098c006eae04f0ae73ee220300b4006c0e30488cab1936411ac05c8aee8580027081560c80ed5e8f56996e50001149d3ae0b0445a5247b141108f07d7381719411cc904f38ca6a229dd24c1a404d34e0918c5e4220a186f109002210968413b061879d004e4c2c04664471144e42a230c0429523137a5650e088c1a56b1a01a8040239049415670804884c0a5063b6618b84562520c0505cd10247c8214a350247c62924940510582b005e2440893820d6ef890413493d558614021807472bd0206b3e71ca1910e172122a5d25, miner: 0x775915f29be0600902a467b6f1167b24543b063c, mix_hash: 0x10817a68375c846ddaf5106b9ab2504a066952ea39653019beb8818012004f10, nonce: 0x0000000000000000, parent_hash: 0x8426caefec178dfc54a0a7201a4d9b6e5f53044b3aee8929c463b39d0b10cdee, receipts_root: 0xaf5dd9f33e9ef5536ce2df14d365de4d47007634aed4b6dc7444dcde95533cd9, sha3_uncles: 0x1dcc4de8dec75d7aab85b567b6ccd41ad312451b948a7413f0a142fd40d49347, size: 0xeb4c, state_root: 0x0c5acbb2b5a1dfbe1deb1bd55fb2c366aec0d0e00d64c7913fa39df0eb0179a7, timestamp: 0x6686139b, total_difficulty: 0xc70d815d562d3cfa955, transactions_root: 0xd559f721f213f0a11668eb0ff5c3559138fdb23197c25e304782c976890a9403, base_fee_per_gas: Some(0xdf84b6d0), withdrawals_root: Some(0x57bfc28cadae589f559d0656ec6b22813604ecd2c29edb9f17963f689f0f0d6f), blob_gas_used: Some(0xc0000), excess_blob_gas: Some(0x1a0000), parent_beacon_block_root: Some(0x75d2fd4629976fc171901a0781695a0121070e22d6dfa05a11fdec518aa32c48) }",
    "RawBlockHeader": "Header { parent_hash: 0x8426caefec178dfc54a0a7201a4d9b6e5f53044b3aee8929c463b39d0b10cdee, ommers_hash: 0x1dcc4de8dec75d7aab85b567b6ccd41ad312451b948a7413f0a142fd40d49347, beneficiary: 0x775915f29be0600902a467b6f1167b24543b063c, state_root: 0x0c5acbb2b5a1dfbe1deb1bd55fb2c366aec0d0e00d64c7913fa39df0eb0179a7, transactions_root: 0xd559f721f213f0a11668eb0ff5c3559138fdb23197c25e304782c976890a9403, receipts_root: 0xaf5dd9f33e9ef5536ce2df14d365de4d47007634aed4b6dc7444dcde95533cd9, withdrawals_root: Some(0x57bfc28cadae589f559d0656ec6b22813604ecd2c29edb9f17963f689f0f0d6f), logs_bloom: 0xd0ba342b4d800320163bd330e0ba082a1003a8120403084016105c42153a400198cbc53098b80074e6413a0008e0470c8b2790098c006eae04f0ae73ee220300b4006c0e30488cab1936411ac05c8aee8580027081560c80ed5e8f56996e50001149d3ae0b0445a5247b141108f07d7381719411cc904f38ca6a229dd24c1a404d34e0918c5e4220a186f109002210968413b061879d004e4c2c04664471144e42a230c0429523137a5650e088c1a56b1a01a8040239049415670804884c0a5063b6618b84562520c0505cd10247c8214a350247c62924940510582b005e2440893820d6ef890413493d558614021807472bd0206b3e71ca1910e172122a5d25, difficulty: 0x0_U256, number: 20230396, gas_limit: 30000000, gas_used: 11815381, timestamp: 1720062875, mix_hash: 0x10817a68375c846ddaf5106b9ab2504a066952ea39653019beb8818012004f10, nonce: 0, base_fee_per_gas: Some(3750016720), blob_gas_used: Some(786432), excess_blob_gas: Some(1703936), parent_beacon_block_root: Some(0x75d2fd4629976fc171901a0781695a0121070e22d6dfa05a11fdec518aa32c48), extra_data: 0x }",
    "RlpEncodedBlockHeader": "f9024ba08426caefec178dfc54a0a7201a4d9b6e5f53044b3aee8929c463b39d0b10cdeea01dcc4de8dec75d7aab85b567b6ccd41ad312451b948a7413f0a142fd40d4934794775915f29be0600902a467b6f1167b24543b063ca00c5acbb2b5a1dfbe1deb1bd55fb2c366aec0d0e00d64c7913fa39df0eb0179a7a0d559f721f213f0a11668eb0ff5c3559138fdb23197c25e304782c976890a9403a0af5dd9f33e9ef5536ce2df14d365de4d47007634aed4b6dc7444dcde95533cd9b90100d0ba342b4d800320163bd330e0ba082a1003a8120403084016105c42153a400198cbc53098b80074e6413a0008e0470c8b2790098c006eae04f0ae73ee220300b4006c0e30488cab1936411ac05c8aee8580027081560c80ed5e8f56996e50001149d3ae0b0445a5247b141108f07d7381719411cc904f38ca6a229dd24c1a404d34e0918c5e4220a186f109002210968413b061879d004e4c2c04664471144e42a230c0429523137a5650e088c1a56b1a01a8040239049415670804884c0a5063b6618b84562520c0505cd10247c8214a350247c62924940510582b005e2440893820d6ef890413493d558614021807472bd0206b3e71ca1910e172122a5d2580840134b0fc8401c9c38083b449d5846686139b80a010817a68375c846ddaf5106b9ab2504a066952ea39653019beb8818012004f1088000000000000000084df84b6d0a057bfc28cadae589f559d0656ec6b22813604ecd2c29edb9f17963f689f0f0d6f830c0000831a0000a075d2fd4629976fc171901a0781695a0121070e22d6dfa05a11fdec518aa32c48",
    "BlockHash": "0x4cfaec3a922ac531fa43b7e6f4264602e2b691dea7e624846d1680a17100aae5",
    "BlockNumber": 20230396,
    "BlockTimestamp": 1720062875
}