{
    "RawJsonBlockHeader": "EvmBlockHeaderFromRpc { number: 0x1394631, hash: 0xc8eada67a2c66e11ff9596628240fb4bccbd6aa039bc07256dc12a40d8430bcf, difficulty: 0x0, extra_data: 0x6265617665726275696c642e6f7267, gas_limit: 0x1c9c380, gas_used: 0xfa4d0b, logs_bloom: 0x15ad81697a1bd9c74e201994e6003101b39820108c8f6cb0433f420036228958044304680ada01122221324297cb69c943f9da309940e235f3df65228d6801905611bd8b50c8ef9bec7c5888904990a090824515426c482430f71585ac34c3043842522d6260043c1a0ac1bc2228edd726c007ac898f6e36c8244d7506090c4429e430502969c4d6c2c92b6623a40b418681b03145a082ea89a44142509b32718784288c1d973457066954c208828fc8260746209764320006280e3080282074d793450a905a1f6001094c5c5afb3c16324816aba74e853011025703d5bae19795fcb9f0468c262929072e865698ee26596cd700f39cb0c1a905b15ff0f53425, miner: 0x95222290dd7278aa3ddd389cc1e1d165cc4bafe5, mix_hash: 0xa640a7528ddbf0c4d321162d1fb321808bf4b62f15b10781e1fecf6ee4aa549a, nonce: 0x0000000000000000, parent_hash: 0x0f93f4a04ba5e0721a824c63b27648771871cccd7bce742a641f0c068ced6630, receipts_root: 0x7bfdcaf0668b54725447422d5cfe0777269e20ded93b11995426319412965a8e, sha3_uncles: 0x1dcc4de8dec75d7aab85b567b6ccd41ad312451b948a7413f0a142fd40d49347, size: 0x124d0, state_root: 0xc40a51066f8d36749763611a9fc87de19e778d60b4555be33cb0d0c051663587, timestamp: 0x66bd5927, total_difficulty: 0xc70d815d562d3cfa955, transactions_root: 0x102a043268a245ef4c7b50b1d4d81d8961d617d3c6eb7fc1517a1768eef96f51, base_fee_per_gas: Some(0x4142e2a2), withdrawals_root: Some(0x8843e21b3de9054031a339d51ab4afef373bb2d1f559bb7981c0f251297416c4), blob_gas_used: Some(0x20000), excess_blob_gas: Some(0x0), parent_beacon_block_root: Some(0x07b6926cb57c9857fbbeb48fff177d9432172c12247db1bdbf953aa47d483875) }",
    "RawBlockHeader": "Header { parent_hash: 0x0f93f4a04ba5e0721a824c63b27648771871cccd7bce742a641f0c068ced6630, ommers_hash: 0x1dcc4de8dec75d7aab85b567b6ccd41ad312451b948a7413f0a142fd40d49347, beneficiary: 0x95222290dd7278aa3ddd389cc1e1d165cc4bafe5, state_root: 0xc40a51066f8d36749763611a9fc87de19e778d60b4555be33cb0d0c051663587, transactions_root: 0x102a043268a245ef4c7b50b1d4d81d8961d617d3c6eb7fc1517a1768eef96f51, receipts_root: 0x7bfdcaf0668b54725447422d5cfe0777269e20ded93b11995426319412965a8e, withdrawals_root: Some(0x8843e21b3de9054031a339d51ab4afef373bb2d1f559bb7981c0f251297416c4), logs_bloom: 0x15ad81697a1bd9c74e201994e6003101b39820108c8f6cb0433f420036228958044304680ada01122221324297cb69c943f9da309940e235f3df65228d6801905611bd8b50c8ef9bec7c5888904990a090824515426c482430f71585ac34c3043842522d6260043c1a0ac1bc2228edd726c007ac898f6e36c8244d7506090c4429e430502969c4d6c2c92b6623a40b418681b03145a082ea89a44142509b32718784288c1d973457066954c208828fc8260746209764320006280e3080282074d793450a905a1f6001094c5c5afb3c16324816aba74e853011025703d5bae19795fcb9f0468c262929072e865698ee26596cd700f39cb0c1a905b15ff0f53425, difficulty: 0x0_U256, number: 20530737, gas_limit: 30000000, gas_used: 16403723, timestamp: 1723685159, mix_hash: 0xa640a7528ddbf0c4d321162d1fb321808bf4b62f15b10781e1fecf6ee4aa549a, nonce: 0, base_fee_per_gas: Some(1094902434), blob_gas_used: Some(131072), excess_blob_gas: Some(0), parent_beacon_block_root: Some(0x07b6926cb57c9857fbbeb48fff177d9432172c12247db1bdbf953aa47d483875), extra_data: 0x6265617665726275696c642e6f7267 }",
    "RlpEncodedBlockHeader": "f90257a00f93f4a04ba5e0721a824c63b27648771871cccd7bce742a641f0c068ced6630a01dcc4de8dec75d7aab85b567b6ccd41ad312451b948a7413f0a142fd40d493479495222290dd7278aa3ddd389cc1e1d165cc4bafe5a0c40a51066f8d36749763611a9fc87de19e778d60b4555be33cb0d0c051663587a0102a043268a245ef4c7b50b1d4d81d8961d617d3c6eb7fc1517a1768eef96f51a07bfdcaf0668b54725447422d5cfe0777269e20ded93b11995426319412965a8eb9010015ad81697a1bd9c74e201994e6003101b39820108c8f6cb0433f420036228958044304680ada01122221324297cb69c943f9da309940e235f3df65228d6801905611bd8b50c8ef9bec7c5888904990a090824515426c482430f71585ac34c3043842522d6260043c1a0ac1bc2228edd726c007ac898f6e36c8244d7506090c4429e430502969c4d6c2c92b6623a40b418681b03145a082ea89a44142509b32718784288c1d973457066954c208828fc8260746209764320006280e3080282074d793450a905a1f6001094c5c5afb3c16324816aba74e853011025703d5bae19795fcb9f0468c262929072e865698ee26596cd700f39cb0c1a905b15ff0f534258084013946318401c9c38083fa4d0b8466bd59278f6265617665726275696c642e6f7267a0a640a7528ddbf0c4d321162d1fb321808bf4b62f15b10781e1fecf6ee4aa549a880000000000000000844142e2a2a08843e21b3de9054031a339d51ab4afef373bb2d1f559bb7981c0f251297416c48302000080a007b6926cb57c9857fbbeb48fff177d9432172c12247db1bdbf953aa47d483875",
    "BlockHash": "0xc8eada67a2c66e11ff9596628240fb4bccbd6aa039bc07256dc12a40d8430bcf",
    "BlockNumber": 20530737,
    "BlockTimestamp": 1723685159
}