{
    "RawJsonBlockHeader": "EvmBlockHeaderFromRpc { number: 0x14027d2, hash: 0x2d9f81d541794c4a2f375fc3e6492179de7f8919c471ff9d9b027e5cb3e704e9, difficulty: 0x0, extra_data: 0x546974616e2028746974616e6275696c6465722e78797a29, gas_limit: 0x1c9c380, gas_used: 0x1c9a3b8, logs_bloom: 0x37afc5eee97b2547f630f8febf7b7bfdff5dbbf5c73d5ddae35f5e71d73ae9e3bdddf4f5e239569fe7f8bb9c7677ed7edfbdd77fdfeae0af569da5edc3bba7afff1a7faffcaffbeffba7d9ddd9ccdfbbdeedfa5e9f77df7f50fcfb6c8ffceace5fa76e3baef71b37e9bff6b2dd37ff49bf2f8d632abdae77c60b65bfde6fdfd76966ffea7c7ec3f96fd9ba7eaf770a66becfe7a3dfee7bbbafbc17daf2f3ef1fffd6f3f6ef56f757d7ff97cebeebbd7d9fe7cdd7aff7776fdfee5ecefdfe486ffd77f9eb513dfbfbd5fb79e7effb7bde6e7befbbe57c3eff7ef5790b94ebbef2e537aeffaf07acd47f65dbd7cc0c9c77cd6df36195feadfff9b9d5bb518c1d57, miner: 0x4838b106fce9647bdf1e7877bf73ce8b0bad5f97, mix_hash: 0xdd83533e4a146c423cf40753b650e47ca63fa7ebdff4282006a3dc47af8453b1, nonce: 0x0000000000000000, parent_hash: 0x817817c486717821ec6569710486f658fd0f4e52458d0951e85041a3290bb06a, receipts_root: 0xc6655573a742a5918e54502c2c0142704f27860d7cba4b145d50382b3b157550, sha3_uncles: 0x1dcc4de8dec75d7aab85b567b6ccd41ad312451b948a7413f0a142fd40d49347, size: 0x2431e, state_root: 0x0baceb0165b7986aafbd0b65476b14348408ad485072897019634e155457d603, timestamp: 0x67105ab7, total_difficulty: 0xc70d815d562d3cfa955, transactions_root: 0xe5556e68eeb98ec2a19bbc8f11102cc861556834a82bf0d7f9d76e3f9e264539, base_fee_per_gas: Some(0x1b9429fa7), withdrawals_root: Some(0x9e856c9348b5cae34069aa9e53a1226ac08126b21208ed66695731e698e605cb), blob_gas_used: Some(0x0), excess_blob_gas: Some(0x120000), parent_beacon_block_root: Some(0xdea1f743085c7a1aeba69e55810b7fc64d653744e1eded1198ddea511863e4df) }",
    "RawBlockHeader": "Header { parent_hash: 0x817817c486717821ec6569710486f658fd0f4e52458d0951e85041a3290bb06a, ommers_hash: 0x1dcc4de8dec75d7aab85b567b6ccd41ad312451b948a7413f0a142fd40d49347, beneficiary: 0x4838b106fce9647bdf1e7877bf73ce8b0bad5f97, state_root: 0x0baceb0165b7986aafbd0b65476b14348408ad485072897019634e155457d603, transactions_root: 0xe5556e68eeb98ec2a19bbc8f11102cc861556834a82bf0d7f9d76e3f9e264539, receipts_root: 0xc6655573a742a5918e54502c2c0142704f27860d7cba4b145d50382b3b157550, withdrawals_root: Some(0x9e856c9348b5cae34069aa9e53a1226ac08126b21208ed66695731e698e605cb), logs_bloom: 0x37afc5eee97b2547f630f8febf7b7bfdff5dbbf5c73d5ddae35f5e71d73ae9e3bdddf4f5e239569fe7f8bb9c7677ed7edfbdd77fdfeae0af569da5edc3bba7afff1a7faffcaffbeffba7d9ddd9ccdfbbdeedfa5e9f77df7f50fcfb6c8ffceace5fa76e3baef71b37e9bff6b2dd37ff49bf2f8d632abdae77c60b65bfde6fdfd76966ffea7c7ec3f96fd9ba7eaf770a66becfe7a3dfee7bbbafbc17daf2f3ef1fffd6f3f6ef56f757d7ff97cebeebbd7d9fe7cdd7aff7776fdfee5ecefdfe486ffd77f9eb513dfbfbd5fb79e7effb7bde6e7befbbe57c3eff7ef5790b94ebbef2e537aeffaf07acd47f65dbd7cc0c9c77cd6df36195feadfff9b9d5bb518c1d57, difficulty: 0x0_U256, number: 20981714, gas_limit: 30000000, gas_used: 29991864, timestamp: 1729125047, mix_hash: 0xdd83533e4a146c423cf40753b650e47ca63fa7ebdff4282006a3dc47af8453b1, nonce: 0, base_fee_per_gas: Some(7403118503), blob_gas_used: Some(0), excess_blob_gas: Some(1179648), parent_beacon_block_root: Some(0xdea1f743085c7a1aeba69e55810b7fc64d653744e1eded1198ddea511863e4df), extra_data: 0x546974616e2028746974616e6275696c6465722e78797a29 }",
    "RlpEncodedBlockHeader": "f90262a0817817c486717821ec6569710486f658fd0f4e52458d0951e85041a3290bb06aa01dcc4de8dec75d7aab85b567b6ccd41ad312451b948a7413f0a142fd40d49347944838b106fce9647bdf1e7877bf73ce8b0bad5f97a00baceb0165b7986aafbd0b65476b14348408ad485072897019634e155457d603a0e5556e68eeb98ec2a19bbc8f11102cc861556834a82bf0d7f9d76e3f9e264539a0c6655573a742a5918e54502c2c0142704f27860d7cba4b145d50382b3b157550b9010037afc5eee97b2547f630f8febf7b7bfdff5dbbf5c73d5ddae35f5e71d73ae9e3bdddf4f5e239569fe7f8bb9c7677ed7edfbdd77fdfeae0af569da5edc3bba7afff1a7faffcaffbeffba7d9ddd9ccdfbbdeedfa5e9f77df7f50fcfb6c8ffceace5fa76e3baef71b37e9bff6b2dd37ff49bf2f8d632abdae77c60b65bfde6fdfd76966ffea7c7ec3f96fd9ba7eaf770a66becfe7a3dfee7bbbafbc17daf2f3ef1fffd6f3f6ef56f757d7ff97cebeebbd7d9fe7cdd7aff7776fdfee5ecefdfe486ffd77f9eb513dfbfbd5fb79e7effb7bde6e7befbbe57c3eff7ef5790b94ebbef2e537aeffaf07acd47f65dbd7cc0c9c77cd6df36195feadfff9b9d5bb518c1d578084014027d28401c9c3808401c9a3b88467105ab798546974616e2028746974616e6275696c6465722e78797a29a0dd83533e4a146c423cf40753b650e47ca63fa7ebdff4282006a3dc47af8453b18800000000000000008501b9429fa7a09e856c9348b5cae34069aa9e53a1226ac08126b21208ed66695731e698e605cb8083120000a0dea1f743085c7a1aeba69e55810b7fc64d653744e1eded1198ddea511863e4df",
    "BlockHash": "0x2d9f81d541794c4a2f375fc3e6492179de7f8919c471ff9d9b027e5cb3e704e9",
    "BlockNumber": 20981714,
    "BlockTimestamp": 1729125047
}